{
	"Chapter1/Ex2-5.sol": {
		"Ex2_5": {
			"abi": [
				{
					"inputs": [],
					"name": "commpoundAssignment",
					"outputs": [
						{
							"internalType": "uint256",
							"name": "",
							"type": "uint256"
						},
						{
							"internalType": "uint256",
							"name": "",
							"type": "uint256"
						},
						{
							"internalType": "uint256",
							"name": "",
							"type": "uint256"
						},
						{
							"internalType": "uint256",
							"name": "",
							"type": "uint256"
						},
						{
							"internalType": "uint256",
							"name": "",
							"type": "uint256"
						}
					],
					"stateMutability": "nonpayable",
					"type": "function"
				}
			],
			"devdoc": {
				"kind": "dev",
				"methods": {},
				"version": 1
			},
			"evm": {
				"assembly": "    /* \"Chapter1/Ex2-5.sol\":67:379  contract Ex2_5 {... */\n  mstore(0x40, 0x80)\n    /* \"Chapter1/Ex2-5.sol\":100:101  5 */\n  0x05\n    /* \"Chapter1/Ex2-5.sol\":91:101  uint a = 5 */\n  0x00\n  sstore\n    /* \"Chapter1/Ex2-5.sol\":117:118  5 */\n  0x05\n    /* \"Chapter1/Ex2-5.sol\":108:118  uint b = 5 */\n  0x01\n  sstore\n    /* \"Chapter1/Ex2-5.sol\":134:135  5 */\n  0x05\n    /* \"Chapter1/Ex2-5.sol\":125:135  uint c = 5 */\n  0x02\n  sstore\n    /* \"Chapter1/Ex2-5.sol\":151:152  5 */\n  0x05\n    /* \"Chapter1/Ex2-5.sol\":142:152  uint d = 5 */\n  0x03\n  sstore\n    /* \"Chapter1/Ex2-5.sol\":168:169  5 */\n  0x05\n    /* \"Chapter1/Ex2-5.sol\":159:169  uint e = 5 */\n  0x04\n  sstore\n    /* \"Chapter1/Ex2-5.sol\":67:379  contract Ex2_5 {... */\n  callvalue\n  dup1\n  iszero\n  tag_1\n  jumpi\n  0x00\n  dup1\n  revert\ntag_1:\n  pop\n  dataSize(sub_0)\n  dup1\n  dataOffset(sub_0)\n  0x00\n  codecopy\n  0x00\n  return\nstop\n\nsub_0: assembly {\n        /* \"Chapter1/Ex2-5.sol\":67:379  contract Ex2_5 {... */\n      mstore(0x40, 0x80)\n      callvalue\n      dup1\n      iszero\n      tag_1\n      jumpi\n      0x00\n      dup1\n      revert\n    tag_1:\n      pop\n      jumpi(tag_2, lt(calldatasize, 0x04))\n      shr(0xe0, calldataload(0x00))\n      dup1\n      0x85e2c9c5\n      eq\n      tag_3\n      jumpi\n    tag_2:\n      0x00\n      dup1\n      revert\n        /* \"Chapter1/Ex2-5.sol\":178:376  function commpoundAssignment() public returns(uint, uint, uint, uint , uint) {... */\n    tag_3:\n      tag_4\n      tag_5\n      jump\t// in\n    tag_4:\n      mload(0x40)\n      tag_6\n      swap6\n      swap5\n      swap4\n      swap3\n      swap2\n      swap1\n      tag_7\n      jump\t// in\n    tag_6:\n      mload(0x40)\n      dup1\n      swap2\n      sub\n      swap1\n      return\n    tag_5:\n        /* \"Chapter1/Ex2-5.sol\":224:228  uint */\n      0x00\n        /* \"Chapter1/Ex2-5.sol\":230:234  uint */\n      dup1\n        /* \"Chapter1/Ex2-5.sol\":236:240  uint */\n      0x00\n        /* \"Chapter1/Ex2-5.sol\":242:246  uint */\n      dup1\n        /* \"Chapter1/Ex2-5.sol\":249:253  uint */\n      0x00\n        /* \"Chapter1/Ex2-5.sol\":271:272  2 */\n      0x02\n        /* \"Chapter1/Ex2-5.sol\":266:267  a */\n      0x00\n      dup1\n        /* \"Chapter1/Ex2-5.sol\":266:272  a += 2 */\n      dup3\n      dup3\n      sload\n      tag_9\n      swap2\n      swap1\n      tag_10\n      jump\t// in\n    tag_9:\n      swap3\n      pop\n      pop\n      dup2\n      swap1\n      sstore\n      pop\n        /* \"Chapter1/Ex2-5.sol\":288:289  2 */\n      0x02\n        /* \"Chapter1/Ex2-5.sol\":283:284  b */\n      0x01\n      0x00\n        /* \"Chapter1/Ex2-5.sol\":283:289  b -= 2 */\n      dup3\n      dup3\n      sload\n      tag_11\n      swap2\n      swap1\n      tag_12\n      jump\t// in\n    tag_11:\n      swap3\n      pop\n      pop\n      dup2\n      swap1\n      sstore\n      pop\n        /* \"Chapter1/Ex2-5.sol\":305:306  2 */\n      0x02\n        /* \"Chapter1/Ex2-5.sol\":300:301  c */\n      dup1\n      0x00\n        /* \"Chapter1/Ex2-5.sol\":300:306  c *= 2 */\n      dup3\n      dup3\n      sload\n      tag_13\n      swap2\n      swap1\n      tag_14\n      jump\t// in\n    tag_13:\n      swap3\n      pop\n      pop\n      dup2\n      swap1\n      sstore\n      pop\n        /* \"Chapter1/Ex2-5.sol\":322:323  2 */\n      0x02\n        /* \"Chapter1/Ex2-5.sol\":317:318  d */\n      0x03\n      0x00\n        /* \"Chapter1/Ex2-5.sol\":317:323  d /= 2 */\n      dup3\n      dup3\n      sload\n      tag_15\n      swap2\n      swap1\n      tag_16\n      jump\t// in\n    tag_15:\n      swap3\n      pop\n      pop\n      dup2\n      swap1\n      sstore\n      pop\n        /* \"Chapter1/Ex2-5.sol\":339:340  2 */\n      0x02\n        /* \"Chapter1/Ex2-5.sol\":334:335  e */\n      0x04\n      0x00\n        /* \"Chapter1/Ex2-5.sol\":334:340  e %= 2 */\n      dup3\n      dup3\n      sload\n      tag_17\n      swap2\n      swap1\n      tag_18\n      jump\t// in\n    tag_17:\n      swap3\n      pop\n      pop\n      dup2\n      swap1\n      sstore\n      pop\n        /* \"Chapter1/Ex2-5.sol\":358:359  a */\n      sload(0x00)\n        /* \"Chapter1/Ex2-5.sol\":360:361  b */\n      sload(0x01)\n        /* \"Chapter1/Ex2-5.sol\":362:363  c */\n      sload(0x02)\n        /* \"Chapter1/Ex2-5.sol\":364:365  d */\n      sload(0x03)\n        /* \"Chapter1/Ex2-5.sol\":366:367  e */\n      sload(0x04)\n        /* \"Chapter1/Ex2-5.sol\":351:368  return(a,b,c,d,e) */\n      swap5\n      pop\n      swap5\n      pop\n      swap5\n      pop\n      swap5\n      pop\n      swap5\n      pop\n        /* \"Chapter1/Ex2-5.sol\":178:376  function commpoundAssignment() public returns(uint, uint, uint, uint , uint) {... */\n      swap1\n      swap2\n      swap3\n      swap4\n      swap5\n      jump\t// out\n        /* \"#utility.yul\":7:84   */\n    tag_19:\n        /* \"#utility.yul\":44:51   */\n      0x00\n        /* \"#utility.yul\":73:78   */\n      dup2\n        /* \"#utility.yul\":62:78   */\n      swap1\n      pop\n        /* \"#utility.yul\":7:84   */\n      swap2\n      swap1\n      pop\n      jump\t// out\n        /* \"#utility.yul\":90:208   */\n    tag_20:\n        /* \"#utility.yul\":177:201   */\n      tag_26\n        /* \"#utility.yul\":195:200   */\n      dup2\n        /* \"#utility.yul\":177:201   */\n      tag_19\n      jump\t// in\n    tag_26:\n        /* \"#utility.yul\":172:175   */\n      dup3\n        /* \"#utility.yul\":165:202   */\n      mstore\n        /* \"#utility.yul\":90:208   */\n      pop\n      pop\n      jump\t// out\n        /* \"#utility.yul\":214:878   */\n    tag_7:\n        /* \"#utility.yul\":419:423   */\n      0x00\n        /* \"#utility.yul\":457:460   */\n      0xa0\n        /* \"#utility.yul\":446:455   */\n      dup3\n        /* \"#utility.yul\":442:461   */\n      add\n        /* \"#utility.yul\":434:461   */\n      swap1\n      pop\n        /* \"#utility.yul\":471:542   */\n      tag_28\n        /* \"#utility.yul\":539:540   */\n      0x00\n        /* \"#utility.yul\":528:537   */\n      dup4\n        /* \"#utility.yul\":524:541   */\n      add\n        /* \"#utility.yul\":515:521   */\n      dup9\n        /* \"#utility.yul\":471:542   */\n      tag_20\n      jump\t// in\n    tag_28:\n        /* \"#utility.yul\":552:624   */\n      tag_29\n        /* \"#utility.yul\":620:622   */\n      0x20\n        /* \"#utility.yul\":609:618   */\n      dup4\n        /* \"#utility.yul\":605:623   */\n      add\n        /* \"#utility.yul\":596:602   */\n      dup8\n        /* \"#utility.yul\":552:624   */\n      tag_20\n      jump\t// in\n    tag_29:\n        /* \"#utility.yul\":634:706   */\n      tag_30\n        /* \"#utility.yul\":702:704   */\n      0x40\n        /* \"#utility.yul\":691:700   */\n      dup4\n        /* \"#utility.yul\":687:705   */\n      add\n        /* \"#utility.yul\":678:684   */\n      dup7\n        /* \"#utility.yul\":634:706   */\n      tag_20\n      jump\t// in\n    tag_30:\n        /* \"#utility.yul\":716:788   */\n      tag_31\n        /* \"#utility.yul\":784:786   */\n      0x60\n        /* \"#utility.yul\":773:782   */\n      dup4\n        /* \"#utility.yul\":769:787   */\n      add\n        /* \"#utility.yul\":760:766   */\n      dup6\n        /* \"#utility.yul\":716:788   */\n      tag_20\n      jump\t// in\n    tag_31:\n        /* \"#utility.yul\":798:871   */\n      tag_32\n        /* \"#utility.yul\":866:869   */\n      0x80\n        /* \"#utility.yul\":855:864   */\n      dup4\n        /* \"#utility.yul\":851:870   */\n      add\n        /* \"#utility.yul\":842:848   */\n      dup5\n        /* \"#utility.yul\":798:871   */\n      tag_20\n      jump\t// in\n    tag_32:\n        /* \"#utility.yul\":214:878   */\n      swap7\n      swap6\n      pop\n      pop\n      pop\n      pop\n      pop\n      pop\n      jump\t// out\n        /* \"#utility.yul\":884:1064   */\n    tag_21:\n        /* \"#utility.yul\":932:1009   */\n      0x4e487b7100000000000000000000000000000000000000000000000000000000\n        /* \"#utility.yul\":929:930   */\n      0x00\n        /* \"#utility.yul\":922:1010   */\n      mstore\n        /* \"#utility.yul\":1029:1033   */\n      0x11\n        /* \"#utility.yul\":1026:1027   */\n      0x04\n        /* \"#utility.yul\":1019:1034   */\n      mstore\n        /* \"#utility.yul\":1053:1057   */\n      0x24\n        /* \"#utility.yul\":1050:1051   */\n      0x00\n        /* \"#utility.yul\":1043:1058   */\n      revert\n        /* \"#utility.yul\":1070:1261   */\n    tag_10:\n        /* \"#utility.yul\":1110:1113   */\n      0x00\n        /* \"#utility.yul\":1129:1149   */\n      tag_35\n        /* \"#utility.yul\":1147:1148   */\n      dup3\n        /* \"#utility.yul\":1129:1149   */\n      tag_19\n      jump\t// in\n    tag_35:\n        /* \"#utility.yul\":1124:1149   */\n      swap2\n      pop\n        /* \"#utility.yul\":1163:1183   */\n      tag_36\n        /* \"#utility.yul\":1181:1182   */\n      dup4\n        /* \"#utility.yul\":1163:1183   */\n      tag_19\n      jump\t// in\n    tag_36:\n        /* \"#utility.yul\":1158:1183   */\n      swap3\n      pop\n        /* \"#utility.yul\":1206:1207   */\n      dup3\n        /* \"#utility.yul\":1203:1204   */\n      dup3\n        /* \"#utility.yul\":1199:1208   */\n      add\n        /* \"#utility.yul\":1192:1208   */\n      swap1\n      pop\n        /* \"#utility.yul\":1227:1230   */\n      dup1\n        /* \"#utility.yul\":1224:1225   */\n      dup3\n        /* \"#utility.yul\":1221:1231   */\n      gt\n        /* \"#utility.yul\":1218:1254   */\n      iszero\n      tag_37\n      jumpi\n        /* \"#utility.yul\":1234:1252   */\n      tag_38\n      tag_21\n      jump\t// in\n    tag_38:\n        /* \"#utility.yul\":1218:1254   */\n    tag_37:\n        /* \"#utility.yul\":1070:1261   */\n      swap3\n      swap2\n      pop\n      pop\n      jump\t// out\n        /* \"#utility.yul\":1267:1461   */\n    tag_12:\n        /* \"#utility.yul\":1307:1311   */\n      0x00\n        /* \"#utility.yul\":1327:1347   */\n      tag_40\n        /* \"#utility.yul\":1345:1346   */\n      dup3\n        /* \"#utility.yul\":1327:1347   */\n      tag_19\n      jump\t// in\n    tag_40:\n        /* \"#utility.yul\":1322:1347   */\n      swap2\n      pop\n        /* \"#utility.yul\":1361:1381   */\n      tag_41\n        /* \"#utility.yul\":1379:1380   */\n      dup4\n        /* \"#utility.yul\":1361:1381   */\n      tag_19\n      jump\t// in\n    tag_41:\n        /* \"#utility.yul\":1356:1381   */\n      swap3\n      pop\n        /* \"#utility.yul\":1405:1406   */\n      dup3\n        /* \"#utility.yul\":1402:1403   */\n      dup3\n        /* \"#utility.yul\":1398:1407   */\n      sub\n        /* \"#utility.yul\":1390:1407   */\n      swap1\n      pop\n        /* \"#utility.yul\":1429:1430   */\n      dup2\n        /* \"#utility.yul\":1423:1427   */\n      dup2\n        /* \"#utility.yul\":1420:1431   */\n      gt\n        /* \"#utility.yul\":1417:1454   */\n      iszero\n      tag_42\n      jumpi\n        /* \"#utility.yul\":1434:1452   */\n      tag_43\n      tag_21\n      jump\t// in\n    tag_43:\n        /* \"#utility.yul\":1417:1454   */\n    tag_42:\n        /* \"#utility.yul\":1267:1461   */\n      swap3\n      swap2\n      pop\n      pop\n      jump\t// out\n        /* \"#utility.yul\":1467:1877   */\n    tag_14:\n        /* \"#utility.yul\":1507:1514   */\n      0x00\n        /* \"#utility.yul\":1530:1550   */\n      tag_45\n        /* \"#utility.yul\":1548:1549   */\n      dup3\n        /* \"#utility.yul\":1530:1550   */\n      tag_19\n      jump\t// in\n    tag_45:\n        /* \"#utility.yul\":1525:1550   */\n      swap2\n      pop\n        /* \"#utility.yul\":1564:1584   */\n      tag_46\n        /* \"#utility.yul\":1582:1583   */\n      dup4\n        /* \"#utility.yul\":1564:1584   */\n      tag_19\n      jump\t// in\n    tag_46:\n        /* \"#utility.yul\":1559:1584   */\n      swap3\n      pop\n        /* \"#utility.yul\":1619:1620   */\n      dup3\n        /* \"#utility.yul\":1616:1617   */\n      dup3\n        /* \"#utility.yul\":1612:1621   */\n      mul\n        /* \"#utility.yul\":1641:1671   */\n      tag_47\n        /* \"#utility.yul\":1659:1670   */\n      dup2\n        /* \"#utility.yul\":1641:1671   */\n      tag_19\n      jump\t// in\n    tag_47:\n        /* \"#utility.yul\":1630:1671   */\n      swap2\n      pop\n        /* \"#utility.yul\":1820:1821   */\n      dup3\n        /* \"#utility.yul\":1811:1818   */\n      dup3\n        /* \"#utility.yul\":1807:1822   */\n      div\n        /* \"#utility.yul\":1804:1805   */\n      dup5\n        /* \"#utility.yul\":1801:1823   */\n      eq\n        /* \"#utility.yul\":1781:1782   */\n      dup4\n        /* \"#utility.yul\":1774:1783   */\n      iszero\n        /* \"#utility.yul\":1754:1837   */\n      or\n        /* \"#utility.yul\":1731:1870   */\n      tag_48\n      jumpi\n        /* \"#utility.yul\":1850:1868   */\n      tag_49\n      tag_21\n      jump\t// in\n    tag_49:\n        /* \"#utility.yul\":1731:1870   */\n    tag_48:\n        /* \"#utility.yul\":1515:1877   */\n      pop\n        /* \"#utility.yul\":1467:1877   */\n      swap3\n      swap2\n      pop\n      pop\n      jump\t// out\n        /* \"#utility.yul\":1883:2063   */\n    tag_22:\n        /* \"#utility.yul\":1931:2008   */\n      0x4e487b7100000000000000000000000000000000000000000000000000000000\n        /* \"#utility.yul\":1928:1929   */\n      0x00\n        /* \"#utility.yul\":1921:2009   */\n      mstore\n        /* \"#utility.yul\":2028:2032   */\n      0x12\n        /* \"#utility.yul\":2025:2026   */\n      0x04\n        /* \"#utility.yul\":2018:2033   */\n      mstore\n        /* \"#utility.yul\":2052:2056   */\n      0x24\n        /* \"#utility.yul\":2049:2050   */\n      0x00\n        /* \"#utility.yul\":2042:2057   */\n      revert\n        /* \"#utility.yul\":2069:2254   */\n    tag_16:\n        /* \"#utility.yul\":2109:2110   */\n      0x00\n        /* \"#utility.yul\":2126:2146   */\n      tag_52\n        /* \"#utility.yul\":2144:2145   */\n      dup3\n        /* \"#utility.yul\":2126:2146   */\n      tag_19\n      jump\t// in\n    tag_52:\n        /* \"#utility.yul\":2121:2146   */\n      swap2\n      pop\n        /* \"#utility.yul\":2160:2180   */\n      tag_53\n        /* \"#utility.yul\":2178:2179   */\n      dup4\n        /* \"#utility.yul\":2160:2180   */\n      tag_19\n      jump\t// in\n    tag_53:\n        /* \"#utility.yul\":2155:2180   */\n      swap3\n      pop\n        /* \"#utility.yul\":2199:2200   */\n      dup3\n        /* \"#utility.yul\":2189:2224   */\n      tag_54\n      jumpi\n        /* \"#utility.yul\":2204:2222   */\n      tag_55\n      tag_22\n      jump\t// in\n    tag_55:\n        /* \"#utility.yul\":2189:2224   */\n    tag_54:\n        /* \"#utility.yul\":2246:2247   */\n      dup3\n        /* \"#utility.yul\":2243:2244   */\n      dup3\n        /* \"#utility.yul\":2239:2248   */\n      div\n        /* \"#utility.yul\":2234:2248   */\n      swap1\n      pop\n        /* \"#utility.yul\":2069:2254   */\n      swap3\n      swap2\n      pop\n      pop\n      jump\t// out\n        /* \"#utility.yul\":2260:2436   */\n    tag_18:\n        /* \"#utility.yul\":2292:2293   */\n      0x00\n        /* \"#utility.yul\":2309:2329   */\n      tag_57\n        /* \"#utility.yul\":2327:2328   */\n      dup3\n        /* \"#utility.yul\":2309:2329   */\n      tag_19\n      jump\t// in\n    tag_57:\n        /* \"#utility.yul\":2304:2329   */\n      swap2\n      pop\n        /* \"#utility.yul\":2343:2363   */\n      tag_58\n        /* \"#utility.yul\":2361:2362   */\n      dup4\n        /* \"#utility.yul\":2343:2363   */\n      tag_19\n      jump\t// in\n    tag_58:\n        /* \"#utility.yul\":2338:2363   */\n      swap3\n      pop\n        /* \"#utility.yul\":2382:2383   */\n      dup3\n        /* \"#utility.yul\":2372:2407   */\n      tag_59\n      jumpi\n        /* \"#utility.yul\":2387:2405   */\n      tag_60\n      tag_22\n      jump\t// in\n    tag_60:\n        /* \"#utility.yul\":2372:2407   */\n    tag_59:\n        /* \"#utility.yul\":2428:2429   */\n      dup3\n        /* \"#utility.yul\":2425:2426   */\n      dup3\n        /* \"#utility.yul\":2421:2430   */\n      mod\n        /* \"#utility.yul\":2416:2430   */\n      swap1\n      pop\n        /* \"#utility.yul\":2260:2436   */\n      swap3\n      swap2\n      pop\n      pop\n      jump\t// out\n\n    auxdata: 0xa2646970667358221220c97e1d5ab6b892d6abe89143dbcf8dffe90fbead90233a00ca8c11c4c907099a64736f6c63430008120033\n}\n",
				"bytecode": {
					"linkReferences": {},
					"object": "60806040526005600055600560015560056002556005600355600560045534801561002957600080fd5b50610306806100396000396000f3fe608060405234801561001057600080fd5b506004361061002b5760003560e01c806385e2c9c514610030575b600080fd5b610038610052565b604051610049959493929190610113565b60405180910390f35b6000806000806000600260008082825461006c9190610195565b9250508190555060026001600082825461008691906101c9565b92505081905550600280600082825461009f91906101fd565b925050819055506002600360008282546100b9919061026e565b925050819055506002600460008282546100d3919061029f565b92505081905550600054600154600254600354600454945094509450945094509091929394565b6000819050919050565b61010d816100fa565b82525050565b600060a0820190506101286000830188610104565b6101356020830187610104565b6101426040830186610104565b61014f6060830185610104565b61015c6080830184610104565b9695505050505050565b7f4e487b7100000000000000000000000000000000000000000000000000000000600052601160045260246000fd5b60006101a0826100fa565b91506101ab836100fa565b92508282019050808211156101c3576101c2610166565b5b92915050565b60006101d4826100fa565b91506101df836100fa565b92508282039050818111156101f7576101f6610166565b5b92915050565b6000610208826100fa565b9150610213836100fa565b9250828202610221816100fa565b9150828204841483151761023857610237610166565b5b5092915050565b7f4e487b7100000000000000000000000000000000000000000000000000000000600052601260045260246000fd5b6000610279826100fa565b9150610284836100fa565b9250826102945761029361023f565b5b828204905092915050565b60006102aa826100fa565b91506102b5836100fa565b9250826102c5576102c461023f565b5b82820690509291505056fea2646970667358221220c97e1d5ab6b892d6abe89143dbcf8dffe90fbead90233a00ca8c11c4c907099a64736f6c63430008120033",
					"opcodes": "PUSH1 0x80 PUSH1 0x40 MSTORE PUSH1 0x5 PUSH1 0x0 SSTORE PUSH1 0x5 PUSH1 0x1 SSTORE PUSH1 0x5 PUSH1 0x2 SSTORE PUSH1 0x5 PUSH1 0x3 SSTORE PUSH1 0x5 PUSH1 0x4 SSTORE CALLVALUE DUP1 ISZERO PUSH2 0x29 JUMPI PUSH1 0x0 DUP1 REVERT JUMPDEST POP PUSH2 0x306 DUP1 PUSH2 0x39 PUSH1 0x0 CODECOPY PUSH1 0x0 RETURN INVALID PUSH1 0x80 PUSH1 0x40 MSTORE CALLVALUE DUP1 ISZERO PUSH2 0x10 JUMPI PUSH1 0x0 DUP1 REVERT JUMPDEST POP PUSH1 0x4 CALLDATASIZE LT PUSH2 0x2B JUMPI PUSH1 0x0 CALLDATALOAD PUSH1 0xE0 SHR DUP1 PUSH4 0x85E2C9C5 EQ PUSH2 0x30 JUMPI JUMPDEST PUSH1 0x0 DUP1 REVERT JUMPDEST PUSH2 0x38 PUSH2 0x52 JUMP JUMPDEST PUSH1 0x40 MLOAD PUSH2 0x49 SWAP6 SWAP5 SWAP4 SWAP3 SWAP2 SWAP1 PUSH2 0x113 JUMP JUMPDEST PUSH1 0x40 MLOAD DUP1 SWAP2 SUB SWAP1 RETURN JUMPDEST PUSH1 0x0 DUP1 PUSH1 0x0 DUP1 PUSH1 0x0 PUSH1 0x2 PUSH1 0x0 DUP1 DUP3 DUP3 SLOAD PUSH2 0x6C SWAP2 SWAP1 PUSH2 0x195 JUMP JUMPDEST SWAP3 POP POP DUP2 SWAP1 SSTORE POP PUSH1 0x2 PUSH1 0x1 PUSH1 0x0 DUP3 DUP3 SLOAD PUSH2 0x86 SWAP2 SWAP1 PUSH2 0x1C9 JUMP JUMPDEST SWAP3 POP POP DUP2 SWAP1 SSTORE POP PUSH1 0x2 DUP1 PUSH1 0x0 DUP3 DUP3 SLOAD PUSH2 0x9F SWAP2 SWAP1 PUSH2 0x1FD JUMP JUMPDEST SWAP3 POP POP DUP2 SWAP1 SSTORE POP PUSH1 0x2 PUSH1 0x3 PUSH1 0x0 DUP3 DUP3 SLOAD PUSH2 0xB9 SWAP2 SWAP1 PUSH2 0x26E JUMP JUMPDEST SWAP3 POP POP DUP2 SWAP1 SSTORE POP PUSH1 0x2 PUSH1 0x4 PUSH1 0x0 DUP3 DUP3 SLOAD PUSH2 0xD3 SWAP2 SWAP1 PUSH2 0x29F JUMP JUMPDEST SWAP3 POP POP DUP2 SWAP1 SSTORE POP PUSH1 0x0 SLOAD PUSH1 0x1 SLOAD PUSH1 0x2 SLOAD PUSH1 0x3 SLOAD PUSH1 0x4 SLOAD SWAP5 POP SWAP5 POP SWAP5 POP SWAP5 POP SWAP5 POP SWAP1 SWAP2 SWAP3 SWAP4 SWAP5 JUMP JUMPDEST PUSH1 0x0 DUP2 SWAP1 POP SWAP2 SWAP1 POP JUMP JUMPDEST PUSH2 0x10D DUP2 PUSH2 0xFA JUMP JUMPDEST DUP3 MSTORE POP POP JUMP JUMPDEST PUSH1 0x0 PUSH1 0xA0 DUP3 ADD SWAP1 POP PUSH2 0x128 PUSH1 0x0 DUP4 ADD DUP9 PUSH2 0x104 JUMP JUMPDEST PUSH2 0x135 PUSH1 0x20 DUP4 ADD DUP8 PUSH2 0x104 JUMP JUMPDEST PUSH2 0x142 PUSH1 0x40 DUP4 ADD DUP7 PUSH2 0x104 JUMP JUMPDEST PUSH2 0x14F PUSH1 0x60 DUP4 ADD DUP6 PUSH2 0x104 JUMP JUMPDEST PUSH2 0x15C PUSH1 0x80 DUP4 ADD DUP5 PUSH2 0x104 JUMP JUMPDEST SWAP7 SWAP6 POP POP POP POP POP POP JUMP JUMPDEST PUSH32 0x4E487B7100000000000000000000000000000000000000000000000000000000 PUSH1 0x0 MSTORE PUSH1 0x11 PUSH1 0x4 MSTORE PUSH1 0x24 PUSH1 0x0 REVERT JUMPDEST PUSH1 0x0 PUSH2 0x1A0 DUP3 PUSH2 0xFA JUMP JUMPDEST SWAP2 POP PUSH2 0x1AB DUP4 PUSH2 0xFA JUMP JUMPDEST SWAP3 POP DUP3 DUP3 ADD SWAP1 POP DUP1 DUP3 GT ISZERO PUSH2 0x1C3 JUMPI PUSH2 0x1C2 PUSH2 0x166 JUMP JUMPDEST JUMPDEST SWAP3 SWAP2 POP POP JUMP JUMPDEST PUSH1 0x0 PUSH2 0x1D4 DUP3 PUSH2 0xFA JUMP JUMPDEST SWAP2 POP PUSH2 0x1DF DUP4 PUSH2 0xFA JUMP JUMPDEST SWAP3 POP DUP3 DUP3 SUB SWAP1 POP DUP2 DUP2 GT ISZERO PUSH2 0x1F7 JUMPI PUSH2 0x1F6 PUSH2 0x166 JUMP JUMPDEST JUMPDEST SWAP3 SWAP2 POP POP JUMP JUMPDEST PUSH1 0x0 PUSH2 0x208 DUP3 PUSH2 0xFA JUMP JUMPDEST SWAP2 POP PUSH2 0x213 DUP4 PUSH2 0xFA JUMP JUMPDEST SWAP3 POP DUP3 DUP3 MUL PUSH2 0x221 DUP2 PUSH2 0xFA JUMP JUMPDEST SWAP2 POP DUP3 DUP3 DIV DUP5 EQ DUP4 ISZERO OR PUSH2 0x238 JUMPI PUSH2 0x237 PUSH2 0x166 JUMP JUMPDEST JUMPDEST POP SWAP3 SWAP2 POP POP JUMP JUMPDEST PUSH32 0x4E487B7100000000000000000000000000000000000000000000000000000000 PUSH1 0x0 MSTORE PUSH1 0x12 PUSH1 0x4 MSTORE PUSH1 0x24 PUSH1 0x0 REVERT JUMPDEST PUSH1 0x0 PUSH2 0x279 DUP3 PUSH2 0xFA JUMP JUMPDEST SWAP2 POP PUSH2 0x284 DUP4 PUSH2 0xFA JUMP JUMPDEST SWAP3 POP DUP3 PUSH2 0x294 JUMPI PUSH2 0x293 PUSH2 0x23F JUMP JUMPDEST JUMPDEST DUP3 DUP3 DIV SWAP1 POP SWAP3 SWAP2 POP POP JUMP JUMPDEST PUSH1 0x0 PUSH2 0x2AA DUP3 PUSH2 0xFA JUMP JUMPDEST SWAP2 POP PUSH2 0x2B5 DUP4 PUSH2 0xFA JUMP JUMPDEST SWAP3 POP DUP3 PUSH2 0x2C5 JUMPI PUSH2 0x2C4 PUSH2 0x23F JUMP JUMPDEST JUMPDEST DUP3 DUP3 MOD SWAP1 POP SWAP3 SWAP2 POP POP JUMP INVALID LOG2 PUSH5 0x6970667358 0x22 SLT KECCAK256 0xC9 PUSH31 0x1D5AB6B892D6ABE89143DBCF8DFFE90FBEAD90233A00CA8C11C4C907099A64 PUSH20 0x6F6C634300081200330000000000000000000000 "
				},
				"gasEstimates": {
					"creation": {
						"codeDepositCost": "154800",
						"executionCost": "110732",
						"totalCost": "265532"
					},
					"external": {
						"commpoundAssignment()": "infinite"
					}
				},
				"methodIdentifiers": {
					"commpoundAssignment()": "85e2c9c5"
				}
			},
			"storageLayout": {
				"storage": [
					{
						"astId": 4,
						"contract": "Chapter1/Ex2-5.sol:Ex2_5",
						"label": "a",
						"offset": 0,
						"slot": "0",
						"type": "t_uint256"
					},
					{
						"astId": 7,
						"contract": "Chapter1/Ex2-5.sol:Ex2_5",
						"label": "b",
						"offset": 0,
						"slot": "1",
						"type": "t_uint256"
					},
					{
						"astId": 10,
						"contract": "Chapter1/Ex2-5.sol:Ex2_5",
						"label": "c",
						"offset": 0,
						"slot": "2",
						"type": "t_uint256"
					},
					{
						"astId": 13,
						"contract": "Chapter1/Ex2-5.sol:Ex2_5",
						"label": "d",
						"offset": 0,
						"slot": "3",
						"type": "t_uint256"
					},
					{
						"astId": 16,
						"contract": "Chapter1/Ex2-5.sol:Ex2_5",
						"label": "e",
						"offset": 0,
						"slot": "4",
						"type": "t_uint256"
					}
				],
				"types": {
					"t_uint256": {
						"encoding": "inplace",
						"label": "uint256",
						"numberOfBytes": "32"
					}
				}
			},
			"userdoc": {
				"kind": "user",
				"methods": {},
				"version": 1
			}
		}
	}
}