{
	"Chapter1/Ex2_9.sol": {
		"Ex2_9": {
			"abi": [
				{
					"inputs": [],
					"name": "logical",
					"outputs": [
						{
							"internalType": "bool",
							"name": "",
							"type": "bool"
						},
						{
							"internalType": "bool",
							"name": "",
							"type": "bool"
						},
						{
							"internalType": "bool",
							"name": "",
							"type": "bool"
						},
						{
							"internalType": "bool",
							"name": "",
							"type": "bool"
						},
						{
							"internalType": "bool",
							"name": "",
							"type": "bool"
						},
						{
							"internalType": "bool",
							"name": "",
							"type": "bool"
						},
						{
							"internalType": "bool",
							"name": "",
							"type": "bool"
						}
					],
					"stateMutability": "view",
					"type": "function"
				}
			],
			"devdoc": {
				"kind": "dev",
				"methods": {},
				"version": 1
			},
			"evm": {
				"assembly": "    /* \"Chapter1/Ex2_9.sol\":67:413  contract Ex2_9 {... */\n  mstore(0x40, 0x80)\n    /* \"Chapter1/Ex2_9.sol\":100:104  true */\n  0x01\n    /* \"Chapter1/Ex2_9.sol\":100:112  true && true */\n  dup1\n  iszero\n  tag_1\n  jumpi\n  pop\n    /* \"Chapter1/Ex2_9.sol\":108:112  true */\n  0x01\n    /* \"Chapter1/Ex2_9.sol\":100:112  true && true */\ntag_1:\n    /* \"Chapter1/Ex2_9.sol\":91:112  bool a = true && true */\n  0x00\n  dup1\n  0x0100\n  exp\n  dup2\n  sload\n  dup2\n  0xff\n  mul\n  not\n  and\n  swap1\n  dup4\n  iszero\n  iszero\n  mul\n  or\n  swap1\n  sstore\n  pop\n    /* \"Chapter1/Ex2_9.sol\":128:132  true */\n  0x01\n    /* \"Chapter1/Ex2_9.sol\":128:141  true && false */\n  dup1\n  iszero\n  tag_2\n  jumpi\n  pop\n    /* \"Chapter1/Ex2_9.sol\":136:141  false */\n  0x00\n    /* \"Chapter1/Ex2_9.sol\":128:141  true && false */\ntag_2:\n    /* \"Chapter1/Ex2_9.sol\":119:141  bool b = true && false */\n  0x00\n  exp(0x0100, 0x01)\n  dup2\n  sload\n  dup2\n  0xff\n  mul\n  not\n  and\n  swap1\n  dup4\n  iszero\n  iszero\n  mul\n  or\n  swap1\n  sstore\n  pop\n    /* \"Chapter1/Ex2_9.sol\":157:162  false */\n  0x00\n    /* \"Chapter1/Ex2_9.sol\":157:171  false && false */\n  dup1\n  iszero\n  tag_3\n  jumpi\n  pop\n    /* \"Chapter1/Ex2_9.sol\":166:171  false */\n  0x00\n    /* \"Chapter1/Ex2_9.sol\":157:171  false && false */\ntag_3:\n    /* \"Chapter1/Ex2_9.sol\":148:171  bool c = false && false */\n  0x00\n  exp(0x0100, 0x02)\n  dup2\n  sload\n  dup2\n  0xff\n  mul\n  not\n  and\n  swap1\n  dup4\n  iszero\n  iszero\n  mul\n  or\n  swap1\n  sstore\n  pop\n    /* \"Chapter1/Ex2_9.sol\":187:191  true */\n  0x01\n    /* \"Chapter1/Ex2_9.sol\":187:199  true || true */\n  dup1\n  tag_4\n  jumpi\n  pop\n    /* \"Chapter1/Ex2_9.sol\":195:199  true */\n  0x01\n    /* \"Chapter1/Ex2_9.sol\":187:199  true || true */\ntag_4:\n    /* \"Chapter1/Ex2_9.sol\":178:199  bool d = true || true */\n  0x00\n  exp(0x0100, 0x03)\n  dup2\n  sload\n  dup2\n  0xff\n  mul\n  not\n  and\n  swap1\n  dup4\n  iszero\n  iszero\n  mul\n  or\n  swap1\n  sstore\n  pop\n    /* \"Chapter1/Ex2_9.sol\":215:219  true */\n  0x01\n    /* \"Chapter1/Ex2_9.sol\":215:228  true || false */\n  dup1\n  tag_5\n  jumpi\n  pop\n    /* \"Chapter1/Ex2_9.sol\":223:228  false */\n  0x00\n    /* \"Chapter1/Ex2_9.sol\":215:228  true || false */\ntag_5:\n    /* \"Chapter1/Ex2_9.sol\":206:228  bool e = true || false */\n  0x00\n  exp(0x0100, 0x04)\n  dup2\n  sload\n  dup2\n  0xff\n  mul\n  not\n  and\n  swap1\n  dup4\n  iszero\n  iszero\n  mul\n  or\n  swap1\n  sstore\n  pop\n    /* \"Chapter1/Ex2_9.sol\":244:249  false */\n  0x00\n    /* \"Chapter1/Ex2_9.sol\":244:258  false || false */\n  dup1\n  tag_6\n  jumpi\n  pop\n    /* \"Chapter1/Ex2_9.sol\":253:258  false */\n  0x00\n    /* \"Chapter1/Ex2_9.sol\":244:258  false || false */\ntag_6:\n    /* \"Chapter1/Ex2_9.sol\":235:258  bool f = false || false */\n  0x00\n  exp(0x0100, 0x05)\n  dup2\n  sload\n  dup2\n  0xff\n  mul\n  not\n  and\n  swap1\n  dup4\n  iszero\n  iszero\n  mul\n  or\n  swap1\n  sstore\n  pop\n    /* \"Chapter1/Ex2_9.sol\":275:280  false */\n  0x00\n    /* \"Chapter1/Ex2_9.sol\":274:280  !false */\n  iszero\n    /* \"Chapter1/Ex2_9.sol\":265:280  bool g = !false */\n  0x00\n  exp(0x0100, 0x06)\n  dup2\n  sload\n  dup2\n  0xff\n  mul\n  not\n  and\n  swap1\n  dup4\n  iszero\n  iszero\n  mul\n  or\n  swap1\n  sstore\n  pop\n    /* \"Chapter1/Ex2_9.sol\":67:413  contract Ex2_9 {... */\n  callvalue\n  dup1\n  iszero\n  tag_7\n  jumpi\n  0x00\n  dup1\n  revert\ntag_7:\n  pop\n  dataSize(sub_0)\n  dup1\n  dataOffset(sub_0)\n  0x00\n  codecopy\n  0x00\n  return\nstop\n\nsub_0: assembly {\n        /* \"Chapter1/Ex2_9.sol\":67:413  contract Ex2_9 {... */\n      mstore(0x40, 0x80)\n      callvalue\n      dup1\n      iszero\n      tag_1\n      jumpi\n      0x00\n      dup1\n      revert\n    tag_1:\n      pop\n      jumpi(tag_2, lt(calldatasize, 0x04))\n      shr(0xe0, calldataload(0x00))\n      dup1\n      0x93daa367\n      eq\n      tag_3\n      jumpi\n    tag_2:\n      0x00\n      dup1\n      revert\n        /* \"Chapter1/Ex2_9.sol\":289:410  function logical() public view returns(bool, bool, bool, bool, bool, bool, bool){... */\n    tag_3:\n      tag_4\n      tag_5\n      jump\t// in\n    tag_4:\n      mload(0x40)\n      tag_6\n      swap8\n      swap7\n      swap6\n      swap5\n      swap4\n      swap3\n      swap2\n      swap1\n      tag_7\n      jump\t// in\n    tag_6:\n      mload(0x40)\n      dup1\n      swap2\n      sub\n      swap1\n      return\n    tag_5:\n        /* \"Chapter1/Ex2_9.sol\":328:332  bool */\n      0x00\n        /* \"Chapter1/Ex2_9.sol\":334:338  bool */\n      dup1\n        /* \"Chapter1/Ex2_9.sol\":340:344  bool */\n      0x00\n        /* \"Chapter1/Ex2_9.sol\":346:350  bool */\n      dup1\n        /* \"Chapter1/Ex2_9.sol\":352:356  bool */\n      0x00\n        /* \"Chapter1/Ex2_9.sol\":358:362  bool */\n      dup1\n        /* \"Chapter1/Ex2_9.sol\":364:368  bool */\n      0x00\n        /* \"Chapter1/Ex2_9.sol\":388:389  a */\n      dup1\n      0x00\n      swap1\n      sload\n      swap1\n      0x0100\n      exp\n      swap1\n      div\n      0xff\n      and\n        /* \"Chapter1/Ex2_9.sol\":390:391  b */\n      0x00\n      0x01\n      swap1\n      sload\n      swap1\n      0x0100\n      exp\n      swap1\n      div\n      0xff\n      and\n        /* \"Chapter1/Ex2_9.sol\":392:393  c */\n      0x00\n      0x02\n      swap1\n      sload\n      swap1\n      0x0100\n      exp\n      swap1\n      div\n      0xff\n      and\n        /* \"Chapter1/Ex2_9.sol\":394:395  d */\n      0x00\n      0x03\n      swap1\n      sload\n      swap1\n      0x0100\n      exp\n      swap1\n      div\n      0xff\n      and\n        /* \"Chapter1/Ex2_9.sol\":396:397  e */\n      0x00\n      0x04\n      swap1\n      sload\n      swap1\n      0x0100\n      exp\n      swap1\n      div\n      0xff\n      and\n        /* \"Chapter1/Ex2_9.sol\":398:399  f */\n      0x00\n      0x05\n      swap1\n      sload\n      swap1\n      0x0100\n      exp\n      swap1\n      div\n      0xff\n      and\n        /* \"Chapter1/Ex2_9.sol\":400:401  g */\n      0x00\n      0x06\n      swap1\n      sload\n      swap1\n      0x0100\n      exp\n      swap1\n      div\n      0xff\n      and\n        /* \"Chapter1/Ex2_9.sol\":380:402  return (a,b,c,d,e,f,g) */\n      swap7\n      pop\n      swap7\n      pop\n      swap7\n      pop\n      swap7\n      pop\n      swap7\n      pop\n      swap7\n      pop\n      swap7\n      pop\n        /* \"Chapter1/Ex2_9.sol\":289:410  function logical() public view returns(bool, bool, bool, bool, bool, bool, bool){... */\n      swap1\n      swap2\n      swap3\n      swap4\n      swap5\n      swap6\n      swap7\n      jump\t// out\n        /* \"#utility.yul\":7:97   */\n    tag_9:\n        /* \"#utility.yul\":41:48   */\n      0x00\n        /* \"#utility.yul\":84:89   */\n      dup2\n        /* \"#utility.yul\":77:90   */\n      iszero\n        /* \"#utility.yul\":70:91   */\n      iszero\n        /* \"#utility.yul\":59:91   */\n      swap1\n      pop\n        /* \"#utility.yul\":7:97   */\n      swap2\n      swap1\n      pop\n      jump\t// out\n        /* \"#utility.yul\":103:212   */\n    tag_10:\n        /* \"#utility.yul\":184:205   */\n      tag_14\n        /* \"#utility.yul\":199:204   */\n      dup2\n        /* \"#utility.yul\":184:205   */\n      tag_9\n      jump\t// in\n    tag_14:\n        /* \"#utility.yul\":179:182   */\n      dup3\n        /* \"#utility.yul\":172:206   */\n      mstore\n        /* \"#utility.yul\":103:212   */\n      pop\n      pop\n      jump\t// out\n        /* \"#utility.yul\":218:1020   */\n    tag_7:\n        /* \"#utility.yul\":437:441   */\n      0x00\n        /* \"#utility.yul\":475:478   */\n      0xe0\n        /* \"#utility.yul\":464:473   */\n      dup3\n        /* \"#utility.yul\":460:479   */\n      add\n        /* \"#utility.yul\":452:479   */\n      swap1\n      pop\n        /* \"#utility.yul\":489:554   */\n      tag_16\n        /* \"#utility.yul\":551:552   */\n      0x00\n        /* \"#utility.yul\":540:549   */\n      dup4\n        /* \"#utility.yul\":536:553   */\n      add\n        /* \"#utility.yul\":527:533   */\n      dup11\n        /* \"#utility.yul\":489:554   */\n      tag_10\n      jump\t// in\n    tag_16:\n        /* \"#utility.yul\":564:630   */\n      tag_17\n        /* \"#utility.yul\":626:628   */\n      0x20\n        /* \"#utility.yul\":615:624   */\n      dup4\n        /* \"#utility.yul\":611:629   */\n      add\n        /* \"#utility.yul\":602:608   */\n      dup10\n        /* \"#utility.yul\":564:630   */\n      tag_10\n      jump\t// in\n    tag_17:\n        /* \"#utility.yul\":640:706   */\n      tag_18\n        /* \"#utility.yul\":702:704   */\n      0x40\n        /* \"#utility.yul\":691:700   */\n      dup4\n        /* \"#utility.yul\":687:705   */\n      add\n        /* \"#utility.yul\":678:684   */\n      dup9\n        /* \"#utility.yul\":640:706   */\n      tag_10\n      jump\t// in\n    tag_18:\n        /* \"#utility.yul\":716:782   */\n      tag_19\n        /* \"#utility.yul\":778:780   */\n      0x60\n        /* \"#utility.yul\":767:776   */\n      dup4\n        /* \"#utility.yul\":763:781   */\n      add\n        /* \"#utility.yul\":754:760   */\n      dup8\n        /* \"#utility.yul\":716:782   */\n      tag_10\n      jump\t// in\n    tag_19:\n        /* \"#utility.yul\":792:859   */\n      tag_20\n        /* \"#utility.yul\":854:857   */\n      0x80\n        /* \"#utility.yul\":843:852   */\n      dup4\n        /* \"#utility.yul\":839:858   */\n      add\n        /* \"#utility.yul\":830:836   */\n      dup7\n        /* \"#utility.yul\":792:859   */\n      tag_10\n      jump\t// in\n    tag_20:\n        /* \"#utility.yul\":869:936   */\n      tag_21\n        /* \"#utility.yul\":931:934   */\n      0xa0\n        /* \"#utility.yul\":920:929   */\n      dup4\n        /* \"#utility.yul\":916:935   */\n      add\n        /* \"#utility.yul\":907:913   */\n      dup6\n        /* \"#utility.yul\":869:936   */\n      tag_10\n      jump\t// in\n    tag_21:\n        /* \"#utility.yul\":946:1013   */\n      tag_22\n        /* \"#utility.yul\":1008:1011   */\n      0xc0\n        /* \"#utility.yul\":997:1006   */\n      dup4\n        /* \"#utility.yul\":993:1012   */\n      add\n        /* \"#utility.yul\":984:990   */\n      dup5\n        /* \"#utility.yul\":946:1013   */\n      tag_10\n      jump\t// in\n    tag_22:\n        /* \"#utility.yul\":218:1020   */\n      swap9\n      swap8\n      pop\n      pop\n      pop\n      pop\n      pop\n      pop\n      pop\n      pop\n      jump\t// out\n\n    auxdata: 0xa26469706673582212207a19ed7267d9535c55c773dbe570bb8b18e2e2acd2dfb9f15869fa3f03bd1aff64736f6c63430008120033\n}\n",
				"bytecode": {
					"linkReferences": {},
					"object": "608060405260018015610010575060015b6000806101000a81548160ff02191690831515021790555060018015610034575060005b600060016101000a81548160ff02191690831515021790555060008015610059575060005b600060026101000a81548160ff02191690831515021790555060018061007d575060015b600060036101000a81548160ff0219169083151502179055506001806100a1575060005b600060046101000a81548160ff0219169083151502179055506000806100c5575060005b600060056101000a81548160ff021916908315150217905550600015600060066101000a81548160ff02191690831515021790555034801561010657600080fd5b506101a5806101166000396000f3fe608060405234801561001057600080fd5b506004361061002b5760003560e01c806393daa36714610030575b600080fd5b610038610054565b60405161004b9796959493929190610100565b60405180910390f35b60008060008060008060008060009054906101000a900460ff16600060019054906101000a900460ff16600060029054906101000a900460ff16600060039054906101000a900460ff16600060049054906101000a900460ff16600060059054906101000a900460ff16600060069054906101000a900460ff16965096509650965096509650965090919293949596565b60008115159050919050565b6100fa816100e5565b82525050565b600060e082019050610115600083018a6100f1565b61012260208301896100f1565b61012f60408301886100f1565b61013c60608301876100f1565b61014960808301866100f1565b61015660a08301856100f1565b61016360c08301846100f1565b9897505050505050505056fea26469706673582212207a19ed7267d9535c55c773dbe570bb8b18e2e2acd2dfb9f15869fa3f03bd1aff64736f6c63430008120033",
					"opcodes": "PUSH1 0x80 PUSH1 0x40 MSTORE PUSH1 0x1 DUP1 ISZERO PUSH2 0x10 JUMPI POP PUSH1 0x1 JUMPDEST PUSH1 0x0 DUP1 PUSH2 0x100 EXP DUP2 SLOAD DUP2 PUSH1 0xFF MUL NOT AND SWAP1 DUP4 ISZERO ISZERO MUL OR SWAP1 SSTORE POP PUSH1 0x1 DUP1 ISZERO PUSH2 0x34 JUMPI POP PUSH1 0x0 JUMPDEST PUSH1 0x0 PUSH1 0x1 PUSH2 0x100 EXP DUP2 SLOAD DUP2 PUSH1 0xFF MUL NOT AND SWAP1 DUP4 ISZERO ISZERO MUL OR SWAP1 SSTORE POP PUSH1 0x0 DUP1 ISZERO PUSH2 0x59 JUMPI POP PUSH1 0x0 JUMPDEST PUSH1 0x0 PUSH1 0x2 PUSH2 0x100 EXP DUP2 SLOAD DUP2 PUSH1 0xFF MUL NOT AND SWAP1 DUP4 ISZERO ISZERO MUL OR SWAP1 SSTORE POP PUSH1 0x1 DUP1 PUSH2 0x7D JUMPI POP PUSH1 0x1 JUMPDEST PUSH1 0x0 PUSH1 0x3 PUSH2 0x100 EXP DUP2 SLOAD DUP2 PUSH1 0xFF MUL NOT AND SWAP1 DUP4 ISZERO ISZERO MUL OR SWAP1 SSTORE POP PUSH1 0x1 DUP1 PUSH2 0xA1 JUMPI POP PUSH1 0x0 JUMPDEST PUSH1 0x0 PUSH1 0x4 PUSH2 0x100 EXP DUP2 SLOAD DUP2 PUSH1 0xFF MUL NOT AND SWAP1 DUP4 ISZERO ISZERO MUL OR SWAP1 SSTORE POP PUSH1 0x0 DUP1 PUSH2 0xC5 JUMPI POP PUSH1 0x0 JUMPDEST PUSH1 0x0 PUSH1 0x5 PUSH2 0x100 EXP DUP2 SLOAD DUP2 PUSH1 0xFF MUL NOT AND SWAP1 DUP4 ISZERO ISZERO MUL OR SWAP1 SSTORE POP PUSH1 0x0 ISZERO PUSH1 0x0 PUSH1 0x6 PUSH2 0x100 EXP DUP2 SLOAD DUP2 PUSH1 0xFF MUL NOT AND SWAP1 DUP4 ISZERO ISZERO MUL OR SWAP1 SSTORE POP CALLVALUE DUP1 ISZERO PUSH2 0x106 JUMPI PUSH1 0x0 DUP1 REVERT JUMPDEST POP PUSH2 0x1A5 DUP1 PUSH2 0x116 PUSH1 0x0 CODECOPY PUSH1 0x0 RETURN INVALID PUSH1 0x80 PUSH1 0x40 MSTORE CALLVALUE DUP1 ISZERO PUSH2 0x10 JUMPI PUSH1 0x0 DUP1 REVERT JUMPDEST POP PUSH1 0x4 CALLDATASIZE LT PUSH2 0x2B JUMPI PUSH1 0x0 CALLDATALOAD PUSH1 0xE0 SHR DUP1 PUSH4 0x93DAA367 EQ PUSH2 0x30 JUMPI JUMPDEST PUSH1 0x0 DUP1 REVERT JUMPDEST PUSH2 0x38 PUSH2 0x54 JUMP JUMPDEST PUSH1 0x40 MLOAD PUSH2 0x4B SWAP8 SWAP7 SWAP6 SWAP5 SWAP4 SWAP3 SWAP2 SWAP1 PUSH2 0x100 JUMP JUMPDEST PUSH1 0x40 MLOAD DUP1 SWAP2 SUB SWAP1 RETURN JUMPDEST PUSH1 0x0 DUP1 PUSH1 0x0 DUP1 PUSH1 0x0 DUP1 PUSH1 0x0 DUP1 PUSH1 0x0 SWAP1 SLOAD SWAP1 PUSH2 0x100 EXP SWAP1 DIV PUSH1 0xFF AND PUSH1 0x0 PUSH1 0x1 SWAP1 SLOAD SWAP1 PUSH2 0x100 EXP SWAP1 DIV PUSH1 0xFF AND PUSH1 0x0 PUSH1 0x2 SWAP1 SLOAD SWAP1 PUSH2 0x100 EXP SWAP1 DIV PUSH1 0xFF AND PUSH1 0x0 PUSH1 0x3 SWAP1 SLOAD SWAP1 PUSH2 0x100 EXP SWAP1 DIV PUSH1 0xFF AND PUSH1 0x0 PUSH1 0x4 SWAP1 SLOAD SWAP1 PUSH2 0x100 EXP SWAP1 DIV PUSH1 0xFF AND PUSH1 0x0 PUSH1 0x5 SWAP1 SLOAD SWAP1 PUSH2 0x100 EXP SWAP1 DIV PUSH1 0xFF AND PUSH1 0x0 PUSH1 0x6 SWAP1 SLOAD SWAP1 PUSH2 0x100 EXP SWAP1 DIV PUSH1 0xFF AND SWAP7 POP SWAP7 POP SWAP7 POP SWAP7 POP SWAP7 POP SWAP7 POP SWAP7 POP SWAP1 SWAP2 SWAP3 SWAP4 SWAP5 SWAP6 SWAP7 JUMP JUMPDEST PUSH1 0x0 DUP2 ISZERO ISZERO SWAP1 POP SWAP2 SWAP1 POP JUMP JUMPDEST PUSH2 0xFA DUP2 PUSH2 0xE5 JUMP JUMPDEST DUP3 MSTORE POP POP JUMP JUMPDEST PUSH1 0x0 PUSH1 0xE0 DUP3 ADD SWAP1 POP PUSH2 0x115 PUSH1 0x0 DUP4 ADD DUP11 PUSH2 0xF1 JUMP JUMPDEST PUSH2 0x122 PUSH1 0x20 DUP4 ADD DUP10 PUSH2 0xF1 JUMP JUMPDEST PUSH2 0x12F PUSH1 0x40 DUP4 ADD DUP9 PUSH2 0xF1 JUMP JUMPDEST PUSH2 0x13C PUSH1 0x60 DUP4 ADD DUP8 PUSH2 0xF1 JUMP JUMPDEST PUSH2 0x149 PUSH1 0x80 DUP4 ADD DUP7 PUSH2 0xF1 JUMP JUMPDEST PUSH2 0x156 PUSH1 0xA0 DUP4 ADD DUP6 PUSH2 0xF1 JUMP JUMPDEST PUSH2 0x163 PUSH1 0xC0 DUP4 ADD DUP5 PUSH2 0xF1 JUMP JUMPDEST SWAP9 SWAP8 POP POP POP POP POP POP POP POP JUMP INVALID LOG2 PUSH5 0x6970667358 0x22 SLT KECCAK256 PUSH27 0x19ED7267D9535C55C773DBE570BB8B18E2E2ACD2DFB9F15869FA3F SUB 0xBD BYTE SELFDESTRUCT PUSH5 0x736F6C6343 STOP ADDMOD SLT STOP CALLER "
				},
				"gasEstimates": {
					"creation": {
						"codeDepositCost": "84200",
						"executionCost": "170433",
						"totalCost": "254633"
					},
					"external": {
						"logical()": "infinite"
					}
				},
				"methodIdentifiers": {
					"logical()": "93daa367"
				}
			},
			"storageLayout": {
				"storage": [
					{
						"astId": 6,
						"contract": "Chapter1/Ex2_9.sol:Ex2_9",
						"label": "a",
						"offset": 0,
						"slot": "0",
						"type": "t_bool"
					},
					{
						"astId": 11,
						"contract": "Chapter1/Ex2_9.sol:Ex2_9",
						"label": "b",
						"offset": 1,
						"slot": "0",
						"type": "t_bool"
					},
					{
						"astId": 16,
						"contract": "Chapter1/Ex2_9.sol:Ex2_9",
						"label": "c",
						"offset": 2,
						"slot": "0",
						"type": "t_bool"
					},
					{
						"astId": 21,
						"contract": "Chapter1/Ex2_9.sol:Ex2_9",
						"label": "d",
						"offset": 3,
						"slot": "0",
						"type": "t_bool"
					},
					{
						"astId": 26,
						"contract": "Chapter1/Ex2_9.sol:Ex2_9",
						"label": "e",
						"offset": 4,
						"slot": "0",
						"type": "t_bool"
					},
					{
						"astId": 31,
						"contract": "Chapter1/Ex2_9.sol:Ex2_9",
						"label": "f",
						"offset": 5,
						"slot": "0",
						"type": "t_bool"
					},
					{
						"astId": 35,
						"contract": "Chapter1/Ex2_9.sol:Ex2_9",
						"label": "g",
						"offset": 6,
						"slot": "0",
						"type": "t_bool"
					}
				],
				"types": {
					"t_bool": {
						"encoding": "inplace",
						"label": "bool",
						"numberOfBytes": "1"
					}
				}
			},
			"userdoc": {
				"kind": "user",
				"methods": {},
				"version": 1
			}
		}
	}
}