{
	"Chapter1/Ex2-11.sol": {
		"Ex2_11": {
			"abi": [
				{
					"inputs": [],
					"name": "bitwise",
					"outputs": [
						{
							"internalType": "bytes1",
							"name": "",
							"type": "bytes1"
						},
						{
							"internalType": "bytes1",
							"name": "",
							"type": "bytes1"
						},
						{
							"internalType": "bytes1",
							"name": "",
							"type": "bytes1"
						},
						{
							"internalType": "bytes1",
							"name": "",
							"type": "bytes1"
						}
					],
					"stateMutability": "view",
					"type": "function"
				}
			],
			"devdoc": {
				"kind": "dev",
				"methods": {},
				"version": 1
			},
			"evm": {
				"assembly": "    /* \"Chapter1/Ex2-11.sol\":67:259  contract Ex2_11 {... */\n  mstore(0x40, 0x80)\n    /* \"Chapter1/Ex2-11.sol\":103:107  0x01 */\n  0x01\n    /* \"Chapter1/Ex2-11.sol\":92:107  bytes1 a = 0x01 */\n  0xf8\n  shl\n  0x00\n  dup1\n  0x0100\n  exp\n  dup2\n  sload\n  dup2\n  0xff\n  mul\n  not\n  and\n  swap1\n  dup4\n  0xf8\n  shr\n  mul\n  or\n  swap1\n  sstore\n  pop\n    /* \"Chapter1/Ex2-11.sol\":125:129  0x03 */\n  0x03\n    /* \"Chapter1/Ex2-11.sol\":114:129  bytes1 b = 0x03 */\n  0xf8\n  shl\n  0x00\n  exp(0x0100, 0x01)\n  dup2\n  sload\n  dup2\n  0xff\n  mul\n  not\n  and\n  swap1\n  dup4\n  0xf8\n  shr\n  mul\n  or\n  swap1\n  sstore\n  pop\n    /* \"Chapter1/Ex2-11.sol\":67:259  contract Ex2_11 {... */\n  callvalue\n  dup1\n  iszero\n  tag_1\n  jumpi\n  0x00\n  dup1\n  revert\ntag_1:\n  pop\n  dataSize(sub_0)\n  dup1\n  dataOffset(sub_0)\n  0x00\n  codecopy\n  0x00\n  return\nstop\n\nsub_0: assembly {\n        /* \"Chapter1/Ex2-11.sol\":67:259  contract Ex2_11 {... */\n      mstore(0x40, 0x80)\n      callvalue\n      dup1\n      iszero\n      tag_1\n      jumpi\n      0x00\n      dup1\n      revert\n    tag_1:\n      pop\n      jumpi(tag_2, lt(calldatasize, 0x04))\n      shr(0xe0, calldataload(0x00))\n      dup1\n      0x856b16a4\n      eq\n      tag_3\n      jumpi\n    tag_2:\n      0x00\n      dup1\n      revert\n        /* \"Chapter1/Ex2-11.sol\":138:256  function bitwise() public view returns (bytes1, bytes1, bytes1, bytes1) {... */\n    tag_3:\n      tag_4\n      tag_5\n      jump\t// in\n    tag_4:\n      mload(0x40)\n      tag_6\n      swap5\n      swap4\n      swap3\n      swap2\n      swap1\n      tag_7\n      jump\t// in\n    tag_6:\n      mload(0x40)\n      dup1\n      swap2\n      sub\n      swap1\n      return\n    tag_5:\n        /* \"Chapter1/Ex2-11.sol\":178:184  bytes1 */\n      0x00\n        /* \"Chapter1/Ex2-11.sol\":186:192  bytes1 */\n      dup1\n        /* \"Chapter1/Ex2-11.sol\":194:200  bytes1 */\n      0x00\n        /* \"Chapter1/Ex2-11.sol\":202:208  bytes1 */\n      dup1\n        /* \"Chapter1/Ex2-11.sol\":232:233  b */\n      0x00\n      0x01\n      swap1\n      sload\n      swap1\n      0x0100\n      exp\n      swap1\n      div\n      0xf8\n      shl\n        /* \"Chapter1/Ex2-11.sol\":229:230  a */\n      0x00\n      dup1\n      sload\n      swap1\n      0x0100\n      exp\n      swap1\n      div\n      0xf8\n      shl\n        /* \"Chapter1/Ex2-11.sol\":229:233  a &b */\n      and\n        /* \"Chapter1/Ex2-11.sol\":237:238  b */\n      0x00\n      0x01\n      swap1\n      sload\n      swap1\n      0x0100\n      exp\n      swap1\n      div\n      0xf8\n      shl\n        /* \"Chapter1/Ex2-11.sol\":235:236  a */\n      0x00\n      dup1\n      sload\n      swap1\n      0x0100\n      exp\n      swap1\n      div\n      0xf8\n      shl\n        /* \"Chapter1/Ex2-11.sol\":235:238  a|b */\n      or\n        /* \"Chapter1/Ex2-11.sol\":242:243  b */\n      0x00\n      0x01\n      swap1\n      sload\n      swap1\n      0x0100\n      exp\n      swap1\n      div\n      0xf8\n      shl\n        /* \"Chapter1/Ex2-11.sol\":240:241  a */\n      0x00\n      dup1\n      sload\n      swap1\n      0x0100\n      exp\n      swap1\n      div\n      0xf8\n      shl\n        /* \"Chapter1/Ex2-11.sol\":240:243  a^b */\n      xor\n        /* \"Chapter1/Ex2-11.sol\":246:247  a */\n      0x00\n      dup1\n      sload\n      swap1\n      0x0100\n      exp\n      swap1\n      div\n      0xf8\n      shl\n        /* \"Chapter1/Ex2-11.sol\":245:247  ~a */\n      not\n        /* \"Chapter1/Ex2-11.sol\":221:248  return (a &b, a|b, a^b, ~a) */\n      swap4\n      pop\n      swap4\n      pop\n      swap4\n      pop\n      swap4\n      pop\n        /* \"Chapter1/Ex2-11.sol\":138:256  function bitwise() public view returns (bytes1, bytes1, bytes1, bytes1) {... */\n      swap1\n      swap2\n      swap3\n      swap4\n      jump\t// out\n        /* \"#utility.yul\":7:156   */\n    tag_9:\n        /* \"#utility.yul\":43:50   */\n      0x00\n        /* \"#utility.yul\":83:149   */\n      0xff00000000000000000000000000000000000000000000000000000000000000\n        /* \"#utility.yul\":76:81   */\n      dup3\n        /* \"#utility.yul\":72:150   */\n      and\n        /* \"#utility.yul\":61:150   */\n      swap1\n      pop\n        /* \"#utility.yul\":7:156   */\n      swap2\n      swap1\n      pop\n      jump\t// out\n        /* \"#utility.yul\":162:277   */\n    tag_10:\n        /* \"#utility.yul\":247:270   */\n      tag_14\n        /* \"#utility.yul\":264:269   */\n      dup2\n        /* \"#utility.yul\":247:270   */\n      tag_9\n      jump\t// in\n    tag_14:\n        /* \"#utility.yul\":242:245   */\n      dup3\n        /* \"#utility.yul\":235:271   */\n      mstore\n        /* \"#utility.yul\":162:277   */\n      pop\n      pop\n      jump\t// out\n        /* \"#utility.yul\":283:820   */\n    tag_7:\n        /* \"#utility.yul\":452:456   */\n      0x00\n        /* \"#utility.yul\":490:493   */\n      0x80\n        /* \"#utility.yul\":479:488   */\n      dup3\n        /* \"#utility.yul\":475:494   */\n      add\n        /* \"#utility.yul\":467:494   */\n      swap1\n      pop\n        /* \"#utility.yul\":504:573   */\n      tag_16\n        /* \"#utility.yul\":570:571   */\n      0x00\n        /* \"#utility.yul\":559:568   */\n      dup4\n        /* \"#utility.yul\":555:572   */\n      add\n        /* \"#utility.yul\":546:552   */\n      dup8\n        /* \"#utility.yul\":504:573   */\n      tag_10\n      jump\t// in\n    tag_16:\n        /* \"#utility.yul\":583:653   */\n      tag_17\n        /* \"#utility.yul\":649:651   */\n      0x20\n        /* \"#utility.yul\":638:647   */\n      dup4\n        /* \"#utility.yul\":634:652   */\n      add\n        /* \"#utility.yul\":625:631   */\n      dup7\n        /* \"#utility.yul\":583:653   */\n      tag_10\n      jump\t// in\n    tag_17:\n        /* \"#utility.yul\":663:733   */\n      tag_18\n        /* \"#utility.yul\":729:731   */\n      0x40\n        /* \"#utility.yul\":718:727   */\n      dup4\n        /* \"#utility.yul\":714:732   */\n      add\n        /* \"#utility.yul\":705:711   */\n      dup6\n        /* \"#utility.yul\":663:733   */\n      tag_10\n      jump\t// in\n    tag_18:\n        /* \"#utility.yul\":743:813   */\n      tag_19\n        /* \"#utility.yul\":809:811   */\n      0x60\n        /* \"#utility.yul\":798:807   */\n      dup4\n        /* \"#utility.yul\":794:812   */\n      add\n        /* \"#utility.yul\":785:791   */\n      dup5\n        /* \"#utility.yul\":743:813   */\n      tag_10\n      jump\t// in\n    tag_19:\n        /* \"#utility.yul\":283:820   */\n      swap6\n      swap5\n      pop\n      pop\n      pop\n      pop\n      pop\n      jump\t// out\n\n    auxdata: 0xa2646970667358221220e8bd18f72c57c9c83ad146e8aff6fba25d02c536aa754b88d86dc00bef0f8bbe64736f6c63430008120033\n}\n",
				"bytecode": {
					"linkReferences": {},
					"object": "6080604052600160f81b6000806101000a81548160ff021916908360f81c0217905550600360f81b600060016101000a81548160ff021916908360f81c021790555034801561004d57600080fd5b506101878061005d6000396000f3fe608060405234801561001057600080fd5b506004361061002b5760003560e01c8063856b16a414610030575b600080fd5b610038610051565b604051610048949392919061010c565b60405180910390f35b600080600080600060019054906101000a900460f81b60008054906101000a900460f81b16600060019054906101000a900460f81b60008054906101000a900460f81b17600060019054906101000a900460f81b60008054906101000a900460f81b1860008054906101000a900460f81b19935093509350935090919293565b60007fff0000000000000000000000000000000000000000000000000000000000000082169050919050565b610106816100d1565b82525050565b600060808201905061012160008301876100fd565b61012e60208301866100fd565b61013b60408301856100fd565b61014860608301846100fd565b9594505050505056fea2646970667358221220e8bd18f72c57c9c83ad146e8aff6fba25d02c536aa754b88d86dc00bef0f8bbe64736f6c63430008120033",
					"opcodes": "PUSH1 0x80 PUSH1 0x40 MSTORE PUSH1 0x1 PUSH1 0xF8 SHL PUSH1 0x0 DUP1 PUSH2 0x100 EXP DUP2 SLOAD DUP2 PUSH1 0xFF MUL NOT AND SWAP1 DUP4 PUSH1 0xF8 SHR MUL OR SWAP1 SSTORE POP PUSH1 0x3 PUSH1 0xF8 SHL PUSH1 0x0 PUSH1 0x1 PUSH2 0x100 EXP DUP2 SLOAD DUP2 PUSH1 0xFF MUL NOT AND SWAP1 DUP4 PUSH1 0xF8 SHR MUL OR SWAP1 SSTORE POP CALLVALUE DUP1 ISZERO PUSH2 0x4D JUMPI PUSH1 0x0 DUP1 REVERT JUMPDEST POP PUSH2 0x187 DUP1 PUSH2 0x5D PUSH1 0x0 CODECOPY PUSH1 0x0 RETURN INVALID PUSH1 0x80 PUSH1 0x40 MSTORE CALLVALUE DUP1 ISZERO PUSH2 0x10 JUMPI PUSH1 0x0 DUP1 REVERT JUMPDEST POP PUSH1 0x4 CALLDATASIZE LT PUSH2 0x2B JUMPI PUSH1 0x0 CALLDATALOAD PUSH1 0xE0 SHR DUP1 PUSH4 0x856B16A4 EQ PUSH2 0x30 JUMPI JUMPDEST PUSH1 0x0 DUP1 REVERT JUMPDEST PUSH2 0x38 PUSH2 0x51 JUMP JUMPDEST PUSH1 0x40 MLOAD PUSH2 0x48 SWAP5 SWAP4 SWAP3 SWAP2 SWAP1 PUSH2 0x10C JUMP JUMPDEST PUSH1 0x40 MLOAD DUP1 SWAP2 SUB SWAP1 RETURN JUMPDEST PUSH1 0x0 DUP1 PUSH1 0x0 DUP1 PUSH1 0x0 PUSH1 0x1 SWAP1 SLOAD SWAP1 PUSH2 0x100 EXP SWAP1 DIV PUSH1 0xF8 SHL PUSH1 0x0 DUP1 SLOAD SWAP1 PUSH2 0x100 EXP SWAP1 DIV PUSH1 0xF8 SHL AND PUSH1 0x0 PUSH1 0x1 SWAP1 SLOAD SWAP1 PUSH2 0x100 EXP SWAP1 DIV PUSH1 0xF8 SHL PUSH1 0x0 DUP1 SLOAD SWAP1 PUSH2 0x100 EXP SWAP1 DIV PUSH1 0xF8 SHL OR PUSH1 0x0 PUSH1 0x1 SWAP1 SLOAD SWAP1 PUSH2 0x100 EXP SWAP1 DIV PUSH1 0xF8 SHL PUSH1 0x0 DUP1 SLOAD SWAP1 PUSH2 0x100 EXP SWAP1 DIV PUSH1 0xF8 SHL XOR PUSH1 0x0 DUP1 SLOAD SWAP1 PUSH2 0x100 EXP SWAP1 DIV PUSH1 0xF8 SHL NOT SWAP4 POP SWAP4 POP SWAP4 POP SWAP4 POP SWAP1 SWAP2 SWAP3 SWAP4 JUMP JUMPDEST PUSH1 0x0 PUSH32 0xFF00000000000000000000000000000000000000000000000000000000000000 DUP3 AND SWAP1 POP SWAP2 SWAP1 POP JUMP JUMPDEST PUSH2 0x106 DUP2 PUSH2 0xD1 JUMP JUMPDEST DUP3 MSTORE POP POP JUMP JUMPDEST PUSH1 0x0 PUSH1 0x80 DUP3 ADD SWAP1 POP PUSH2 0x121 PUSH1 0x0 DUP4 ADD DUP8 PUSH2 0xFD JUMP JUMPDEST PUSH2 0x12E PUSH1 0x20 DUP4 ADD DUP7 PUSH2 0xFD JUMP JUMPDEST PUSH2 0x13B PUSH1 0x40 DUP4 ADD DUP6 PUSH2 0xFD JUMP JUMPDEST PUSH2 0x148 PUSH1 0x60 DUP4 ADD DUP5 PUSH2 0xFD JUMP JUMPDEST SWAP6 SWAP5 POP POP POP POP POP JUMP INVALID LOG2 PUSH5 0x6970667358 0x22 SLT KECCAK256 0xE8 0xBD XOR 0xF7 0x2C JUMPI 0xC9 0xC8 GASPRICE 0xD1 CHAINID 0xE8 0xAF 0xF6 0xFB LOG2 0x5D MUL 0xC5 CALLDATASIZE 0xAA PUSH22 0x4B88D86DC00BEF0F8BBE64736F6C6343000812003300 "
				},
				"gasEstimates": {
					"creation": {
						"codeDepositCost": "78200",
						"executionCost": "48725",
						"totalCost": "126925"
					},
					"external": {
						"bitwise()": "infinite"
					}
				},
				"methodIdentifiers": {
					"bitwise()": "856b16a4"
				}
			},
			"storageLayout": {
				"storage": [
					{
						"astId": 4,
						"contract": "Chapter1/Ex2-11.sol:Ex2_11",
						"label": "a",
						"offset": 0,
						"slot": "0",
						"type": "t_bytes1"
					},
					{
						"astId": 7,
						"contract": "Chapter1/Ex2-11.sol:Ex2_11",
						"label": "b",
						"offset": 1,
						"slot": "0",
						"type": "t_bytes1"
					}
				],
				"types": {
					"t_bytes1": {
						"encoding": "inplace",
						"label": "bytes1",
						"numberOfBytes": "1"
					}
				}
			},
			"userdoc": {
				"kind": "user",
				"methods": {},
				"version": 1
			}
		}
	}
}