{
	"data": {
		"bytecode": {
			"linkReferences": {},
			"object": "6080604052600360005534801561001557600080fd5b50610183806100256000396000f3fe608060405234801561001057600080fd5b50600436106100365760003560e01c80630dbe671f1461003b57806395a81f2714610059575b600080fd5b610043610075565b60405161005091906100ae565b60405180910390f35b610073600480360381019061006e91906100fa565b61007b565b005b60005481565b826000819055508160008190555080600081905550505050565b6000819050919050565b6100a881610095565b82525050565b60006020820190506100c3600083018461009f565b92915050565b600080fd5b6100d781610095565b81146100e257600080fd5b50565b6000813590506100f4816100ce565b92915050565b600080600060608486031215610113576101126100c9565b5b6000610121868287016100e5565b9350506020610132868287016100e5565b9250506040610143868287016100e5565b915050925092509256fea2646970667358221220dfef54d7950206281c6ddb03a829a376a6543a447c79ead6a925454e097f0f9c64736f6c63430008120033",
			"opcodes": "PUSH1 0x80 PUSH1 0x40 MSTORE PUSH1 0x3 PUSH1 0x0 SSTORE CALLVALUE DUP1 ISZERO PUSH2 0x15 JUMPI PUSH1 0x0 DUP1 REVERT JUMPDEST POP PUSH2 0x183 DUP1 PUSH2 0x25 PUSH1 0x0 CODECOPY PUSH1 0x0 RETURN INVALID PUSH1 0x80 PUSH1 0x40 MSTORE CALLVALUE DUP1 ISZERO PUSH2 0x10 JUMPI PUSH1 0x0 DUP1 REVERT JUMPDEST POP PUSH1 0x4 CALLDATASIZE LT PUSH2 0x36 JUMPI PUSH1 0x0 CALLDATALOAD PUSH1 0xE0 SHR DUP1 PUSH4 0xDBE671F EQ PUSH2 0x3B JUMPI DUP1 PUSH4 0x95A81F27 EQ PUSH2 0x59 JUMPI JUMPDEST PUSH1 0x0 DUP1 REVERT JUMPDEST PUSH2 0x43 PUSH2 0x75 JUMP JUMPDEST PUSH1 0x40 MLOAD PUSH2 0x50 SWAP2 SWAP1 PUSH2 0xAE JUMP JUMPDEST PUSH1 0x40 MLOAD DUP1 SWAP2 SUB SWAP1 RETURN JUMPDEST PUSH2 0x73 PUSH1 0x4 DUP1 CALLDATASIZE SUB DUP2 ADD SWAP1 PUSH2 0x6E SWAP2 SWAP1 PUSH2 0xFA JUMP JUMPDEST PUSH2 0x7B JUMP JUMPDEST STOP JUMPDEST PUSH1 0x0 SLOAD DUP2 JUMP JUMPDEST DUP3 PUSH1 0x0 DUP2 SWAP1 SSTORE POP DUP2 PUSH1 0x0 DUP2 SWAP1 SSTORE POP DUP1 PUSH1 0x0 DUP2 SWAP1 SSTORE POP POP POP POP JUMP JUMPDEST PUSH1 0x0 DUP2 SWAP1 POP SWAP2 SWAP1 POP JUMP JUMPDEST PUSH2 0xA8 DUP2 PUSH2 0x95 JUMP JUMPDEST DUP3 MSTORE POP POP JUMP JUMPDEST PUSH1 0x0 PUSH1 0x20 DUP3 ADD SWAP1 POP PUSH2 0xC3 PUSH1 0x0 DUP4 ADD DUP5 PUSH2 0x9F JUMP JUMPDEST SWAP3 SWAP2 POP POP JUMP JUMPDEST PUSH1 0x0 DUP1 REVERT JUMPDEST PUSH2 0xD7 DUP2 PUSH2 0x95 JUMP JUMPDEST DUP2 EQ PUSH2 0xE2 JUMPI PUSH1 0x0 DUP1 REVERT JUMPDEST POP JUMP JUMPDEST PUSH1 0x0 DUP2 CALLDATALOAD SWAP1 POP PUSH2 0xF4 DUP2 PUSH2 0xCE JUMP JUMPDEST SWAP3 SWAP2 POP POP JUMP JUMPDEST PUSH1 0x0 DUP1 PUSH1 0x0 PUSH1 0x60 DUP5 DUP7 SUB SLT ISZERO PUSH2 0x113 JUMPI PUSH2 0x112 PUSH2 0xC9 JUMP JUMPDEST JUMPDEST PUSH1 0x0 PUSH2 0x121 DUP7 DUP3 DUP8 ADD PUSH2 0xE5 JUMP JUMPDEST SWAP4 POP POP PUSH1 0x20 PUSH2 0x132 DUP7 DUP3 DUP8 ADD PUSH2 0xE5 JUMP JUMPDEST SWAP3 POP POP PUSH1 0x40 PUSH2 0x143 DUP7 DUP3 DUP8 ADD PUSH2 0xE5 JUMP JUMPDEST SWAP2 POP POP SWAP3 POP SWAP3 POP SWAP3 JUMP INVALID LOG2 PUSH5 0x6970667358 0x22 SLT KECCAK256 0xDF 0xEF SLOAD 0xD7 SWAP6 MUL MOD 0x28 SHR PUSH14 0xDB03A829A376A6543A447C79EAD6 0xA9 0x25 GASLIMIT 0x4E MULMOD PUSH32 0xF9C64736F6C6343000812003300000000000000000000000000000000000000 "
		},
		"gasEstimates": {
			"creation": {
				"codeDepositCost": "77400",
				"executionCost": "22235",
				"totalCost": "99635"
			},
			"external": {
				"a()": "2407",
				"myFun(uint256,uint256,uint256)": "infinite"
			}
		},
		"methodIdentifiers": {
			"a()": "0dbe671f",
			"myFun(uint256,uint256,uint256)": "95a81f27"
		}
	},
	"abi": [
		{
			"inputs": [],
			"name": "a",
			"outputs": [
				{
					"internalType": "uint256",
					"name": "",
					"type": "uint256"
				}
			],
			"stateMutability": "view",
			"type": "function"
		},
		{
			"inputs": [
				{
					"internalType": "uint256",
					"name": "b",
					"type": "uint256"
				},
				{
					"internalType": "uint256",
					"name": "c",
					"type": "uint256"
				},
				{
					"internalType": "uint256",
					"name": "d",
					"type": "uint256"
				}
			],
			"name": "myFun",
			"outputs": [],
			"stateMutability": "nonpayable",
			"type": "function"
		}
	]
}