{
	"Chapter8/Ex8-6.sol": {
		"Ex8_6": {
			"abi": [
				{
					"inputs": [
						{
							"internalType": "uint8",
							"name": "_num1",
							"type": "uint8"
						},
						{
							"internalType": "uint8",
							"name": "_num2",
							"type": "uint8"
						}
					],
					"name": "noOverflow1",
					"outputs": [
						{
							"internalType": "uint8",
							"name": "",
							"type": "uint8"
						}
					],
					"stateMutability": "pure",
					"type": "function"
				},
				{
					"inputs": [
						{
							"internalType": "uint8",
							"name": "_num1",
							"type": "uint8"
						},
						{
							"internalType": "uint8",
							"name": "_num2",
							"type": "uint8"
						}
					],
					"name": "noOverflow2",
					"outputs": [
						{
							"internalType": "uint8",
							"name": "",
							"type": "uint8"
						}
					],
					"stateMutability": "pure",
					"type": "function"
				},
				{
					"inputs": [
						{
							"internalType": "uint8",
							"name": "_num1",
							"type": "uint8"
						},
						{
							"internalType": "uint8",
							"name": "_num2",
							"type": "uint8"
						}
					],
					"name": "overflow",
					"outputs": [
						{
							"internalType": "uint8",
							"name": "",
							"type": "uint8"
						}
					],
					"stateMutability": "pure",
					"type": "function"
				}
			],
			"devdoc": {
				"kind": "dev",
				"methods": {},
				"version": 1
			},
			"evm": {
				"assembly": "    /* \"Chapter8/Ex8-6.sol\":238:800  contract Ex8_6 {... */\n  mstore(0x40, 0x80)\n  callvalue\n  dup1\n  iszero\n  tag_1\n  jumpi\n  0x00\n  dup1\n  revert\ntag_1:\n  pop\n  dataSize(sub_0)\n  dup1\n  dataOffset(sub_0)\n  0x00\n  codecopy\n  0x00\n  return\nstop\n\nsub_0: assembly {\n        /* \"Chapter8/Ex8-6.sol\":238:800  contract Ex8_6 {... */\n      mstore(0x40, 0x80)\n      callvalue\n      dup1\n      iszero\n      tag_1\n      jumpi\n      0x00\n      dup1\n      revert\n    tag_1:\n      pop\n      jumpi(tag_2, lt(calldatasize, 0x04))\n      shr(0xe0, calldataload(0x00))\n      dup1\n      0x50839710\n      eq\n      tag_3\n      jumpi\n      dup1\n      0x56e2778c\n      eq\n      tag_4\n      jumpi\n      dup1\n      0xb71602b3\n      eq\n      tag_5\n      jumpi\n    tag_2:\n      0x00\n      dup1\n      revert\n        /* \"Chapter8/Ex8-6.sol\":681:797  function noOverflow2(uint8 _num1, uint8 _num2) public pure returns(uint8) {... */\n    tag_3:\n      tag_6\n      0x04\n      dup1\n      calldatasize\n      sub\n      dup2\n      add\n      swap1\n      tag_7\n      swap2\n      swap1\n      tag_8\n      jump\t// in\n    tag_7:\n      tag_9\n      jump\t// in\n    tag_6:\n      mload(0x40)\n      tag_10\n      swap2\n      swap1\n      tag_11\n      jump\t// in\n    tag_10:\n      mload(0x40)\n      dup1\n      swap2\n      sub\n      swap1\n      return\n        /* \"Chapter8/Ex8-6.sol\":327:437  function overflow(uint8 _num1, uint8 _num2) public pure returns(uint8) {... */\n    tag_4:\n      tag_12\n      0x04\n      dup1\n      calldatasize\n      sub\n      dup2\n      add\n      swap1\n      tag_13\n      swap2\n      swap1\n      tag_8\n      jump\t// in\n    tag_13:\n      tag_14\n      jump\t// in\n    tag_12:\n      mload(0x40)\n      tag_15\n      swap2\n      swap1\n      tag_11\n      jump\t// in\n    tag_15:\n      mload(0x40)\n      dup1\n      swap2\n      sub\n      swap1\n      return\n        /* \"Chapter8/Ex8-6.sol\":551:673  function noOverflow1(uint8 _num1, uint8 _num2) public pure returns(uint8) {... */\n    tag_5:\n      tag_16\n      0x04\n      dup1\n      calldatasize\n      sub\n      dup2\n      add\n      swap1\n      tag_17\n      swap2\n      swap1\n      tag_8\n      jump\t// in\n    tag_17:\n      tag_18\n      jump\t// in\n    tag_16:\n      mload(0x40)\n      tag_19\n      swap2\n      swap1\n      tag_11\n      jump\t// in\n    tag_19:\n      mload(0x40)\n      dup1\n      swap2\n      sub\n      swap1\n      return\n        /* \"Chapter8/Ex8-6.sol\":681:797  function noOverflow2(uint8 _num1, uint8 _num2) public pure returns(uint8) {... */\n    tag_9:\n        /* \"Chapter8/Ex8-6.sol\":748:753  uint8 */\n      0x00\n        /* \"Chapter8/Ex8-6.sol\":773:789  _num1.add(_num2) */\n      tag_21\n        /* \"Chapter8/Ex8-6.sol\":783:788  _num2 */\n      dup3\n        /* \"Chapter8/Ex8-6.sol\":773:778  _num1 */\n      dup5\n        /* \"Chapter8/Ex8-6.sol\":773:782  _num1.add */\n      0xff\n      and\n      tag_22\n      swap1\n        /* \"Chapter8/Ex8-6.sol\":773:789  _num1.add(_num2) */\n      swap2\n      swap1\n      0xffffffff\n      and\n      jump\t// in\n    tag_21:\n        /* \"Chapter8/Ex8-6.sol\":766:789  return _num1.add(_num2) */\n      swap1\n      pop\n        /* \"Chapter8/Ex8-6.sol\":681:797  function noOverflow2(uint8 _num1, uint8 _num2) public pure returns(uint8) {... */\n      swap3\n      swap2\n      pop\n      pop\n      jump\t// out\n        /* \"Chapter8/Ex8-6.sol\":327:437  function overflow(uint8 _num1, uint8 _num2) public pure returns(uint8) {... */\n    tag_14:\n        /* \"Chapter8/Ex8-6.sol\":391:396  uint8 */\n      0x00\n        /* \"Chapter8/Ex8-6.sol\":424:429  _num2 */\n      dup2\n        /* \"Chapter8/Ex8-6.sol\":416:421  _num1 */\n      dup4\n        /* \"Chapter8/Ex8-6.sol\":416:429  _num1 + _num2 */\n      tag_24\n      swap2\n      swap1\n      tag_25\n      jump\t// in\n    tag_24:\n        /* \"Chapter8/Ex8-6.sol\":409:429  return _num1 + _num2 */\n      swap1\n      pop\n        /* \"Chapter8/Ex8-6.sol\":327:437  function overflow(uint8 _num1, uint8 _num2) public pure returns(uint8) {... */\n      swap3\n      swap2\n      pop\n      pop\n      jump\t// out\n        /* \"Chapter8/Ex8-6.sol\":551:673  function noOverflow1(uint8 _num1, uint8 _num2) public pure returns(uint8) {... */\n    tag_18:\n        /* \"Chapter8/Ex8-6.sol\":618:623  uint8 */\n      0x00\n        /* \"Chapter8/Ex8-6.sol\":643:665  Math.add(_num1, _num2) */\n      tag_27\n        /* \"Chapter8/Ex8-6.sol\":652:657  _num1 */\n      dup4\n        /* \"Chapter8/Ex8-6.sol\":659:664  _num2 */\n      dup4\n        /* \"Chapter8/Ex8-6.sol\":643:651  Math.add */\n      tag_22\n        /* \"Chapter8/Ex8-6.sol\":643:665  Math.add(_num1, _num2) */\n      jump\t// in\n    tag_27:\n        /* \"Chapter8/Ex8-6.sol\":636:665  return Math.add(_num1, _num2) */\n      swap1\n      pop\n        /* \"Chapter8/Ex8-6.sol\":551:673  function noOverflow1(uint8 _num1, uint8 _num2) public pure returns(uint8) {... */\n      swap3\n      swap2\n      pop\n      pop\n      jump\t// out\n        /* \"Chapter8/Ex8-6.sol\":85:231  function add(uint8 a, uint8 b) internal pure returns (uint8) {... */\n    tag_22:\n        /* \"Chapter8/Ex8-6.sol\":139:144  uint8 */\n      0x00\n        /* \"Chapter8/Ex8-6.sol\":172:173  a */\n      dup3\n        /* \"Chapter8/Ex8-6.sol\":165:173  a+b >= a */\n      0xff\n      and\n        /* \"Chapter8/Ex8-6.sol\":167:168  b */\n      dup3\n        /* \"Chapter8/Ex8-6.sol\":165:166  a */\n      dup5\n        /* \"Chapter8/Ex8-6.sol\":165:168  a+b */\n      tag_29\n      swap2\n      swap1\n      tag_25\n      jump\t// in\n    tag_29:\n        /* \"Chapter8/Ex8-6.sol\":165:173  a+b >= a */\n      0xff\n      and\n      lt\n      iszero\n        /* \"Chapter8/Ex8-6.sol\":157:202  require(a+b >= a, \"Error: addition overflow\") */\n      tag_30\n      jumpi\n      mload(0x40)\n      0x08c379a000000000000000000000000000000000000000000000000000000000\n      dup2\n      mstore\n      0x04\n      add\n      tag_31\n      swap1\n      tag_32\n      jump\t// in\n    tag_31:\n      mload(0x40)\n      dup1\n      swap2\n      sub\n      swap1\n      revert\n    tag_30:\n        /* \"Chapter8/Ex8-6.sol\":222:223  b */\n      dup2\n        /* \"Chapter8/Ex8-6.sol\":220:221  a */\n      dup4\n        /* \"Chapter8/Ex8-6.sol\":220:223  a+b */\n      tag_33\n      swap2\n      swap1\n      tag_25\n      jump\t// in\n    tag_33:\n        /* \"Chapter8/Ex8-6.sol\":213:223  return a+b */\n      swap1\n      pop\n        /* \"Chapter8/Ex8-6.sol\":85:231  function add(uint8 a, uint8 b) internal pure returns (uint8) {... */\n      swap3\n      swap2\n      pop\n      pop\n      jump\t// out\n        /* \"#utility.yul\":88:205   */\n    tag_35:\n        /* \"#utility.yul\":197:198   */\n      0x00\n        /* \"#utility.yul\":194:195   */\n      dup1\n        /* \"#utility.yul\":187:199   */\n      revert\n        /* \"#utility.yul\":334:420   */\n    tag_37:\n        /* \"#utility.yul\":369:376   */\n      0x00\n        /* \"#utility.yul\":409:413   */\n      0xff\n        /* \"#utility.yul\":402:407   */\n      dup3\n        /* \"#utility.yul\":398:414   */\n      and\n        /* \"#utility.yul\":387:414   */\n      swap1\n      pop\n        /* \"#utility.yul\":334:420   */\n      swap2\n      swap1\n      pop\n      jump\t// out\n        /* \"#utility.yul\":426:544   */\n    tag_38:\n        /* \"#utility.yul\":497:519   */\n      tag_51\n        /* \"#utility.yul\":513:518   */\n      dup2\n        /* \"#utility.yul\":497:519   */\n      tag_37\n      jump\t// in\n    tag_51:\n        /* \"#utility.yul\":490:495   */\n      dup2\n        /* \"#utility.yul\":487:520   */\n      eq\n        /* \"#utility.yul\":477:538   */\n      tag_52\n      jumpi\n        /* \"#utility.yul\":534:535   */\n      0x00\n        /* \"#utility.yul\":531:532   */\n      dup1\n        /* \"#utility.yul\":524:536   */\n      revert\n        /* \"#utility.yul\":477:538   */\n    tag_52:\n        /* \"#utility.yul\":426:544   */\n      pop\n      jump\t// out\n        /* \"#utility.yul\":550:685   */\n    tag_39:\n        /* \"#utility.yul\":594:599   */\n      0x00\n        /* \"#utility.yul\":632:638   */\n      dup2\n        /* \"#utility.yul\":619:639   */\n      calldataload\n        /* \"#utility.yul\":610:639   */\n      swap1\n      pop\n        /* \"#utility.yul\":648:679   */\n      tag_54\n        /* \"#utility.yul\":673:678   */\n      dup2\n        /* \"#utility.yul\":648:679   */\n      tag_38\n      jump\t// in\n    tag_54:\n        /* \"#utility.yul\":550:685   */\n      swap3\n      swap2\n      pop\n      pop\n      jump\t// out\n        /* \"#utility.yul\":691:1157   */\n    tag_8:\n        /* \"#utility.yul\":755:761   */\n      0x00\n        /* \"#utility.yul\":763:769   */\n      dup1\n        /* \"#utility.yul\":812:814   */\n      0x40\n        /* \"#utility.yul\":800:809   */\n      dup4\n        /* \"#utility.yul\":791:798   */\n      dup6\n        /* \"#utility.yul\":787:810   */\n      sub\n        /* \"#utility.yul\":783:815   */\n      slt\n        /* \"#utility.yul\":780:899   */\n      iszero\n      tag_56\n      jumpi\n        /* \"#utility.yul\":818:897   */\n      tag_57\n      tag_35\n      jump\t// in\n    tag_57:\n        /* \"#utility.yul\":780:899   */\n    tag_56:\n        /* \"#utility.yul\":938:939   */\n      0x00\n        /* \"#utility.yul\":963:1014   */\n      tag_58\n        /* \"#utility.yul\":1006:1013   */\n      dup6\n        /* \"#utility.yul\":997:1003   */\n      dup3\n        /* \"#utility.yul\":986:995   */\n      dup7\n        /* \"#utility.yul\":982:1004   */\n      add\n        /* \"#utility.yul\":963:1014   */\n      tag_39\n      jump\t// in\n    tag_58:\n        /* \"#utility.yul\":953:1014   */\n      swap3\n      pop\n        /* \"#utility.yul\":909:1024   */\n      pop\n        /* \"#utility.yul\":1063:1065   */\n      0x20\n        /* \"#utility.yul\":1089:1140   */\n      tag_59\n        /* \"#utility.yul\":1132:1139   */\n      dup6\n        /* \"#utility.yul\":1123:1129   */\n      dup3\n        /* \"#utility.yul\":1112:1121   */\n      dup7\n        /* \"#utility.yul\":1108:1130   */\n      add\n        /* \"#utility.yul\":1089:1140   */\n      tag_39\n      jump\t// in\n    tag_59:\n        /* \"#utility.yul\":1079:1140   */\n      swap2\n      pop\n        /* \"#utility.yul\":1034:1150   */\n      pop\n        /* \"#utility.yul\":691:1157   */\n      swap3\n      pop\n      swap3\n      swap1\n      pop\n      jump\t// out\n        /* \"#utility.yul\":1163:1275   */\n    tag_40:\n        /* \"#utility.yul\":1246:1268   */\n      tag_61\n        /* \"#utility.yul\":1262:1267   */\n      dup2\n        /* \"#utility.yul\":1246:1268   */\n      tag_37\n      jump\t// in\n    tag_61:\n        /* \"#utility.yul\":1241:1244   */\n      dup3\n        /* \"#utility.yul\":1234:1269   */\n      mstore\n        /* \"#utility.yul\":1163:1275   */\n      pop\n      pop\n      jump\t// out\n        /* \"#utility.yul\":1281:1495   */\n    tag_11:\n        /* \"#utility.yul\":1370:1374   */\n      0x00\n        /* \"#utility.yul\":1408:1410   */\n      0x20\n        /* \"#utility.yul\":1397:1406   */\n      dup3\n        /* \"#utility.yul\":1393:1411   */\n      add\n        /* \"#utility.yul\":1385:1411   */\n      swap1\n      pop\n        /* \"#utility.yul\":1421:1488   */\n      tag_63\n        /* \"#utility.yul\":1485:1486   */\n      0x00\n        /* \"#utility.yul\":1474:1483   */\n      dup4\n        /* \"#utility.yul\":1470:1487   */\n      add\n        /* \"#utility.yul\":1461:1467   */\n      dup5\n        /* \"#utility.yul\":1421:1488   */\n      tag_40\n      jump\t// in\n    tag_63:\n        /* \"#utility.yul\":1281:1495   */\n      swap3\n      swap2\n      pop\n      pop\n      jump\t// out\n        /* \"#utility.yul\":1501:1681   */\n    tag_41:\n        /* \"#utility.yul\":1549:1626   */\n      0x4e487b7100000000000000000000000000000000000000000000000000000000\n        /* \"#utility.yul\":1546:1547   */\n      0x00\n        /* \"#utility.yul\":1539:1627   */\n      mstore\n        /* \"#utility.yul\":1646:1650   */\n      0x11\n        /* \"#utility.yul\":1643:1644   */\n      0x04\n        /* \"#utility.yul\":1636:1651   */\n      mstore\n        /* \"#utility.yul\":1670:1674   */\n      0x24\n        /* \"#utility.yul\":1667:1668   */\n      0x00\n        /* \"#utility.yul\":1660:1675   */\n      revert\n        /* \"#utility.yul\":1687:1875   */\n    tag_25:\n        /* \"#utility.yul\":1725:1728   */\n      0x00\n        /* \"#utility.yul\":1744:1762   */\n      tag_66\n        /* \"#utility.yul\":1760:1761   */\n      dup3\n        /* \"#utility.yul\":1744:1762   */\n      tag_37\n      jump\t// in\n    tag_66:\n        /* \"#utility.yul\":1739:1762   */\n      swap2\n      pop\n        /* \"#utility.yul\":1776:1794   */\n      tag_67\n        /* \"#utility.yul\":1792:1793   */\n      dup4\n        /* \"#utility.yul\":1776:1794   */\n      tag_37\n      jump\t// in\n    tag_67:\n        /* \"#utility.yul\":1771:1794   */\n      swap3\n      pop\n        /* \"#utility.yul\":1817:1818   */\n      dup3\n        /* \"#utility.yul\":1814:1815   */\n      dup3\n        /* \"#utility.yul\":1810:1819   */\n      add\n        /* \"#utility.yul\":1803:1819   */\n      swap1\n      pop\n        /* \"#utility.yul\":1840:1844   */\n      0xff\n        /* \"#utility.yul\":1835:1838   */\n      dup2\n        /* \"#utility.yul\":1832:1845   */\n      gt\n        /* \"#utility.yul\":1829:1868   */\n      iszero\n      tag_68\n      jumpi\n        /* \"#utility.yul\":1848:1866   */\n      tag_69\n      tag_41\n      jump\t// in\n    tag_69:\n        /* \"#utility.yul\":1829:1868   */\n    tag_68:\n        /* \"#utility.yul\":1687:1875   */\n      swap3\n      swap2\n      pop\n      pop\n      jump\t// out\n        /* \"#utility.yul\":1881:2050   */\n    tag_42:\n        /* \"#utility.yul\":1965:1976   */\n      0x00\n        /* \"#utility.yul\":1999:2005   */\n      dup3\n        /* \"#utility.yul\":1994:1997   */\n      dup3\n        /* \"#utility.yul\":1987:2006   */\n      mstore\n        /* \"#utility.yul\":2039:2043   */\n      0x20\n        /* \"#utility.yul\":2034:2037   */\n      dup3\n        /* \"#utility.yul\":2030:2044   */\n      add\n        /* \"#utility.yul\":2015:2044   */\n      swap1\n      pop\n        /* \"#utility.yul\":1881:2050   */\n      swap3\n      swap2\n      pop\n      pop\n      jump\t// out\n        /* \"#utility.yul\":2056:2230   */\n    tag_43:\n        /* \"#utility.yul\":2196:2222   */\n      0x4572726f723a206164646974696f6e206f766572666c6f770000000000000000\n        /* \"#utility.yul\":2192:2193   */\n      0x00\n        /* \"#utility.yul\":2184:2190   */\n      dup3\n        /* \"#utility.yul\":2180:2194   */\n      add\n        /* \"#utility.yul\":2173:2223   */\n      mstore\n        /* \"#utility.yul\":2056:2230   */\n      pop\n      jump\t// out\n        /* \"#utility.yul\":2236:2602   */\n    tag_44:\n        /* \"#utility.yul\":2378:2381   */\n      0x00\n        /* \"#utility.yul\":2399:2466   */\n      tag_73\n        /* \"#utility.yul\":2463:2465   */\n      0x18\n        /* \"#utility.yul\":2458:2461   */\n      dup4\n        /* \"#utility.yul\":2399:2466   */\n      tag_42\n      jump\t// in\n    tag_73:\n        /* \"#utility.yul\":2392:2466   */\n      swap2\n      pop\n        /* \"#utility.yul\":2475:2568   */\n      tag_74\n        /* \"#utility.yul\":2564:2567   */\n      dup3\n        /* \"#utility.yul\":2475:2568   */\n      tag_43\n      jump\t// in\n    tag_74:\n        /* \"#utility.yul\":2593:2595   */\n      0x20\n        /* \"#utility.yul\":2588:2591   */\n      dup3\n        /* \"#utility.yul\":2584:2596   */\n      add\n        /* \"#utility.yul\":2577:2596   */\n      swap1\n      pop\n        /* \"#utility.yul\":2236:2602   */\n      swap2\n      swap1\n      pop\n      jump\t// out\n        /* \"#utility.yul\":2608:3027   */\n    tag_32:\n        /* \"#utility.yul\":2774:2778   */\n      0x00\n        /* \"#utility.yul\":2812:2814   */\n      0x20\n        /* \"#utility.yul\":2801:2810   */\n      dup3\n        /* \"#utility.yul\":2797:2815   */\n      add\n        /* \"#utility.yul\":2789:2815   */\n      swap1\n      pop\n        /* \"#utility.yul\":2861:2870   */\n      dup2\n        /* \"#utility.yul\":2855:2859   */\n      dup2\n        /* \"#utility.yul\":2851:2871   */\n      sub\n        /* \"#utility.yul\":2847:2848   */\n      0x00\n        /* \"#utility.yul\":2836:2845   */\n      dup4\n        /* \"#utility.yul\":2832:2849   */\n      add\n        /* \"#utility.yul\":2825:2872   */\n      mstore\n        /* \"#utility.yul\":2889:3020   */\n      tag_76\n        /* \"#utility.yul\":3015:3019   */\n      dup2\n        /* \"#utility.yul\":2889:3020   */\n      tag_44\n      jump\t// in\n    tag_76:\n        /* \"#utility.yul\":2881:3020   */\n      swap1\n      pop\n        /* \"#utility.yul\":2608:3027   */\n      swap2\n      swap1\n      pop\n      jump\t// out\n\n    auxdata: 0xa2646970667358221220df52830af64f04b178ad3d5fc7ec9b9adc83545233e2dcef7106133795072ab764736f6c63430008120033\n}\n",
				"bytecode": {
					"linkReferences": {},
					"object": "608060405234801561001057600080fd5b50610349806100206000396000f3fe608060405234801561001057600080fd5b50600436106100415760003560e01c8063508397101461004657806356e2778c14610076578063b71602b3146100a6575b600080fd5b610060600480360381019061005b91906101c8565b6100d6565b60405161006d9190610217565b60405180910390f35b610090600480360381019061008b91906101c8565b6100f6565b60405161009d9190610217565b60405180910390f35b6100c060048036038101906100bb91906101c8565b61010c565b6040516100cd9190610217565b60405180910390f35b60006100ee828460ff1661012090919063ffffffff16565b905092915050565b600081836101049190610261565b905092915050565b60006101188383610120565b905092915050565b60008260ff1682846101329190610261565b60ff161015610176576040517f08c379a000000000000000000000000000000000000000000000000000000000815260040161016d906102f3565b60405180910390fd5b81836101829190610261565b905092915050565b600080fd5b600060ff82169050919050565b6101a58161018f565b81146101b057600080fd5b50565b6000813590506101c28161019c565b92915050565b600080604083850312156101df576101de61018a565b5b60006101ed858286016101b3565b92505060206101fe858286016101b3565b9150509250929050565b6102118161018f565b82525050565b600060208201905061022c6000830184610208565b92915050565b7f4e487b7100000000000000000000000000000000000000000000000000000000600052601160045260246000fd5b600061026c8261018f565b91506102778361018f565b9250828201905060ff8111156102905761028f610232565b5b92915050565b600082825260208201905092915050565b7f4572726f723a206164646974696f6e206f766572666c6f770000000000000000600082015250565b60006102dd601883610296565b91506102e8826102a7565b602082019050919050565b6000602082019050818103600083015261030c816102d0565b905091905056fea2646970667358221220df52830af64f04b178ad3d5fc7ec9b9adc83545233e2dcef7106133795072ab764736f6c63430008120033",
					"opcodes": "PUSH1 0x80 PUSH1 0x40 MSTORE CALLVALUE DUP1 ISZERO PUSH2 0x10 JUMPI PUSH1 0x0 DUP1 REVERT JUMPDEST POP PUSH2 0x349 DUP1 PUSH2 0x20 PUSH1 0x0 CODECOPY PUSH1 0x0 RETURN INVALID PUSH1 0x80 PUSH1 0x40 MSTORE CALLVALUE DUP1 ISZERO PUSH2 0x10 JUMPI PUSH1 0x0 DUP1 REVERT JUMPDEST POP PUSH1 0x4 CALLDATASIZE LT PUSH2 0x41 JUMPI PUSH1 0x0 CALLDATALOAD PUSH1 0xE0 SHR DUP1 PUSH4 0x50839710 EQ PUSH2 0x46 JUMPI DUP1 PUSH4 0x56E2778C EQ PUSH2 0x76 JUMPI DUP1 PUSH4 0xB71602B3 EQ PUSH2 0xA6 JUMPI JUMPDEST PUSH1 0x0 DUP1 REVERT JUMPDEST PUSH2 0x60 PUSH1 0x4 DUP1 CALLDATASIZE SUB DUP2 ADD SWAP1 PUSH2 0x5B SWAP2 SWAP1 PUSH2 0x1C8 JUMP JUMPDEST PUSH2 0xD6 JUMP JUMPDEST PUSH1 0x40 MLOAD PUSH2 0x6D SWAP2 SWAP1 PUSH2 0x217 JUMP JUMPDEST PUSH1 0x40 MLOAD DUP1 SWAP2 SUB SWAP1 RETURN JUMPDEST PUSH2 0x90 PUSH1 0x4 DUP1 CALLDATASIZE SUB DUP2 ADD SWAP1 PUSH2 0x8B SWAP2 SWAP1 PUSH2 0x1C8 JUMP JUMPDEST PUSH2 0xF6 JUMP JUMPDEST PUSH1 0x40 MLOAD PUSH2 0x9D SWAP2 SWAP1 PUSH2 0x217 JUMP JUMPDEST PUSH1 0x40 MLOAD DUP1 SWAP2 SUB SWAP1 RETURN JUMPDEST PUSH2 0xC0 PUSH1 0x4 DUP1 CALLDATASIZE SUB DUP2 ADD SWAP1 PUSH2 0xBB SWAP2 SWAP1 PUSH2 0x1C8 JUMP JUMPDEST PUSH2 0x10C JUMP JUMPDEST PUSH1 0x40 MLOAD PUSH2 0xCD SWAP2 SWAP1 PUSH2 0x217 JUMP JUMPDEST PUSH1 0x40 MLOAD DUP1 SWAP2 SUB SWAP1 RETURN JUMPDEST PUSH1 0x0 PUSH2 0xEE DUP3 DUP5 PUSH1 0xFF AND PUSH2 0x120 SWAP1 SWAP2 SWAP1 PUSH4 0xFFFFFFFF AND JUMP JUMPDEST SWAP1 POP SWAP3 SWAP2 POP POP JUMP JUMPDEST PUSH1 0x0 DUP2 DUP4 PUSH2 0x104 SWAP2 SWAP1 PUSH2 0x261 JUMP JUMPDEST SWAP1 POP SWAP3 SWAP2 POP POP JUMP JUMPDEST PUSH1 0x0 PUSH2 0x118 DUP4 DUP4 PUSH2 0x120 JUMP JUMPDEST SWAP1 POP SWAP3 SWAP2 POP POP JUMP JUMPDEST PUSH1 0x0 DUP3 PUSH1 0xFF AND DUP3 DUP5 PUSH2 0x132 SWAP2 SWAP1 PUSH2 0x261 JUMP JUMPDEST PUSH1 0xFF AND LT ISZERO PUSH2 0x176 JUMPI PUSH1 0x40 MLOAD PUSH32 0x8C379A000000000000000000000000000000000000000000000000000000000 DUP2 MSTORE PUSH1 0x4 ADD PUSH2 0x16D SWAP1 PUSH2 0x2F3 JUMP JUMPDEST PUSH1 0x40 MLOAD DUP1 SWAP2 SUB SWAP1 REVERT JUMPDEST DUP2 DUP4 PUSH2 0x182 SWAP2 SWAP1 PUSH2 0x261 JUMP JUMPDEST SWAP1 POP SWAP3 SWAP2 POP POP JUMP JUMPDEST PUSH1 0x0 DUP1 REVERT JUMPDEST PUSH1 0x0 PUSH1 0xFF DUP3 AND SWAP1 POP SWAP2 SWAP1 POP JUMP JUMPDEST PUSH2 0x1A5 DUP2 PUSH2 0x18F JUMP JUMPDEST DUP2 EQ PUSH2 0x1B0 JUMPI PUSH1 0x0 DUP1 REVERT JUMPDEST POP JUMP JUMPDEST PUSH1 0x0 DUP2 CALLDATALOAD SWAP1 POP PUSH2 0x1C2 DUP2 PUSH2 0x19C JUMP JUMPDEST SWAP3 SWAP2 POP POP JUMP JUMPDEST PUSH1 0x0 DUP1 PUSH1 0x40 DUP4 DUP6 SUB SLT ISZERO PUSH2 0x1DF JUMPI PUSH2 0x1DE PUSH2 0x18A JUMP JUMPDEST JUMPDEST PUSH1 0x0 PUSH2 0x1ED DUP6 DUP3 DUP7 ADD PUSH2 0x1B3 JUMP JUMPDEST SWAP3 POP POP PUSH1 0x20 PUSH2 0x1FE DUP6 DUP3 DUP7 ADD PUSH2 0x1B3 JUMP JUMPDEST SWAP2 POP POP SWAP3 POP SWAP3 SWAP1 POP JUMP JUMPDEST PUSH2 0x211 DUP2 PUSH2 0x18F JUMP JUMPDEST DUP3 MSTORE POP POP JUMP JUMPDEST PUSH1 0x0 PUSH1 0x20 DUP3 ADD SWAP1 POP PUSH2 0x22C PUSH1 0x0 DUP4 ADD DUP5 PUSH2 0x208 JUMP JUMPDEST SWAP3 SWAP2 POP POP JUMP JUMPDEST PUSH32 0x4E487B7100000000000000000000000000000000000000000000000000000000 PUSH1 0x0 MSTORE PUSH1 0x11 PUSH1 0x4 MSTORE PUSH1 0x24 PUSH1 0x0 REVERT JUMPDEST PUSH1 0x0 PUSH2 0x26C DUP3 PUSH2 0x18F JUMP JUMPDEST SWAP2 POP PUSH2 0x277 DUP4 PUSH2 0x18F JUMP JUMPDEST SWAP3 POP DUP3 DUP3 ADD SWAP1 POP PUSH1 0xFF DUP2 GT ISZERO PUSH2 0x290 JUMPI PUSH2 0x28F PUSH2 0x232 JUMP JUMPDEST JUMPDEST SWAP3 SWAP2 POP POP JUMP JUMPDEST PUSH1 0x0 DUP3 DUP3 MSTORE PUSH1 0x20 DUP3 ADD SWAP1 POP SWAP3 SWAP2 POP POP JUMP JUMPDEST PUSH32 0x4572726F723A206164646974696F6E206F766572666C6F770000000000000000 PUSH1 0x0 DUP3 ADD MSTORE POP JUMP JUMPDEST PUSH1 0x0 PUSH2 0x2DD PUSH1 0x18 DUP4 PUSH2 0x296 JUMP JUMPDEST SWAP2 POP PUSH2 0x2E8 DUP3 PUSH2 0x2A7 JUMP JUMPDEST PUSH1 0x20 DUP3 ADD SWAP1 POP SWAP2 SWAP1 POP JUMP JUMPDEST PUSH1 0x0 PUSH1 0x20 DUP3 ADD SWAP1 POP DUP2 DUP2 SUB PUSH1 0x0 DUP4 ADD MSTORE PUSH2 0x30C DUP2 PUSH2 0x2D0 JUMP JUMPDEST SWAP1 POP SWAP2 SWAP1 POP JUMP INVALID LOG2 PUSH5 0x6970667358 0x22 SLT KECCAK256 0xDF MSTORE DUP4 EXP 0xF6 0x4F DIV 0xB1 PUSH25 0xAD3D5FC7EC9B9ADC83545233E2DCEF7106133795072AB76473 PUSH16 0x6C634300081200330000000000000000 "
				},
				"gasEstimates": {
					"creation": {
						"codeDepositCost": "168200",
						"executionCost": "214",
						"totalCost": "168414"
					},
					"external": {
						"noOverflow1(uint8,uint8)": "infinite",
						"noOverflow2(uint8,uint8)": "infinite",
						"overflow(uint8,uint8)": "infinite"
					}
				},
				"methodIdentifiers": {
					"noOverflow1(uint8,uint8)": "b71602b3",
					"noOverflow2(uint8,uint8)": "50839710",
					"overflow(uint8,uint8)": "56e2778c"
				}
			},
			"storageLayout": {
				"storage": [],
				"types": null
			},
			"userdoc": {
				"kind": "user",
				"methods": {},
				"version": 1
			}
		}
	}
}