{
	"Chapter3/Ex3-8.sol": {
		"Ex3_8": {
			"abi": [
				{
					"inputs": [],
					"name": "a",
					"outputs": [
						{
							"internalType": "uint256",
							"name": "",
							"type": "uint256"
						}
					],
					"stateMutability": "view",
					"type": "function"
				},
				{
					"inputs": [],
					"name": "b",
					"outputs": [
						{
							"internalType": "uint256",
							"name": "",
							"type": "uint256"
						}
					],
					"stateMutability": "view",
					"type": "function"
				},
				{
					"inputs": [],
					"name": "myFun",
					"outputs": [
						{
							"internalType": "uint256",
							"name": "",
							"type": "uint256"
						}
					],
					"stateMutability": "nonpayable",
					"type": "function"
				}
			],
			"devdoc": {
				"kind": "dev",
				"methods": {},
				"version": 1
			},
			"evm": {
				"assembly": "    /* \"Chapter3/Ex3-8.sol\":67:237  contract Ex3_8 {... */\n  mstore(0x40, 0x80)\n    /* \"Chapter3/Ex3-8.sol\":111:112  3 */\n  0x03\n    /* \"Chapter3/Ex3-8.sol\":95:112  uint public a = 3 */\n  0x00\n  sstore\n    /* \"Chapter3/Ex3-8.sol\":135:142  myFun() */\n  tag_1\n    /* \"Chapter3/Ex3-8.sol\":135:140  myFun */\n  shl(0x20, tag_2)\n    /* \"Chapter3/Ex3-8.sol\":135:142  myFun() */\n  0x20\n  shr\n  jump\t// in\ntag_1:\n    /* \"Chapter3/Ex3-8.sol\":119:142  uint public b = myFun() */\n  0x01\n  sstore\n    /* \"Chapter3/Ex3-8.sol\":67:237  contract Ex3_8 {... */\n  callvalue\n  dup1\n  iszero\n  tag_3\n  jumpi\n  0x00\n  dup1\n  revert\ntag_3:\n  pop\n  jump(tag_4)\n    /* \"Chapter3/Ex3-8.sol\":151:234  function myFun() public returns(uint) {... */\ntag_2:\n    /* \"Chapter3/Ex3-8.sol\":183:187  uint */\n  0x00\n    /* \"Chapter3/Ex3-8.sol\":204:207  100 */\n  0x64\n    /* \"Chapter3/Ex3-8.sol\":200:201  a */\n  0x00\n    /* \"Chapter3/Ex3-8.sol\":200:207  a = 100 */\n  dup2\n  swap1\n  sstore\n  pop\n    /* \"Chapter3/Ex3-8.sol\":225:226  a */\n  sload(0x00)\n    /* \"Chapter3/Ex3-8.sol\":218:226  return a */\n  swap1\n  pop\n    /* \"Chapter3/Ex3-8.sol\":151:234  function myFun() public returns(uint) {... */\n  swap1\n  jump\t// out\n    /* \"Chapter3/Ex3-8.sol\":67:237  contract Ex3_8 {... */\ntag_4:\n  dataSize(sub_0)\n  dup1\n  dataOffset(sub_0)\n  0x00\n  codecopy\n  0x00\n  return\nstop\n\nsub_0: assembly {\n        /* \"Chapter3/Ex3-8.sol\":67:237  contract Ex3_8 {... */\n      mstore(0x40, 0x80)\n      callvalue\n      dup1\n      iszero\n      tag_1\n      jumpi\n      0x00\n      dup1\n      revert\n    tag_1:\n      pop\n      jumpi(tag_2, lt(calldatasize, 0x04))\n      shr(0xe0, calldataload(0x00))\n      dup1\n      0x0dbe671f\n      eq\n      tag_3\n      jumpi\n      dup1\n      0x4df7e3d0\n      eq\n      tag_4\n      jumpi\n      dup1\n      0x75bbb4e7\n      eq\n      tag_5\n      jumpi\n    tag_2:\n      0x00\n      dup1\n      revert\n        /* \"Chapter3/Ex3-8.sol\":95:112  uint public a = 3 */\n    tag_3:\n      tag_6\n      tag_7\n      jump\t// in\n    tag_6:\n      mload(0x40)\n      tag_8\n      swap2\n      swap1\n      tag_9\n      jump\t// in\n    tag_8:\n      mload(0x40)\n      dup1\n      swap2\n      sub\n      swap1\n      return\n        /* \"Chapter3/Ex3-8.sol\":119:142  uint public b = myFun() */\n    tag_4:\n      tag_10\n      tag_11\n      jump\t// in\n    tag_10:\n      mload(0x40)\n      tag_12\n      swap2\n      swap1\n      tag_9\n      jump\t// in\n    tag_12:\n      mload(0x40)\n      dup1\n      swap2\n      sub\n      swap1\n      return\n        /* \"Chapter3/Ex3-8.sol\":151:234  function myFun() public returns(uint) {... */\n    tag_5:\n      tag_13\n      tag_14\n      jump\t// in\n    tag_13:\n      mload(0x40)\n      tag_15\n      swap2\n      swap1\n      tag_9\n      jump\t// in\n    tag_15:\n      mload(0x40)\n      dup1\n      swap2\n      sub\n      swap1\n      return\n        /* \"Chapter3/Ex3-8.sol\":95:112  uint public a = 3 */\n    tag_7:\n      sload(0x00)\n      dup2\n      jump\t// out\n        /* \"Chapter3/Ex3-8.sol\":119:142  uint public b = myFun() */\n    tag_11:\n      sload(0x01)\n      dup2\n      jump\t// out\n        /* \"Chapter3/Ex3-8.sol\":151:234  function myFun() public returns(uint) {... */\n    tag_14:\n        /* \"Chapter3/Ex3-8.sol\":183:187  uint */\n      0x00\n        /* \"Chapter3/Ex3-8.sol\":204:207  100 */\n      0x64\n        /* \"Chapter3/Ex3-8.sol\":200:201  a */\n      0x00\n        /* \"Chapter3/Ex3-8.sol\":200:207  a = 100 */\n      dup2\n      swap1\n      sstore\n      pop\n        /* \"Chapter3/Ex3-8.sol\":225:226  a */\n      sload(0x00)\n        /* \"Chapter3/Ex3-8.sol\":218:226  return a */\n      swap1\n      pop\n        /* \"Chapter3/Ex3-8.sol\":151:234  function myFun() public returns(uint) {... */\n      swap1\n      jump\t// out\n        /* \"#utility.yul\":7:84   */\n    tag_17:\n        /* \"#utility.yul\":44:51   */\n      0x00\n        /* \"#utility.yul\":73:78   */\n      dup2\n        /* \"#utility.yul\":62:78   */\n      swap1\n      pop\n        /* \"#utility.yul\":7:84   */\n      swap2\n      swap1\n      pop\n      jump\t// out\n        /* \"#utility.yul\":90:208   */\n    tag_18:\n        /* \"#utility.yul\":177:201   */\n      tag_22\n        /* \"#utility.yul\":195:200   */\n      dup2\n        /* \"#utility.yul\":177:201   */\n      tag_17\n      jump\t// in\n    tag_22:\n        /* \"#utility.yul\":172:175   */\n      dup3\n        /* \"#utility.yul\":165:202   */\n      mstore\n        /* \"#utility.yul\":90:208   */\n      pop\n      pop\n      jump\t// out\n        /* \"#utility.yul\":214:436   */\n    tag_9:\n        /* \"#utility.yul\":307:311   */\n      0x00\n        /* \"#utility.yul\":345:347   */\n      0x20\n        /* \"#utility.yul\":334:343   */\n      dup3\n        /* \"#utility.yul\":330:348   */\n      add\n        /* \"#utility.yul\":322:348   */\n      swap1\n      pop\n        /* \"#utility.yul\":358:429   */\n      tag_24\n        /* \"#utility.yul\":426:427   */\n      0x00\n        /* \"#utility.yul\":415:424   */\n      dup4\n        /* \"#utility.yul\":411:428   */\n      add\n        /* \"#utility.yul\":402:408   */\n      dup5\n        /* \"#utility.yul\":358:429   */\n      tag_18\n      jump\t// in\n    tag_24:\n        /* \"#utility.yul\":214:436   */\n      swap3\n      swap2\n      pop\n      pop\n      jump\t// out\n\n    auxdata: 0xa26469706673582212204372e9bd6f79ec0ee5042dc04f79cfcb2a1d1be93c59ef1ba1cdcacdded1ef8b64736f6c63430008120033\n}\n",
				"bytecode": {
					"linkReferences": {},
					"object": "6080604052600360005561001761002c60201b60201c565b60015534801561002657600080fd5b5061003e565b60006064600081905550600054905090565b6101138061004d6000396000f3fe6080604052348015600f57600080fd5b5060043610603c5760003560e01c80630dbe671f1460415780634df7e3d014605b57806375bbb4e7146075575b600080fd5b6047608f565b6040516052919060c4565b60405180910390f35b60616095565b604051606c919060c4565b60405180910390f35b607b609b565b6040516086919060c4565b60405180910390f35b60005481565b60015481565b60006064600081905550600054905090565b6000819050919050565b60be8160ad565b82525050565b600060208201905060d7600083018460b7565b9291505056fea26469706673582212204372e9bd6f79ec0ee5042dc04f79cfcb2a1d1be93c59ef1ba1cdcacdded1ef8b64736f6c63430008120033",
					"opcodes": "PUSH1 0x80 PUSH1 0x40 MSTORE PUSH1 0x3 PUSH1 0x0 SSTORE PUSH2 0x17 PUSH2 0x2C PUSH1 0x20 SHL PUSH1 0x20 SHR JUMP JUMPDEST PUSH1 0x1 SSTORE CALLVALUE DUP1 ISZERO PUSH2 0x26 JUMPI PUSH1 0x0 DUP1 REVERT JUMPDEST POP PUSH2 0x3E JUMP JUMPDEST PUSH1 0x0 PUSH1 0x64 PUSH1 0x0 DUP2 SWAP1 SSTORE POP PUSH1 0x0 SLOAD SWAP1 POP SWAP1 JUMP JUMPDEST PUSH2 0x113 DUP1 PUSH2 0x4D PUSH1 0x0 CODECOPY PUSH1 0x0 RETURN INVALID PUSH1 0x80 PUSH1 0x40 MSTORE CALLVALUE DUP1 ISZERO PUSH1 0xF JUMPI PUSH1 0x0 DUP1 REVERT JUMPDEST POP PUSH1 0x4 CALLDATASIZE LT PUSH1 0x3C JUMPI PUSH1 0x0 CALLDATALOAD PUSH1 0xE0 SHR DUP1 PUSH4 0xDBE671F EQ PUSH1 0x41 JUMPI DUP1 PUSH4 0x4DF7E3D0 EQ PUSH1 0x5B JUMPI DUP1 PUSH4 0x75BBB4E7 EQ PUSH1 0x75 JUMPI JUMPDEST PUSH1 0x0 DUP1 REVERT JUMPDEST PUSH1 0x47 PUSH1 0x8F JUMP JUMPDEST PUSH1 0x40 MLOAD PUSH1 0x52 SWAP2 SWAP1 PUSH1 0xC4 JUMP JUMPDEST PUSH1 0x40 MLOAD DUP1 SWAP2 SUB SWAP1 RETURN JUMPDEST PUSH1 0x61 PUSH1 0x95 JUMP JUMPDEST PUSH1 0x40 MLOAD PUSH1 0x6C SWAP2 SWAP1 PUSH1 0xC4 JUMP JUMPDEST PUSH1 0x40 MLOAD DUP1 SWAP2 SUB SWAP1 RETURN JUMPDEST PUSH1 0x7B PUSH1 0x9B JUMP JUMPDEST PUSH1 0x40 MLOAD PUSH1 0x86 SWAP2 SWAP1 PUSH1 0xC4 JUMP JUMPDEST PUSH1 0x40 MLOAD DUP1 SWAP2 SUB SWAP1 RETURN JUMPDEST PUSH1 0x0 SLOAD DUP2 JUMP JUMPDEST PUSH1 0x1 SLOAD DUP2 JUMP JUMPDEST PUSH1 0x0 PUSH1 0x64 PUSH1 0x0 DUP2 SWAP1 SSTORE POP PUSH1 0x0 SLOAD SWAP1 POP SWAP1 JUMP JUMPDEST PUSH1 0x0 DUP2 SWAP1 POP SWAP2 SWAP1 POP JUMP JUMPDEST PUSH1 0xBE DUP2 PUSH1 0xAD JUMP JUMPDEST DUP3 MSTORE POP POP JUMP JUMPDEST PUSH1 0x0 PUSH1 0x20 DUP3 ADD SWAP1 POP PUSH1 0xD7 PUSH1 0x0 DUP4 ADD DUP5 PUSH1 0xB7 JUMP JUMPDEST SWAP3 SWAP2 POP POP JUMP INVALID LOG2 PUSH5 0x6970667358 0x22 SLT KECCAK256 NUMBER PUSH19 0xE9BD6F79EC0EE5042DC04F79CFCB2A1D1BE93C MSIZE 0xEF SHL LOG1 0xCD 0xCA 0xCD 0xDE 0xD1 0xEF DUP12 PUSH5 0x736F6C6343 STOP ADDMOD SLT STOP CALLER "
				},
				"gasEstimates": {
					"creation": {
						"codeDepositCost": "55000",
						"executionCost": "infinite",
						"totalCost": "infinite"
					},
					"external": {
						"a()": "2407",
						"b()": "2429",
						"myFun()": "24573"
					}
				},
				"methodIdentifiers": {
					"a()": "0dbe671f",
					"b()": "4df7e3d0",
					"myFun()": "75bbb4e7"
				}
			},
			"storageLayout": {
				"storage": [
					{
						"astId": 4,
						"contract": "Chapter3/Ex3-8.sol:Ex3_8",
						"label": "a",
						"offset": 0,
						"slot": "0",
						"type": "t_uint256"
					},
					{
						"astId": 8,
						"contract": "Chapter3/Ex3-8.sol:Ex3_8",
						"label": "b",
						"offset": 0,
						"slot": "1",
						"type": "t_uint256"
					}
				],
				"types": {
					"t_uint256": {
						"encoding": "inplace",
						"label": "uint256",
						"numberOfBytes": "32"
					}
				}
			},
			"userdoc": {
				"kind": "user",
				"methods": {},
				"version": 1
			}
		}
	}
}