{
	"data": {
		"bytecode": {
			"linkReferences": {},
			"object": "608060405234801561001057600080fd5b506104b1806100206000396000f3fe608060405234801561001057600080fd5b50600436106100625760003560e01c806345bd069b14610067578063543209b714610097578063886c6f51146100c7578063c6162c61146100f7578063e5b5019a14610127578063f7db88e014610145575b600080fd5b610081600480360381019061007c91906102ba565b610175565b60405161008e91906102f6565b60405180910390f35b6100b160048036038101906100ac91906102ba565b610193565b6040516100be91906102f6565b60405180910390f35b6100e160048036038101906100dc91906102ba565b6101b1565b6040516100ee91906102f6565b60405180910390f35b610111600480360381019061010c91906102ba565b6101cf565b60405161011e91906102f6565b60405180910390f35b61012f6101ed565b60405161013c91906102f6565b60405180910390f35b61015f600480360381019061015a91906102ba565b6101f3565b60405161016c91906102f6565b60405180910390f35b600061018c8260001961021190919063ffffffff16565b9050919050565b60006101aa8260001961022790919063ffffffff16565b9050919050565b60006101c88260001961023d90919063ffffffff16565b9050919050565b60006101e68260001961025390919063ffffffff16565b9050919050565b60001981565b600061020a8260001961026990919063ffffffff16565b9050919050565b6000818361021f919061036f565b905092915050565b6000818361023591906103a0565b905092915050565b6000818361024b91906103d4565b905092915050565b600081836102619190610405565b905092915050565b600081836102779190610447565b905092915050565b600080fd5b6000819050919050565b61029781610284565b81146102a257600080fd5b50565b6000813590506102b48161028e565b92915050565b6000602082840312156102d0576102cf61027f565b5b60006102de848285016102a5565b91505092915050565b6102f081610284565b82525050565b600060208201905061030b60008301846102e7565b92915050565b7f4e487b7100000000000000000000000000000000000000000000000000000000600052601260045260246000fd5b7f4e487b7100000000000000000000000000000000000000000000000000000000600052601160045260246000fd5b600061037a82610284565b915061038583610284565b92508261039557610394610311565b5b828204905092915050565b60006103ab82610284565b91506103b683610284565b92508282019050808211156103ce576103cd610340565b5b92915050565b60006103df82610284565b91506103ea83610284565b9250826103fa576103f9610311565b5b828206905092915050565b600061041082610284565b915061041b83610284565b925082820261042981610284565b915082820484148315176104405761043f610340565b5b5092915050565b600061045282610284565b915061045d83610284565b925082820390508181111561047557610474610340565b5b9291505056fea264697066735822122004c04e9fc142188c1d000d33102781a91d6733e627ceadf6664b1cb58f83336864736f6c63430008120033",
			"opcodes": "PUSH1 0x80 PUSH1 0x40 MSTORE CALLVALUE DUP1 ISZERO PUSH2 0x10 JUMPI PUSH1 0x0 DUP1 REVERT JUMPDEST POP PUSH2 0x4B1 DUP1 PUSH2 0x20 PUSH1 0x0 CODECOPY PUSH1 0x0 RETURN INVALID PUSH1 0x80 PUSH1 0x40 MSTORE CALLVALUE DUP1 ISZERO PUSH2 0x10 JUMPI PUSH1 0x0 DUP1 REVERT JUMPDEST POP PUSH1 0x4 CALLDATASIZE LT PUSH2 0x62 JUMPI PUSH1 0x0 CALLDATALOAD PUSH1 0xE0 SHR DUP1 PUSH4 0x45BD069B EQ PUSH2 0x67 JUMPI DUP1 PUSH4 0x543209B7 EQ PUSH2 0x97 JUMPI DUP1 PUSH4 0x886C6F51 EQ PUSH2 0xC7 JUMPI DUP1 PUSH4 0xC6162C61 EQ PUSH2 0xF7 JUMPI DUP1 PUSH4 0xE5B5019A EQ PUSH2 0x127 JUMPI DUP1 PUSH4 0xF7DB88E0 EQ PUSH2 0x145 JUMPI JUMPDEST PUSH1 0x0 DUP1 REVERT JUMPDEST PUSH2 0x81 PUSH1 0x4 DUP1 CALLDATASIZE SUB DUP2 ADD SWAP1 PUSH2 0x7C SWAP2 SWAP1 PUSH2 0x2BA JUMP JUMPDEST PUSH2 0x175 JUMP JUMPDEST PUSH1 0x40 MLOAD PUSH2 0x8E SWAP2 SWAP1 PUSH2 0x2F6 JUMP JUMPDEST PUSH1 0x40 MLOAD DUP1 SWAP2 SUB SWAP1 RETURN JUMPDEST PUSH2 0xB1 PUSH1 0x4 DUP1 CALLDATASIZE SUB DUP2 ADD SWAP1 PUSH2 0xAC SWAP2 SWAP1 PUSH2 0x2BA JUMP JUMPDEST PUSH2 0x193 JUMP JUMPDEST PUSH1 0x40 MLOAD PUSH2 0xBE SWAP2 SWAP1 PUSH2 0x2F6 JUMP JUMPDEST PUSH1 0x40 MLOAD DUP1 SWAP2 SUB SWAP1 RETURN JUMPDEST PUSH2 0xE1 PUSH1 0x4 DUP1 CALLDATASIZE SUB DUP2 ADD SWAP1 PUSH2 0xDC SWAP2 SWAP1 PUSH2 0x2BA JUMP JUMPDEST PUSH2 0x1B1 JUMP JUMPDEST PUSH1 0x40 MLOAD PUSH2 0xEE SWAP2 SWAP1 PUSH2 0x2F6 JUMP JUMPDEST PUSH1 0x40 MLOAD DUP1 SWAP2 SUB SWAP1 RETURN JUMPDEST PUSH2 0x111 PUSH1 0x4 DUP1 CALLDATASIZE SUB DUP2 ADD SWAP1 PUSH2 0x10C SWAP2 SWAP1 PUSH2 0x2BA JUMP JUMPDEST PUSH2 0x1CF JUMP JUMPDEST PUSH1 0x40 MLOAD PUSH2 0x11E SWAP2 SWAP1 PUSH2 0x2F6 JUMP JUMPDEST PUSH1 0x40 MLOAD DUP1 SWAP2 SUB SWAP1 RETURN JUMPDEST PUSH2 0x12F PUSH2 0x1ED JUMP JUMPDEST PUSH1 0x40 MLOAD PUSH2 0x13C SWAP2 SWAP1 PUSH2 0x2F6 JUMP JUMPDEST PUSH1 0x40 MLOAD DUP1 SWAP2 SUB SWAP1 RETURN JUMPDEST PUSH2 0x15F PUSH1 0x4 DUP1 CALLDATASIZE SUB DUP2 ADD SWAP1 PUSH2 0x15A SWAP2 SWAP1 PUSH2 0x2BA JUMP JUMPDEST PUSH2 0x1F3 JUMP JUMPDEST PUSH1 0x40 MLOAD PUSH2 0x16C SWAP2 SWAP1 PUSH2 0x2F6 JUMP JUMPDEST PUSH1 0x40 MLOAD DUP1 SWAP2 SUB SWAP1 RETURN JUMPDEST PUSH1 0x0 PUSH2 0x18C DUP3 PUSH1 0x0 NOT PUSH2 0x211 SWAP1 SWAP2 SWAP1 PUSH4 0xFFFFFFFF AND JUMP JUMPDEST SWAP1 POP SWAP2 SWAP1 POP JUMP JUMPDEST PUSH1 0x0 PUSH2 0x1AA DUP3 PUSH1 0x0 NOT PUSH2 0x227 SWAP1 SWAP2 SWAP1 PUSH4 0xFFFFFFFF AND JUMP JUMPDEST SWAP1 POP SWAP2 SWAP1 POP JUMP JUMPDEST PUSH1 0x0 PUSH2 0x1C8 DUP3 PUSH1 0x0 NOT PUSH2 0x23D SWAP1 SWAP2 SWAP1 PUSH4 0xFFFFFFFF AND JUMP JUMPDEST SWAP1 POP SWAP2 SWAP1 POP JUMP JUMPDEST PUSH1 0x0 PUSH2 0x1E6 DUP3 PUSH1 0x0 NOT PUSH2 0x253 SWAP1 SWAP2 SWAP1 PUSH4 0xFFFFFFFF AND JUMP JUMPDEST SWAP1 POP SWAP2 SWAP1 POP JUMP JUMPDEST PUSH1 0x0 NOT DUP2 JUMP JUMPDEST PUSH1 0x0 PUSH2 0x20A DUP3 PUSH1 0x0 NOT PUSH2 0x269 SWAP1 SWAP2 SWAP1 PUSH4 0xFFFFFFFF AND JUMP JUMPDEST SWAP1 POP SWAP2 SWAP1 POP JUMP JUMPDEST PUSH1 0x0 DUP2 DUP4 PUSH2 0x21F SWAP2 SWAP1 PUSH2 0x36F JUMP JUMPDEST SWAP1 POP SWAP3 SWAP2 POP POP JUMP JUMPDEST PUSH1 0x0 DUP2 DUP4 PUSH2 0x235 SWAP2 SWAP1 PUSH2 0x3A0 JUMP JUMPDEST SWAP1 POP SWAP3 SWAP2 POP POP JUMP JUMPDEST PUSH1 0x0 DUP2 DUP4 PUSH2 0x24B SWAP2 SWAP1 PUSH2 0x3D4 JUMP JUMPDEST SWAP1 POP SWAP3 SWAP2 POP POP JUMP JUMPDEST PUSH1 0x0 DUP2 DUP4 PUSH2 0x261 SWAP2 SWAP1 PUSH2 0x405 JUMP JUMPDEST SWAP1 POP SWAP3 SWAP2 POP POP JUMP JUMPDEST PUSH1 0x0 DUP2 DUP4 PUSH2 0x277 SWAP2 SWAP1 PUSH2 0x447 JUMP JUMPDEST SWAP1 POP SWAP3 SWAP2 POP POP JUMP JUMPDEST PUSH1 0x0 DUP1 REVERT JUMPDEST PUSH1 0x0 DUP2 SWAP1 POP SWAP2 SWAP1 POP JUMP JUMPDEST PUSH2 0x297 DUP2 PUSH2 0x284 JUMP JUMPDEST DUP2 EQ PUSH2 0x2A2 JUMPI PUSH1 0x0 DUP1 REVERT JUMPDEST POP JUMP JUMPDEST PUSH1 0x0 DUP2 CALLDATALOAD SWAP1 POP PUSH2 0x2B4 DUP2 PUSH2 0x28E JUMP JUMPDEST SWAP3 SWAP2 POP POP JUMP JUMPDEST PUSH1 0x0 PUSH1 0x20 DUP3 DUP5 SUB SLT ISZERO PUSH2 0x2D0 JUMPI PUSH2 0x2CF PUSH2 0x27F JUMP JUMPDEST JUMPDEST PUSH1 0x0 PUSH2 0x2DE DUP5 DUP3 DUP6 ADD PUSH2 0x2A5 JUMP JUMPDEST SWAP2 POP POP SWAP3 SWAP2 POP POP JUMP JUMPDEST PUSH2 0x2F0 DUP2 PUSH2 0x284 JUMP JUMPDEST DUP3 MSTORE POP POP JUMP JUMPDEST PUSH1 0x0 PUSH1 0x20 DUP3 ADD SWAP1 POP PUSH2 0x30B PUSH1 0x0 DUP4 ADD DUP5 PUSH2 0x2E7 JUMP JUMPDEST SWAP3 SWAP2 POP POP JUMP JUMPDEST PUSH32 0x4E487B7100000000000000000000000000000000000000000000000000000000 PUSH1 0x0 MSTORE PUSH1 0x12 PUSH1 0x4 MSTORE PUSH1 0x24 PUSH1 0x0 REVERT JUMPDEST PUSH32 0x4E487B7100000000000000000000000000000000000000000000000000000000 PUSH1 0x0 MSTORE PUSH1 0x11 PUSH1 0x4 MSTORE PUSH1 0x24 PUSH1 0x0 REVERT JUMPDEST PUSH1 0x0 PUSH2 0x37A DUP3 PUSH2 0x284 JUMP JUMPDEST SWAP2 POP PUSH2 0x385 DUP4 PUSH2 0x284 JUMP JUMPDEST SWAP3 POP DUP3 PUSH2 0x395 JUMPI PUSH2 0x394 PUSH2 0x311 JUMP JUMPDEST JUMPDEST DUP3 DUP3 DIV SWAP1 POP SWAP3 SWAP2 POP POP JUMP JUMPDEST PUSH1 0x0 PUSH2 0x3AB DUP3 PUSH2 0x284 JUMP JUMPDEST SWAP2 POP PUSH2 0x3B6 DUP4 PUSH2 0x284 JUMP JUMPDEST SWAP3 POP DUP3 DUP3 ADD SWAP1 POP DUP1 DUP3 GT ISZERO PUSH2 0x3CE JUMPI PUSH2 0x3CD PUSH2 0x340 JUMP JUMPDEST JUMPDEST SWAP3 SWAP2 POP POP JUMP JUMPDEST PUSH1 0x0 PUSH2 0x3DF DUP3 PUSH2 0x284 JUMP JUMPDEST SWAP2 POP PUSH2 0x3EA DUP4 PUSH2 0x284 JUMP JUMPDEST SWAP3 POP DUP3 PUSH2 0x3FA JUMPI PUSH2 0x3F9 PUSH2 0x311 JUMP JUMPDEST JUMPDEST DUP3 DUP3 MOD SWAP1 POP SWAP3 SWAP2 POP POP JUMP JUMPDEST PUSH1 0x0 PUSH2 0x410 DUP3 PUSH2 0x284 JUMP JUMPDEST SWAP2 POP PUSH2 0x41B DUP4 PUSH2 0x284 JUMP JUMPDEST SWAP3 POP DUP3 DUP3 MUL PUSH2 0x429 DUP2 PUSH2 0x284 JUMP JUMPDEST SWAP2 POP DUP3 DUP3 DIV DUP5 EQ DUP4 ISZERO OR PUSH2 0x440 JUMPI PUSH2 0x43F PUSH2 0x340 JUMP JUMPDEST JUMPDEST POP SWAP3 SWAP2 POP POP JUMP JUMPDEST PUSH1 0x0 PUSH2 0x452 DUP3 PUSH2 0x284 JUMP JUMPDEST SWAP2 POP PUSH2 0x45D DUP4 PUSH2 0x284 JUMP JUMPDEST SWAP3 POP DUP3 DUP3 SUB SWAP1 POP DUP2 DUP2 GT ISZERO PUSH2 0x475 JUMPI PUSH2 0x474 PUSH2 0x340 JUMP JUMPDEST JUMPDEST SWAP3 SWAP2 POP POP JUMP INVALID LOG2 PUSH5 0x6970667358 0x22 SLT KECCAK256 DIV 0xC0 0x4E SWAP16 0xC1 TIMESTAMP XOR DUP13 SAR STOP 0xD CALLER LT 0x27 DUP2 0xA9 SAR PUSH8 0x33E627CEADF6664B SHR 0xB5 DUP16 DUP4 CALLER PUSH9 0x64736F6C6343000812 STOP CALLER "
		},
		"gasEstimates": {
			"creation": {
				"codeDepositCost": "240200",
				"executionCost": "281",
				"totalCost": "240481"
			},
			"external": {
				"MAX_UINT()": "398",
				"addition(uint256)": "infinite",
				"division(uint256)": "infinite",
				"modulo(uint256)": "infinite",
				"multiplication(uint256)": "infinite",
				"substraction(uint256)": "infinite"
			}
		},
		"methodIdentifiers": {
			"MAX_UINT()": "e5b5019a",
			"addition(uint256)": "543209b7",
			"division(uint256)": "45bd069b",
			"modulo(uint256)": "886c6f51",
			"multiplication(uint256)": "c6162c61",
			"substraction(uint256)": "f7db88e0"
		}
	},
	"abi": [
		{
			"inputs": [],
			"name": "MAX_UINT",
			"outputs": [
				{
					"internalType": "uint256",
					"name": "",
					"type": "uint256"
				}
			],
			"stateMutability": "view",
			"type": "function"
		},
		{
			"inputs": [
				{
					"internalType": "uint256",
					"name": "_num",
					"type": "uint256"
				}
			],
			"name": "addition",
			"outputs": [
				{
					"internalType": "uint256",
					"name": "",
					"type": "uint256"
				}
			],
			"stateMutability": "pure",
			"type": "function"
		},
		{
			"inputs": [
				{
					"internalType": "uint256",
					"name": "_num",
					"type": "uint256"
				}
			],
			"name": "division",
			"outputs": [
				{
					"internalType": "uint256",
					"name": "",
					"type": "uint256"
				}
			],
			"stateMutability": "pure",
			"type": "function"
		},
		{
			"inputs": [
				{
					"internalType": "uint256",
					"name": "_num",
					"type": "uint256"
				}
			],
			"name": "modulo",
			"outputs": [
				{
					"internalType": "uint256",
					"name": "",
					"type": "uint256"
				}
			],
			"stateMutability": "pure",
			"type": "function"
		},
		{
			"inputs": [
				{
					"internalType": "uint256",
					"name": "_num",
					"type": "uint256"
				}
			],
			"name": "multiplication",
			"outputs": [
				{
					"internalType": "uint256",
					"name": "",
					"type": "uint256"
				}
			],
			"stateMutability": "pure",
			"type": "function"
		},
		{
			"inputs": [
				{
					"internalType": "uint256",
					"name": "_num",
					"type": "uint256"
				}
			],
			"name": "substraction",
			"outputs": [
				{
					"internalType": "uint256",
					"name": "",
					"type": "uint256"
				}
			],
			"stateMutability": "pure",
			"type": "function"
		}
	]
}