{
	"Chapter6/Ex6-15.sol": {
		"Alice": {
			"abi": [
				{
					"inputs": [],
					"name": "time",
					"outputs": [
						{
							"internalType": "uint256",
							"name": "",
							"type": "uint256"
						}
					],
					"stateMutability": "nonpayable",
					"type": "function"
				}
			],
			"devdoc": {
				"kind": "dev",
				"methods": {},
				"version": 1
			},
			"evm": {
				"assembly": "    /* \"Chapter6/Ex6-15.sol\":794:957  contract Alice is ArtStudent(5), PartTimer(6) {... */\n  mstore(0x40, 0x80)\n  callvalue\n  dup1\n  iszero\n  tag_1\n  jumpi\n  0x00\n  dup1\n  revert\ntag_1:\n  pop\n    /* \"Chapter6/Ex6-15.sol\":837:838  6 */\n  0x06\n    /* \"Chapter6/Ex6-15.sol\":823:824  5 */\n  0x05\n    /* \"Chapter6/Ex6-15.sol\":180:192  _schoolHours */\n  dup1\n    /* \"Chapter6/Ex6-15.sol\":166:177  schoolHours */\n  0x00\n    /* \"Chapter6/Ex6-15.sol\":166:192  schoolHours = _schoolHours */\n  dup2\n  swap1\n  sstore\n  pop\n    /* \"Chapter6/Ex6-15.sol\":125:200  constructor(uint _schoolHours){... */\n  pop\n    /* \"Chapter6/Ex6-15.sol\":412:425  _workingHours */\n  dup1\n    /* \"Chapter6/Ex6-15.sol\":397:409  workingHours */\n  0x01\n    /* \"Chapter6/Ex6-15.sol\":397:425  workingHours = _workingHours */\n  dup2\n  swap1\n  sstore\n  pop\n    /* \"Chapter6/Ex6-15.sol\":355:433  constructor(uint _workingHours){... */\n  pop\n    /* \"Chapter6/Ex6-15.sol\":794:957  contract Alice is ArtStudent(5), PartTimer(6) {... */\n  dataSize(sub_0)\n  dup1\n  dataOffset(sub_0)\n  0x00\n  codecopy\n  0x00\n  return\nstop\n\nsub_0: assembly {\n        /* \"Chapter6/Ex6-15.sol\":794:957  contract Alice is ArtStudent(5), PartTimer(6) {... */\n      mstore(0x40, 0x80)\n      callvalue\n      dup1\n      iszero\n      tag_1\n      jumpi\n      0x00\n      dup1\n      revert\n    tag_1:\n      pop\n      jumpi(tag_2, lt(calldatasize, 0x04))\n      shr(0xe0, calldataload(0x00))\n      dup1\n      0x16ada547\n      eq\n      tag_3\n      jumpi\n    tag_2:\n      0x00\n      dup1\n      revert\n        /* \"Chapter6/Ex6-15.sol\":847:954  function time() public override(ArtStudent, PartTimer) returns(uint) {... */\n    tag_3:\n      tag_4\n      tag_5\n      jump\t// in\n    tag_4:\n      mload(0x40)\n      tag_6\n      swap2\n      swap1\n      tag_7\n      jump\t// in\n    tag_6:\n      mload(0x40)\n      dup1\n      swap2\n      sub\n      swap1\n      return\n    tag_5:\n        /* \"Chapter6/Ex6-15.sol\":910:914  uint */\n      0x00\n        /* \"Chapter6/Ex6-15.sol\":934:946  super.time() */\n      tag_9\n        /* \"Chapter6/Ex6-15.sol\":934:944  super.time */\n      tag_10\n        /* \"Chapter6/Ex6-15.sol\":934:946  super.time() */\n      jump\t// in\n    tag_9:\n        /* \"Chapter6/Ex6-15.sol\":927:946  return super.time() */\n      swap1\n      pop\n        /* \"Chapter6/Ex6-15.sol\":847:954  function time() public override(ArtStudent, PartTimer) returns(uint) {... */\n      swap1\n      jump\t// out\n        /* \"Chapter6/Ex6-15.sol\":439:521  function time() public virtual returns(uint){... */\n    tag_10:\n        /* \"Chapter6/Ex6-15.sol\":478:482  uint */\n      0x00\n        /* \"Chapter6/Ex6-15.sol\":501:513  workingHours */\n      sload(0x01)\n        /* \"Chapter6/Ex6-15.sol\":494:513  return workingHours */\n      swap1\n      pop\n        /* \"Chapter6/Ex6-15.sol\":439:521  function time() public virtual returns(uint){... */\n      swap1\n      jump\t// out\n        /* \"#utility.yul\":7:84   */\n    tag_12:\n        /* \"#utility.yul\":44:51   */\n      0x00\n        /* \"#utility.yul\":73:78   */\n      dup2\n        /* \"#utility.yul\":62:78   */\n      swap1\n      pop\n        /* \"#utility.yul\":7:84   */\n      swap2\n      swap1\n      pop\n      jump\t// out\n        /* \"#utility.yul\":90:208   */\n    tag_13:\n        /* \"#utility.yul\":177:201   */\n      tag_17\n        /* \"#utility.yul\":195:200   */\n      dup2\n        /* \"#utility.yul\":177:201   */\n      tag_12\n      jump\t// in\n    tag_17:\n        /* \"#utility.yul\":172:175   */\n      dup3\n        /* \"#utility.yul\":165:202   */\n      mstore\n        /* \"#utility.yul\":90:208   */\n      pop\n      pop\n      jump\t// out\n        /* \"#utility.yul\":214:436   */\n    tag_7:\n        /* \"#utility.yul\":307:311   */\n      0x00\n        /* \"#utility.yul\":345:347   */\n      0x20\n        /* \"#utility.yul\":334:343   */\n      dup3\n        /* \"#utility.yul\":330:348   */\n      add\n        /* \"#utility.yul\":322:348   */\n      swap1\n      pop\n        /* \"#utility.yul\":358:429   */\n      tag_19\n        /* \"#utility.yul\":426:427   */\n      0x00\n        /* \"#utility.yul\":415:424   */\n      dup4\n        /* \"#utility.yul\":411:428   */\n      add\n        /* \"#utility.yul\":402:408   */\n      dup5\n        /* \"#utility.yul\":358:429   */\n      tag_13\n      jump\t// in\n    tag_19:\n        /* \"#utility.yul\":214:436   */\n      swap3\n      swap2\n      pop\n      pop\n      jump\t// out\n\n    auxdata: 0xa2646970667358221220478cab75491dcdec2a9cbd7c29309df31c8b2b21302350e0dae70d1d7d49e93f64736f6c63430008120033\n}\n",
				"bytecode": {
					"linkReferences": {},
					"object": "608060405234801561001057600080fd5b50600660058060008190555050806001819055505060c4806100336000396000f3fe6080604052348015600f57600080fd5b506004361060285760003560e01c806316ada54714602d575b600080fd5b60336047565b604051603e91906075565b60405180910390f35b6000604f6054565b905090565b6000600154905090565b6000819050919050565b606f81605e565b82525050565b6000602082019050608860008301846068565b9291505056fea2646970667358221220478cab75491dcdec2a9cbd7c29309df31c8b2b21302350e0dae70d1d7d49e93f64736f6c63430008120033",
					"opcodes": "PUSH1 0x80 PUSH1 0x40 MSTORE CALLVALUE DUP1 ISZERO PUSH2 0x10 JUMPI PUSH1 0x0 DUP1 REVERT JUMPDEST POP PUSH1 0x6 PUSH1 0x5 DUP1 PUSH1 0x0 DUP2 SWAP1 SSTORE POP POP DUP1 PUSH1 0x1 DUP2 SWAP1 SSTORE POP POP PUSH1 0xC4 DUP1 PUSH2 0x33 PUSH1 0x0 CODECOPY PUSH1 0x0 RETURN INVALID PUSH1 0x80 PUSH1 0x40 MSTORE CALLVALUE DUP1 ISZERO PUSH1 0xF JUMPI PUSH1 0x0 DUP1 REVERT JUMPDEST POP PUSH1 0x4 CALLDATASIZE LT PUSH1 0x28 JUMPI PUSH1 0x0 CALLDATALOAD PUSH1 0xE0 SHR DUP1 PUSH4 0x16ADA547 EQ PUSH1 0x2D JUMPI JUMPDEST PUSH1 0x0 DUP1 REVERT JUMPDEST PUSH1 0x33 PUSH1 0x47 JUMP JUMPDEST PUSH1 0x40 MLOAD PUSH1 0x3E SWAP2 SWAP1 PUSH1 0x75 JUMP JUMPDEST PUSH1 0x40 MLOAD DUP1 SWAP2 SUB SWAP1 RETURN JUMPDEST PUSH1 0x0 PUSH1 0x4F PUSH1 0x54 JUMP JUMPDEST SWAP1 POP SWAP1 JUMP JUMPDEST PUSH1 0x0 PUSH1 0x1 SLOAD SWAP1 POP SWAP1 JUMP JUMPDEST PUSH1 0x0 DUP2 SWAP1 POP SWAP2 SWAP1 POP JUMP JUMPDEST PUSH1 0x6F DUP2 PUSH1 0x5E JUMP JUMPDEST DUP3 MSTORE POP POP JUMP JUMPDEST PUSH1 0x0 PUSH1 0x20 DUP3 ADD SWAP1 POP PUSH1 0x88 PUSH1 0x0 DUP4 ADD DUP5 PUSH1 0x68 JUMP JUMPDEST SWAP3 SWAP2 POP POP JUMP INVALID LOG2 PUSH5 0x6970667358 0x22 SLT KECCAK256 SELFBALANCE DUP13 0xAB PUSH22 0x491DCDEC2A9CBD7C29309DF31C8B2B21302350E0DAE7 0xD SAR PUSH30 0x49E93F64736F6C6343000812003300000000000000000000000000000000 "
				},
				"gasEstimates": {
					"creation": {
						"codeDepositCost": "39200",
						"executionCost": "44331",
						"totalCost": "83531"
					},
					"external": {
						"time()": "2450"
					}
				},
				"methodIdentifiers": {
					"time()": "16ada547"
				}
			},
			"storageLayout": {
				"storage": [
					{
						"astId": 3,
						"contract": "Chapter6/Ex6-15.sol:Alice",
						"label": "schoolHours",
						"offset": 0,
						"slot": "0",
						"type": "t_uint256"
					},
					{
						"astId": 24,
						"contract": "Chapter6/Ex6-15.sol:Alice",
						"label": "workingHours",
						"offset": 0,
						"slot": "1",
						"type": "t_uint256"
					}
				],
				"types": {
					"t_uint256": {
						"encoding": "inplace",
						"label": "uint256",
						"numberOfBytes": "32"
					}
				}
			},
			"userdoc": {
				"kind": "user",
				"methods": {},
				"version": 1
			}
		}
	}
}