{
	"Chapter6/Ex6-9.sol": {
		"Ex6_9": {
			"abi": [
				{
					"inputs": [],
					"name": "getNumbers",
					"outputs": [
						{
							"internalType": "uint256",
							"name": "",
							"type": "uint256"
						},
						{
							"internalType": "uint256",
							"name": "",
							"type": "uint256"
						}
					],
					"stateMutability": "view",
					"type": "function"
				}
			],
			"devdoc": {
				"kind": "dev",
				"methods": {},
				"version": 1
			},
			"evm": {
				"assembly": "    /* \"Chapter6/Ex6-9.sol\":336:547  contract Ex6_9 {... */\n  mstore(0x40, 0x80)\n    /* \"Chapter6/Ex6-9.sol\":397:413  new Calculator() */\n  mload(0x40)\n  tag_1\n  swap1\n  tag_2\n  jump\t// in\ntag_1:\n  mload(0x40)\n  dup1\n  swap2\n  sub\n  swap1\n  0x00\n  create\n  dup1\n  iszero\n  dup1\n  iszero\n  tag_3\n  jumpi\n  returndatasize\n  0x00\n  dup1\n  returndatacopy\n  revert(0x00, returndatasize)\ntag_3:\n  pop\n    /* \"Chapter6/Ex6-9.sol\":364:413  Calculator internal calculator = new Calculator() */\n  0x00\n  dup1\n  0x0100\n  exp\n  dup2\n  sload\n  dup2\n  0xffffffffffffffffffffffffffffffffffffffff\n  mul\n  not\n  and\n  swap1\n  dup4\n  0xffffffffffffffffffffffffffffffffffffffff\n  and\n  mul\n  or\n  swap1\n  sstore\n  pop\n    /* \"Chapter6/Ex6-9.sol\":336:547  contract Ex6_9 {... */\n  callvalue\n  dup1\n  iszero\n  tag_4\n  jumpi\n  0x00\n  dup1\n  revert\ntag_4:\n  pop\n  jump(tag_5)\ntag_2:\n  dataSize(sub_1)\n  dup1\n  dataOffset(sub_1)\n  dup4\n  codecopy\n  add\n  swap1\n  jump\t// out\ntag_5:\n  dataSize(sub_0)\n  dup1\n  dataOffset(sub_0)\n  0x00\n  codecopy\n  0x00\n  return\nstop\n\nsub_0: assembly {\n        /* \"Chapter6/Ex6-9.sol\":336:547  contract Ex6_9 {... */\n      mstore(0x40, 0x80)\n      callvalue\n      dup1\n      iszero\n      tag_1\n      jumpi\n      0x00\n      dup1\n      revert\n    tag_1:\n      pop\n      jumpi(tag_2, lt(calldatasize, 0x04))\n      shr(0xe0, calldataload(0x00))\n      dup1\n      0x89f915f6\n      eq\n      tag_3\n      jumpi\n    tag_2:\n      0x00\n      dup1\n      revert\n        /* \"Chapter6/Ex6-9.sol\":420:544  function getNumbers() public view returns(uint, uint) {... */\n    tag_3:\n      tag_4\n      tag_5\n      jump\t// in\n    tag_4:\n      mload(0x40)\n      tag_6\n      swap3\n      swap2\n      swap1\n      tag_7\n      jump\t// in\n    tag_6:\n      mload(0x40)\n      dup1\n      swap2\n      sub\n      swap1\n      return\n    tag_5:\n        /* \"Chapter6/Ex6-9.sol\":462:466  uint */\n      0x00\n        /* \"Chapter6/Ex6-9.sol\":468:472  uint */\n      dup1\n        /* \"Chapter6/Ex6-9.sol\":493:503  calculator */\n      0x00\n      dup1\n      sload\n      swap1\n      0x0100\n      exp\n      swap1\n      div\n      0xffffffffffffffffffffffffffffffffffffffff\n      and\n        /* \"Chapter6/Ex6-9.sol\":493:507  calculator.mul */\n      0xffffffffffffffffffffffffffffffffffffffff\n      and\n      0xc8a4ac9c\n        /* \"Chapter6/Ex6-9.sol\":508:509  4 */\n      0x04\n        /* \"Chapter6/Ex6-9.sol\":510:511  5 */\n      0x05\n        /* \"Chapter6/Ex6-9.sol\":493:512  calculator.mul(4,5) */\n      mload(0x40)\n      dup4\n      0xffffffff\n      and\n      0xe0\n      shl\n      dup2\n      mstore\n      0x04\n      add\n      tag_9\n      swap3\n      swap2\n      swap1\n      tag_10\n      jump\t// in\n    tag_9:\n      0x20\n      mload(0x40)\n      dup1\n      dup4\n      sub\n      dup2\n      dup7\n      gas\n      staticcall\n      iszero\n      dup1\n      iszero\n      tag_12\n      jumpi\n      returndatasize\n      0x00\n      dup1\n      returndatacopy\n      revert(0x00, returndatasize)\n    tag_12:\n      pop\n      pop\n      pop\n      pop\n      mload(0x40)\n      returndatasize\n      not(0x1f)\n      0x1f\n      dup3\n      add\n      and\n      dup3\n      add\n      dup1\n      0x40\n      mstore\n      pop\n      dup2\n      add\n      swap1\n      tag_13\n      swap2\n      swap1\n      tag_14\n      jump\t// in\n    tag_13:\n        /* \"Chapter6/Ex6-9.sol\":514:524  calculator */\n      0x00\n      dup1\n      sload\n      swap1\n      0x0100\n      exp\n      swap1\n      div\n      0xffffffffffffffffffffffffffffffffffffffff\n      and\n        /* \"Chapter6/Ex6-9.sol\":514:528  calculator.mul */\n      0xffffffffffffffffffffffffffffffffffffffff\n      and\n      0xe91cac2d\n        /* \"Chapter6/Ex6-9.sol\":529:530  4 */\n      0x04\n        /* \"Chapter6/Ex6-9.sol\":531:532  5 */\n      0x05\n        /* \"Chapter6/Ex6-9.sol\":533:534  6 */\n      0x06\n        /* \"Chapter6/Ex6-9.sol\":514:535  calculator.mul(4,5,6) */\n      mload(0x40)\n      dup5\n      0xffffffff\n      and\n      0xe0\n      shl\n      dup2\n      mstore\n      0x04\n      add\n      tag_15\n      swap4\n      swap3\n      swap2\n      swap1\n      tag_16\n      jump\t// in\n    tag_15:\n      0x20\n      mload(0x40)\n      dup1\n      dup4\n      sub\n      dup2\n      dup7\n      gas\n      staticcall\n      iszero\n      dup1\n      iszero\n      tag_18\n      jumpi\n      returndatasize\n      0x00\n      dup1\n      returndatacopy\n      revert(0x00, returndatasize)\n    tag_18:\n      pop\n      pop\n      pop\n      pop\n      mload(0x40)\n      returndatasize\n      not(0x1f)\n      0x1f\n      dup3\n      add\n      and\n      dup3\n      add\n      dup1\n      0x40\n      mstore\n      pop\n      dup2\n      add\n      swap1\n      tag_19\n      swap2\n      swap1\n      tag_14\n      jump\t// in\n    tag_19:\n        /* \"Chapter6/Ex6-9.sol\":485:536  return (calculator.mul(4,5), calculator.mul(4,5,6)) */\n      swap2\n      pop\n      swap2\n      pop\n        /* \"Chapter6/Ex6-9.sol\":420:544  function getNumbers() public view returns(uint, uint) {... */\n      swap1\n      swap2\n      jump\t// out\n        /* \"#utility.yul\":7:84   */\n    tag_20:\n        /* \"#utility.yul\":44:51   */\n      0x00\n        /* \"#utility.yul\":73:78   */\n      dup2\n        /* \"#utility.yul\":62:78   */\n      swap1\n      pop\n        /* \"#utility.yul\":7:84   */\n      swap2\n      swap1\n      pop\n      jump\t// out\n        /* \"#utility.yul\":90:208   */\n    tag_21:\n        /* \"#utility.yul\":177:201   */\n      tag_40\n        /* \"#utility.yul\":195:200   */\n      dup2\n        /* \"#utility.yul\":177:201   */\n      tag_20\n      jump\t// in\n    tag_40:\n        /* \"#utility.yul\":172:175   */\n      dup3\n        /* \"#utility.yul\":165:202   */\n      mstore\n        /* \"#utility.yul\":90:208   */\n      pop\n      pop\n      jump\t// out\n        /* \"#utility.yul\":214:546   */\n    tag_7:\n        /* \"#utility.yul\":335:339   */\n      0x00\n        /* \"#utility.yul\":373:375   */\n      0x40\n        /* \"#utility.yul\":362:371   */\n      dup3\n        /* \"#utility.yul\":358:376   */\n      add\n        /* \"#utility.yul\":350:376   */\n      swap1\n      pop\n        /* \"#utility.yul\":386:457   */\n      tag_42\n        /* \"#utility.yul\":454:455   */\n      0x00\n        /* \"#utility.yul\":443:452   */\n      dup4\n        /* \"#utility.yul\":439:456   */\n      add\n        /* \"#utility.yul\":430:436   */\n      dup6\n        /* \"#utility.yul\":386:457   */\n      tag_21\n      jump\t// in\n    tag_42:\n        /* \"#utility.yul\":467:539   */\n      tag_43\n        /* \"#utility.yul\":535:537   */\n      0x20\n        /* \"#utility.yul\":524:533   */\n      dup4\n        /* \"#utility.yul\":520:538   */\n      add\n        /* \"#utility.yul\":511:517   */\n      dup5\n        /* \"#utility.yul\":467:539   */\n      tag_21\n      jump\t// in\n    tag_43:\n        /* \"#utility.yul\":214:546   */\n      swap4\n      swap3\n      pop\n      pop\n      pop\n      jump\t// out\n        /* \"#utility.yul\":552:637   */\n    tag_22:\n        /* \"#utility.yul\":597:604   */\n      0x00\n        /* \"#utility.yul\":626:631   */\n      dup2\n        /* \"#utility.yul\":615:631   */\n      swap1\n      pop\n        /* \"#utility.yul\":552:637   */\n      swap2\n      swap1\n      pop\n      jump\t// out\n        /* \"#utility.yul\":643:703   */\n    tag_23:\n        /* \"#utility.yul\":671:674   */\n      0x00\n        /* \"#utility.yul\":692:697   */\n      dup2\n        /* \"#utility.yul\":685:697   */\n      swap1\n      pop\n        /* \"#utility.yul\":643:703   */\n      swap2\n      swap1\n      pop\n      jump\t// out\n        /* \"#utility.yul\":709:867   */\n    tag_24:\n        /* \"#utility.yul\":767:776   */\n      0x00\n        /* \"#utility.yul\":800:861   */\n      tag_47\n        /* \"#utility.yul\":818:860   */\n      tag_48\n        /* \"#utility.yul\":827:859   */\n      tag_49\n        /* \"#utility.yul\":853:858   */\n      dup5\n        /* \"#utility.yul\":827:859   */\n      tag_22\n      jump\t// in\n    tag_49:\n        /* \"#utility.yul\":818:860   */\n      tag_23\n      jump\t// in\n    tag_48:\n        /* \"#utility.yul\":800:861   */\n      tag_20\n      jump\t// in\n    tag_47:\n        /* \"#utility.yul\":787:861   */\n      swap1\n      pop\n        /* \"#utility.yul\":709:867   */\n      swap2\n      swap1\n      pop\n      jump\t// out\n        /* \"#utility.yul\":873:1020   */\n    tag_25:\n        /* \"#utility.yul\":968:1013   */\n      tag_51\n        /* \"#utility.yul\":1007:1012   */\n      dup2\n        /* \"#utility.yul\":968:1013   */\n      tag_24\n      jump\t// in\n    tag_51:\n        /* \"#utility.yul\":963:966   */\n      dup3\n        /* \"#utility.yul\":956:1014   */\n      mstore\n        /* \"#utility.yul\":873:1020   */\n      pop\n      pop\n      jump\t// out\n        /* \"#utility.yul\":1026:1111   */\n    tag_26:\n        /* \"#utility.yul\":1071:1078   */\n      0x00\n        /* \"#utility.yul\":1100:1105   */\n      dup2\n        /* \"#utility.yul\":1089:1105   */\n      swap1\n      pop\n        /* \"#utility.yul\":1026:1111   */\n      swap2\n      swap1\n      pop\n      jump\t// out\n        /* \"#utility.yul\":1117:1275   */\n    tag_27:\n        /* \"#utility.yul\":1175:1184   */\n      0x00\n        /* \"#utility.yul\":1208:1269   */\n      tag_54\n        /* \"#utility.yul\":1226:1268   */\n      tag_55\n        /* \"#utility.yul\":1235:1267   */\n      tag_56\n        /* \"#utility.yul\":1261:1266   */\n      dup5\n        /* \"#utility.yul\":1235:1267   */\n      tag_26\n      jump\t// in\n    tag_56:\n        /* \"#utility.yul\":1226:1268   */\n      tag_23\n      jump\t// in\n    tag_55:\n        /* \"#utility.yul\":1208:1269   */\n      tag_20\n      jump\t// in\n    tag_54:\n        /* \"#utility.yul\":1195:1269   */\n      swap1\n      pop\n        /* \"#utility.yul\":1117:1275   */\n      swap2\n      swap1\n      pop\n      jump\t// out\n        /* \"#utility.yul\":1281:1428   */\n    tag_28:\n        /* \"#utility.yul\":1376:1421   */\n      tag_58\n        /* \"#utility.yul\":1415:1420   */\n      dup2\n        /* \"#utility.yul\":1376:1421   */\n      tag_27\n      jump\t// in\n    tag_58:\n        /* \"#utility.yul\":1371:1374   */\n      dup3\n        /* \"#utility.yul\":1364:1422   */\n      mstore\n        /* \"#utility.yul\":1281:1428   */\n      pop\n      pop\n      jump\t// out\n        /* \"#utility.yul\":1434:1798   */\n    tag_10:\n        /* \"#utility.yul\":1571:1575   */\n      0x00\n        /* \"#utility.yul\":1609:1611   */\n      0x40\n        /* \"#utility.yul\":1598:1607   */\n      dup3\n        /* \"#utility.yul\":1594:1612   */\n      add\n        /* \"#utility.yul\":1586:1612   */\n      swap1\n      pop\n        /* \"#utility.yul\":1622:1701   */\n      tag_60\n        /* \"#utility.yul\":1698:1699   */\n      0x00\n        /* \"#utility.yul\":1687:1696   */\n      dup4\n        /* \"#utility.yul\":1683:1700   */\n      add\n        /* \"#utility.yul\":1674:1680   */\n      dup6\n        /* \"#utility.yul\":1622:1701   */\n      tag_25\n      jump\t// in\n    tag_60:\n        /* \"#utility.yul\":1711:1791   */\n      tag_61\n        /* \"#utility.yul\":1787:1789   */\n      0x20\n        /* \"#utility.yul\":1776:1785   */\n      dup4\n        /* \"#utility.yul\":1772:1790   */\n      add\n        /* \"#utility.yul\":1763:1769   */\n      dup5\n        /* \"#utility.yul\":1711:1791   */\n      tag_28\n      jump\t// in\n    tag_61:\n        /* \"#utility.yul\":1434:1798   */\n      swap4\n      swap3\n      pop\n      pop\n      pop\n      jump\t// out\n        /* \"#utility.yul\":1885:2002   */\n    tag_30:\n        /* \"#utility.yul\":1994:1995   */\n      0x00\n        /* \"#utility.yul\":1991:1992   */\n      dup1\n        /* \"#utility.yul\":1984:1996   */\n      revert\n        /* \"#utility.yul\":2131:2253   */\n    tag_32:\n        /* \"#utility.yul\":2204:2228   */\n      tag_66\n        /* \"#utility.yul\":2222:2227   */\n      dup2\n        /* \"#utility.yul\":2204:2228   */\n      tag_20\n      jump\t// in\n    tag_66:\n        /* \"#utility.yul\":2197:2202   */\n      dup2\n        /* \"#utility.yul\":2194:2229   */\n      eq\n        /* \"#utility.yul\":2184:2247   */\n      tag_67\n      jumpi\n        /* \"#utility.yul\":2243:2244   */\n      0x00\n        /* \"#utility.yul\":2240:2241   */\n      dup1\n        /* \"#utility.yul\":2233:2245   */\n      revert\n        /* \"#utility.yul\":2184:2247   */\n    tag_67:\n        /* \"#utility.yul\":2131:2253   */\n      pop\n      jump\t// out\n        /* \"#utility.yul\":2259:2402   */\n    tag_33:\n        /* \"#utility.yul\":2316:2321   */\n      0x00\n        /* \"#utility.yul\":2347:2353   */\n      dup2\n        /* \"#utility.yul\":2341:2354   */\n      mload\n        /* \"#utility.yul\":2332:2354   */\n      swap1\n      pop\n        /* \"#utility.yul\":2363:2396   */\n      tag_69\n        /* \"#utility.yul\":2390:2395   */\n      dup2\n        /* \"#utility.yul\":2363:2396   */\n      tag_32\n      jump\t// in\n    tag_69:\n        /* \"#utility.yul\":2259:2402   */\n      swap3\n      swap2\n      pop\n      pop\n      jump\t// out\n        /* \"#utility.yul\":2408:2759   */\n    tag_14:\n        /* \"#utility.yul\":2478:2484   */\n      0x00\n        /* \"#utility.yul\":2527:2529   */\n      0x20\n        /* \"#utility.yul\":2515:2524   */\n      dup3\n        /* \"#utility.yul\":2506:2513   */\n      dup5\n        /* \"#utility.yul\":2502:2525   */\n      sub\n        /* \"#utility.yul\":2498:2530   */\n      slt\n        /* \"#utility.yul\":2495:2614   */\n      iszero\n      tag_71\n      jumpi\n        /* \"#utility.yul\":2533:2612   */\n      tag_72\n      tag_30\n      jump\t// in\n    tag_72:\n        /* \"#utility.yul\":2495:2614   */\n    tag_71:\n        /* \"#utility.yul\":2653:2654   */\n      0x00\n        /* \"#utility.yul\":2678:2742   */\n      tag_73\n        /* \"#utility.yul\":2734:2741   */\n      dup5\n        /* \"#utility.yul\":2725:2731   */\n      dup3\n        /* \"#utility.yul\":2714:2723   */\n      dup6\n        /* \"#utility.yul\":2710:2732   */\n      add\n        /* \"#utility.yul\":2678:2742   */\n      tag_33\n      jump\t// in\n    tag_73:\n        /* \"#utility.yul\":2668:2742   */\n      swap2\n      pop\n        /* \"#utility.yul\":2624:2752   */\n      pop\n        /* \"#utility.yul\":2408:2759   */\n      swap3\n      swap2\n      pop\n      pop\n      jump\t// out\n        /* \"#utility.yul\":2765:2850   */\n    tag_34:\n        /* \"#utility.yul\":2810:2817   */\n      0x00\n        /* \"#utility.yul\":2839:2844   */\n      dup2\n        /* \"#utility.yul\":2828:2844   */\n      swap1\n      pop\n        /* \"#utility.yul\":2765:2850   */\n      swap2\n      swap1\n      pop\n      jump\t// out\n        /* \"#utility.yul\":2856:3014   */\n    tag_35:\n        /* \"#utility.yul\":2914:2923   */\n      0x00\n        /* \"#utility.yul\":2947:3008   */\n      tag_76\n        /* \"#utility.yul\":2965:3007   */\n      tag_77\n        /* \"#utility.yul\":2974:3006   */\n      tag_78\n        /* \"#utility.yul\":3000:3005   */\n      dup5\n        /* \"#utility.yul\":2974:3006   */\n      tag_34\n      jump\t// in\n    tag_78:\n        /* \"#utility.yul\":2965:3007   */\n      tag_23\n      jump\t// in\n    tag_77:\n        /* \"#utility.yul\":2947:3008   */\n      tag_20\n      jump\t// in\n    tag_76:\n        /* \"#utility.yul\":2934:3008   */\n      swap1\n      pop\n        /* \"#utility.yul\":2856:3014   */\n      swap2\n      swap1\n      pop\n      jump\t// out\n        /* \"#utility.yul\":3020:3167   */\n    tag_36:\n        /* \"#utility.yul\":3115:3160   */\n      tag_80\n        /* \"#utility.yul\":3154:3159   */\n      dup2\n        /* \"#utility.yul\":3115:3160   */\n      tag_35\n      jump\t// in\n    tag_80:\n        /* \"#utility.yul\":3110:3113   */\n      dup3\n        /* \"#utility.yul\":3103:3161   */\n      mstore\n        /* \"#utility.yul\":3020:3167   */\n      pop\n      pop\n      jump\t// out\n        /* \"#utility.yul\":3173:3663   */\n    tag_16:\n        /* \"#utility.yul\":3346:3350   */\n      0x00\n        /* \"#utility.yul\":3384:3386   */\n      0x60\n        /* \"#utility.yul\":3373:3382   */\n      dup3\n        /* \"#utility.yul\":3369:3387   */\n      add\n        /* \"#utility.yul\":3361:3387   */\n      swap1\n      pop\n        /* \"#utility.yul\":3397:3476   */\n      tag_82\n        /* \"#utility.yul\":3473:3474   */\n      0x00\n        /* \"#utility.yul\":3462:3471   */\n      dup4\n        /* \"#utility.yul\":3458:3475   */\n      add\n        /* \"#utility.yul\":3449:3455   */\n      dup7\n        /* \"#utility.yul\":3397:3476   */\n      tag_25\n      jump\t// in\n    tag_82:\n        /* \"#utility.yul\":3486:3566   */\n      tag_83\n        /* \"#utility.yul\":3562:3564   */\n      0x20\n        /* \"#utility.yul\":3551:3560   */\n      dup4\n        /* \"#utility.yul\":3547:3565   */\n      add\n        /* \"#utility.yul\":3538:3544   */\n      dup6\n        /* \"#utility.yul\":3486:3566   */\n      tag_28\n      jump\t// in\n    tag_83:\n        /* \"#utility.yul\":3576:3656   */\n      tag_84\n        /* \"#utility.yul\":3652:3654   */\n      0x40\n        /* \"#utility.yul\":3641:3650   */\n      dup4\n        /* \"#utility.yul\":3637:3655   */\n      add\n        /* \"#utility.yul\":3628:3634   */\n      dup5\n        /* \"#utility.yul\":3576:3656   */\n      tag_36\n      jump\t// in\n    tag_84:\n        /* \"#utility.yul\":3173:3663   */\n      swap5\n      swap4\n      pop\n      pop\n      pop\n      pop\n      jump\t// out\n\n    auxdata: 0xa26469706673582212200a6ad6470cb94c2a896b583909abd0bcb32e1cd8b6dea1f2c0f7cb6902db3e8c64736f6c63430008120033\n}\n\nsub_1: assembly {\n        /* \"Chapter6/Ex6-9.sol\":67:332  contract Calculator {... */\n      mstore(0x40, 0x80)\n      callvalue\n      dup1\n      iszero\n      tag_1\n      jumpi\n      0x00\n      dup1\n      revert\n    tag_1:\n      pop\n      dataSize(sub_0)\n      dup1\n      dataOffset(sub_0)\n      0x00\n      codecopy\n      0x00\n      return\n    stop\n\n    sub_0: assembly {\n            /* \"Chapter6/Ex6-9.sol\":67:332  contract Calculator {... */\n          mstore(0x40, 0x80)\n          callvalue\n          dup1\n          iszero\n          tag_1\n          jumpi\n          0x00\n          dup1\n          revert\n        tag_1:\n          pop\n          jumpi(tag_2, lt(calldatasize, 0x04))\n          shr(0xe0, calldataload(0x00))\n          dup1\n          0xc8a4ac9c\n          eq\n          tag_3\n          jumpi\n          dup1\n          0xe91cac2d\n          eq\n          tag_4\n          jumpi\n        tag_2:\n          0x00\n          dup1\n          revert\n            /* \"Chapter6/Ex6-9.sol\":96:198  function mul(uint _num1, uint _num2) public pure returns(uint) {... */\n        tag_3:\n          tag_5\n          0x04\n          dup1\n          calldatasize\n          sub\n          dup2\n          add\n          swap1\n          tag_6\n          swap2\n          swap1\n          tag_7\n          jump\t// in\n        tag_6:\n          tag_8\n          jump\t// in\n        tag_5:\n          mload(0x40)\n          tag_9\n          swap2\n          swap1\n          tag_10\n          jump\t// in\n        tag_9:\n          mload(0x40)\n          dup1\n          swap2\n          sub\n          swap1\n          return\n            /* \"Chapter6/Ex6-9.sol\":207:329  function mul(uint _num1, uint _num2, uint _num3) public pure returns(uint) {... */\n        tag_4:\n          tag_11\n          0x04\n          dup1\n          calldatasize\n          sub\n          dup2\n          add\n          swap1\n          tag_12\n          swap2\n          swap1\n          tag_13\n          jump\t// in\n        tag_12:\n          tag_14\n          jump\t// in\n        tag_11:\n          mload(0x40)\n          tag_15\n          swap2\n          swap1\n          tag_10\n          jump\t// in\n        tag_15:\n          mload(0x40)\n          dup1\n          swap2\n          sub\n          swap1\n          return\n            /* \"Chapter6/Ex6-9.sol\":96:198  function mul(uint _num1, uint _num2) public pure returns(uint) {... */\n        tag_8:\n            /* \"Chapter6/Ex6-9.sol\":153:157  uint */\n          0x00\n            /* \"Chapter6/Ex6-9.sol\":185:190  _num2 */\n          dup2\n            /* \"Chapter6/Ex6-9.sol\":177:182  _num1 */\n          dup4\n            /* \"Chapter6/Ex6-9.sol\":177:190  _num1 * _num2 */\n          tag_17\n          swap2\n          swap1\n          tag_18\n          jump\t// in\n        tag_17:\n            /* \"Chapter6/Ex6-9.sol\":170:190  return _num1 * _num2 */\n          swap1\n          pop\n            /* \"Chapter6/Ex6-9.sol\":96:198  function mul(uint _num1, uint _num2) public pure returns(uint) {... */\n          swap3\n          swap2\n          pop\n          pop\n          jump\t// out\n            /* \"Chapter6/Ex6-9.sol\":207:329  function mul(uint _num1, uint _num2, uint _num3) public pure returns(uint) {... */\n        tag_14:\n            /* \"Chapter6/Ex6-9.sol\":276:280  uint */\n          0x00\n            /* \"Chapter6/Ex6-9.sol\":316:321  _num3 */\n          dup2\n            /* \"Chapter6/Ex6-9.sol\":308:313  _num2 */\n          dup4\n            /* \"Chapter6/Ex6-9.sol\":300:305  _num1 */\n          dup6\n            /* \"Chapter6/Ex6-9.sol\":300:313  _num1 * _num2 */\n          tag_20\n          swap2\n          swap1\n          tag_18\n          jump\t// in\n        tag_20:\n            /* \"Chapter6/Ex6-9.sol\":300:321  _num1 * _num2 * _num3 */\n          tag_21\n          swap2\n          swap1\n          tag_18\n          jump\t// in\n        tag_21:\n            /* \"Chapter6/Ex6-9.sol\":293:321  return _num1 * _num2 * _num3 */\n          swap1\n          pop\n            /* \"Chapter6/Ex6-9.sol\":207:329  function mul(uint _num1, uint _num2, uint _num3) public pure returns(uint) {... */\n          swap4\n          swap3\n          pop\n          pop\n          pop\n          jump\t// out\n            /* \"#utility.yul\":88:205   */\n        tag_23:\n            /* \"#utility.yul\":197:198   */\n          0x00\n            /* \"#utility.yul\":194:195   */\n          dup1\n            /* \"#utility.yul\":187:199   */\n          revert\n            /* \"#utility.yul\":334:411   */\n        tag_25:\n            /* \"#utility.yul\":371:378   */\n          0x00\n            /* \"#utility.yul\":400:405   */\n          dup2\n            /* \"#utility.yul\":389:405   */\n          swap1\n          pop\n            /* \"#utility.yul\":334:411   */\n          swap2\n          swap1\n          pop\n          jump\t// out\n            /* \"#utility.yul\":417:539   */\n        tag_26:\n            /* \"#utility.yul\":490:514   */\n          tag_36\n            /* \"#utility.yul\":508:513   */\n          dup2\n            /* \"#utility.yul\":490:514   */\n          tag_25\n          jump\t// in\n        tag_36:\n            /* \"#utility.yul\":483:488   */\n          dup2\n            /* \"#utility.yul\":480:515   */\n          eq\n            /* \"#utility.yul\":470:533   */\n          tag_37\n          jumpi\n            /* \"#utility.yul\":529:530   */\n          0x00\n            /* \"#utility.yul\":526:527   */\n          dup1\n            /* \"#utility.yul\":519:531   */\n          revert\n            /* \"#utility.yul\":470:533   */\n        tag_37:\n            /* \"#utility.yul\":417:539   */\n          pop\n          jump\t// out\n            /* \"#utility.yul\":545:684   */\n        tag_27:\n            /* \"#utility.yul\":591:596   */\n          0x00\n            /* \"#utility.yul\":629:635   */\n          dup2\n            /* \"#utility.yul\":616:636   */\n          calldataload\n            /* \"#utility.yul\":607:636   */\n          swap1\n          pop\n            /* \"#utility.yul\":645:678   */\n          tag_39\n            /* \"#utility.yul\":672:677   */\n          dup2\n            /* \"#utility.yul\":645:678   */\n          tag_26\n          jump\t// in\n        tag_39:\n            /* \"#utility.yul\":545:684   */\n          swap3\n          swap2\n          pop\n          pop\n          jump\t// out\n            /* \"#utility.yul\":690:1164   */\n        tag_7:\n            /* \"#utility.yul\":758:764   */\n          0x00\n            /* \"#utility.yul\":766:772   */\n          dup1\n            /* \"#utility.yul\":815:817   */\n          0x40\n            /* \"#utility.yul\":803:812   */\n          dup4\n            /* \"#utility.yul\":794:801   */\n          dup6\n            /* \"#utility.yul\":790:813   */\n          sub\n            /* \"#utility.yul\":786:818   */\n          slt\n            /* \"#utility.yul\":783:902   */\n          iszero\n          tag_41\n          jumpi\n            /* \"#utility.yul\":821:900   */\n          tag_42\n          tag_23\n          jump\t// in\n        tag_42:\n            /* \"#utility.yul\":783:902   */\n        tag_41:\n            /* \"#utility.yul\":941:942   */\n          0x00\n            /* \"#utility.yul\":966:1019   */\n          tag_43\n            /* \"#utility.yul\":1011:1018   */\n          dup6\n            /* \"#utility.yul\":1002:1008   */\n          dup3\n            /* \"#utility.yul\":991:1000   */\n          dup7\n            /* \"#utility.yul\":987:1009   */\n          add\n            /* \"#utility.yul\":966:1019   */\n          tag_27\n          jump\t// in\n        tag_43:\n            /* \"#utility.yul\":956:1019   */\n          swap3\n          pop\n            /* \"#utility.yul\":912:1029   */\n          pop\n            /* \"#utility.yul\":1068:1070   */\n          0x20\n            /* \"#utility.yul\":1094:1147   */\n          tag_44\n            /* \"#utility.yul\":1139:1146   */\n          dup6\n            /* \"#utility.yul\":1130:1136   */\n          dup3\n            /* \"#utility.yul\":1119:1128   */\n          dup7\n            /* \"#utility.yul\":1115:1137   */\n          add\n            /* \"#utility.yul\":1094:1147   */\n          tag_27\n          jump\t// in\n        tag_44:\n            /* \"#utility.yul\":1084:1147   */\n          swap2\n          pop\n            /* \"#utility.yul\":1039:1157   */\n          pop\n            /* \"#utility.yul\":690:1164   */\n          swap3\n          pop\n          swap3\n          swap1\n          pop\n          jump\t// out\n            /* \"#utility.yul\":1170:1288   */\n        tag_28:\n            /* \"#utility.yul\":1257:1281   */\n          tag_46\n            /* \"#utility.yul\":1275:1280   */\n          dup2\n            /* \"#utility.yul\":1257:1281   */\n          tag_25\n          jump\t// in\n        tag_46:\n            /* \"#utility.yul\":1252:1255   */\n          dup3\n            /* \"#utility.yul\":1245:1282   */\n          mstore\n            /* \"#utility.yul\":1170:1288   */\n          pop\n          pop\n          jump\t// out\n            /* \"#utility.yul\":1294:1516   */\n        tag_10:\n            /* \"#utility.yul\":1387:1391   */\n          0x00\n            /* \"#utility.yul\":1425:1427   */\n          0x20\n            /* \"#utility.yul\":1414:1423   */\n          dup3\n            /* \"#utility.yul\":1410:1428   */\n          add\n            /* \"#utility.yul\":1402:1428   */\n          swap1\n          pop\n            /* \"#utility.yul\":1438:1509   */\n          tag_48\n            /* \"#utility.yul\":1506:1507   */\n          0x00\n            /* \"#utility.yul\":1495:1504   */\n          dup4\n            /* \"#utility.yul\":1491:1508   */\n          add\n            /* \"#utility.yul\":1482:1488   */\n          dup5\n            /* \"#utility.yul\":1438:1509   */\n          tag_28\n          jump\t// in\n        tag_48:\n            /* \"#utility.yul\":1294:1516   */\n          swap3\n          swap2\n          pop\n          pop\n          jump\t// out\n            /* \"#utility.yul\":1522:2141   */\n        tag_13:\n            /* \"#utility.yul\":1599:1605   */\n          0x00\n            /* \"#utility.yul\":1607:1613   */\n          dup1\n            /* \"#utility.yul\":1615:1621   */\n          0x00\n            /* \"#utility.yul\":1664:1666   */\n          0x60\n            /* \"#utility.yul\":1652:1661   */\n          dup5\n            /* \"#utility.yul\":1643:1650   */\n          dup7\n            /* \"#utility.yul\":1639:1662   */\n          sub\n            /* \"#utility.yul\":1635:1667   */\n          slt\n            /* \"#utility.yul\":1632:1751   */\n          iszero\n          tag_50\n          jumpi\n            /* \"#utility.yul\":1670:1749   */\n          tag_51\n          tag_23\n          jump\t// in\n        tag_51:\n            /* \"#utility.yul\":1632:1751   */\n        tag_50:\n            /* \"#utility.yul\":1790:1791   */\n          0x00\n            /* \"#utility.yul\":1815:1868   */\n          tag_52\n            /* \"#utility.yul\":1860:1867   */\n          dup7\n            /* \"#utility.yul\":1851:1857   */\n          dup3\n            /* \"#utility.yul\":1840:1849   */\n          dup8\n            /* \"#utility.yul\":1836:1858   */\n          add\n            /* \"#utility.yul\":1815:1868   */\n          tag_27\n          jump\t// in\n        tag_52:\n            /* \"#utility.yul\":1805:1868   */\n          swap4\n          pop\n            /* \"#utility.yul\":1761:1878   */\n          pop\n            /* \"#utility.yul\":1917:1919   */\n          0x20\n            /* \"#utility.yul\":1943:1996   */\n          tag_53\n            /* \"#utility.yul\":1988:1995   */\n          dup7\n            /* \"#utility.yul\":1979:1985   */\n          dup3\n            /* \"#utility.yul\":1968:1977   */\n          dup8\n            /* \"#utility.yul\":1964:1986   */\n          add\n            /* \"#utility.yul\":1943:1996   */\n          tag_27\n          jump\t// in\n        tag_53:\n            /* \"#utility.yul\":1933:1996   */\n          swap3\n          pop\n            /* \"#utility.yul\":1888:2006   */\n          pop\n            /* \"#utility.yul\":2045:2047   */\n          0x40\n            /* \"#utility.yul\":2071:2124   */\n          tag_54\n            /* \"#utility.yul\":2116:2123   */\n          dup7\n            /* \"#utility.yul\":2107:2113   */\n          dup3\n            /* \"#utility.yul\":2096:2105   */\n          dup8\n            /* \"#utility.yul\":2092:2114   */\n          add\n            /* \"#utility.yul\":2071:2124   */\n          tag_27\n          jump\t// in\n        tag_54:\n            /* \"#utility.yul\":2061:2124   */\n          swap2\n          pop\n            /* \"#utility.yul\":2016:2134   */\n          pop\n            /* \"#utility.yul\":1522:2141   */\n          swap3\n          pop\n          swap3\n          pop\n          swap3\n          jump\t// out\n            /* \"#utility.yul\":2147:2327   */\n        tag_29:\n            /* \"#utility.yul\":2195:2272   */\n          0x4e487b7100000000000000000000000000000000000000000000000000000000\n            /* \"#utility.yul\":2192:2193   */\n          0x00\n            /* \"#utility.yul\":2185:2273   */\n          mstore\n            /* \"#utility.yul\":2292:2296   */\n          0x11\n            /* \"#utility.yul\":2289:2290   */\n          0x04\n            /* \"#utility.yul\":2282:2297   */\n          mstore\n            /* \"#utility.yul\":2316:2320   */\n          0x24\n            /* \"#utility.yul\":2313:2314   */\n          0x00\n            /* \"#utility.yul\":2306:2321   */\n          revert\n            /* \"#utility.yul\":2333:2743   */\n        tag_18:\n            /* \"#utility.yul\":2373:2380   */\n          0x00\n            /* \"#utility.yul\":2396:2416   */\n          tag_57\n            /* \"#utility.yul\":2414:2415   */\n          dup3\n            /* \"#utility.yul\":2396:2416   */\n          tag_25\n          jump\t// in\n        tag_57:\n            /* \"#utility.yul\":2391:2416   */\n          swap2\n          pop\n            /* \"#utility.yul\":2430:2450   */\n          tag_58\n            /* \"#utility.yul\":2448:2449   */\n          dup4\n            /* \"#utility.yul\":2430:2450   */\n          tag_25\n          jump\t// in\n        tag_58:\n            /* \"#utility.yul\":2425:2450   */\n          swap3\n          pop\n            /* \"#utility.yul\":2485:2486   */\n          dup3\n            /* \"#utility.yul\":2482:2483   */\n          dup3\n            /* \"#utility.yul\":2478:2487   */\n          mul\n            /* \"#utility.yul\":2507:2537   */\n          tag_59\n            /* \"#utility.yul\":2525:2536   */\n          dup2\n            /* \"#utility.yul\":2507:2537   */\n          tag_25\n          jump\t// in\n        tag_59:\n            /* \"#utility.yul\":2496:2537   */\n          swap2\n          pop\n            /* \"#utility.yul\":2686:2687   */\n          dup3\n            /* \"#utility.yul\":2677:2684   */\n          dup3\n            /* \"#utility.yul\":2673:2688   */\n          div\n            /* \"#utility.yul\":2670:2671   */\n          dup5\n            /* \"#utility.yul\":2667:2689   */\n          eq\n            /* \"#utility.yul\":2647:2648   */\n          dup4\n            /* \"#utility.yul\":2640:2649   */\n          iszero\n            /* \"#utility.yul\":2620:2703   */\n          or\n            /* \"#utility.yul\":2597:2736   */\n          tag_60\n          jumpi\n            /* \"#utility.yul\":2716:2734   */\n          tag_61\n          tag_29\n          jump\t// in\n        tag_61:\n            /* \"#utility.yul\":2597:2736   */\n        tag_60:\n            /* \"#utility.yul\":2381:2743   */\n          pop\n            /* \"#utility.yul\":2333:2743   */\n          swap3\n          swap2\n          pop\n          pop\n          jump\t// out\n\n        auxdata: 0xa26469706673582212206286b972dc0c4db4a3bbfcf1270c2524f991a55ab46212a1ed3c3de000e7cfd964736f6c63430008120033\n    }\n}\n",
				"bytecode": {
					"linkReferences": {},
					"object": "60806040526040516100109061007e565b604051809103906000f08015801561002c573d6000803e3d6000fd5b506000806101000a81548173ffffffffffffffffffffffffffffffffffffffff021916908373ffffffffffffffffffffffffffffffffffffffff16021790555034801561007857600080fd5b5061008b565b6102928061042483390190565b61038a8061009a6000396000f3fe608060405234801561001057600080fd5b506004361061002b5760003560e01c806389f915f614610030575b600080fd5b61003861004f565b6040516100469291906101b2565b60405180910390f35b60008060008054906101000a900473ffffffffffffffffffffffffffffffffffffffff1673ffffffffffffffffffffffffffffffffffffffff1663c8a4ac9c600460056040518363ffffffff1660e01b81526004016100af92919061025b565b602060405180830381865afa1580156100cc573d6000803e3d6000fd5b505050506040513d601f19601f820116820180604052508101906100f091906102b5565b60008054906101000a900473ffffffffffffffffffffffffffffffffffffffff1673ffffffffffffffffffffffffffffffffffffffff1663e91cac2d6004600560066040518463ffffffff1660e01b81526004016101509392919061031d565b602060405180830381865afa15801561016d573d6000803e3d6000fd5b505050506040513d601f19601f8201168201806040525081019061019191906102b5565b915091509091565b6000819050919050565b6101ac81610199565b82525050565b60006040820190506101c760008301856101a3565b6101d460208301846101a3565b9392505050565b6000819050919050565b6000819050919050565b600061020a610205610200846101db565b6101e5565b610199565b9050919050565b61021a816101ef565b82525050565b6000819050919050565b600061024561024061023b84610220565b6101e5565b610199565b9050919050565b6102558161022a565b82525050565b60006040820190506102706000830185610211565b61027d602083018461024c565b9392505050565b600080fd5b61029281610199565b811461029d57600080fd5b50565b6000815190506102af81610289565b92915050565b6000602082840312156102cb576102ca610284565b5b60006102d9848285016102a0565b91505092915050565b6000819050919050565b60006103076103026102fd846102e2565b6101e5565b610199565b9050919050565b610317816102ec565b82525050565b60006060820190506103326000830186610211565b61033f602083018561024c565b61034c604083018461030e565b94935050505056fea26469706673582212200a6ad6470cb94c2a896b583909abd0bcb32e1cd8b6dea1f2c0f7cb6902db3e8c64736f6c63430008120033608060405234801561001057600080fd5b50610272806100206000396000f3fe608060405234801561001057600080fd5b50600436106100365760003560e01c8063c8a4ac9c1461003b578063e91cac2d1461006b575b600080fd5b6100556004803603810190610050919061010e565b61009b565b604051610062919061015d565b60405180910390f35b61008560048036038101906100809190610178565b6100b1565b604051610092919061015d565b60405180910390f35b600081836100a991906101fa565b905092915050565b60008183856100c091906101fa565b6100ca91906101fa565b90509392505050565b600080fd5b6000819050919050565b6100eb816100d8565b81146100f657600080fd5b50565b600081359050610108816100e2565b92915050565b60008060408385031215610125576101246100d3565b5b6000610133858286016100f9565b9250506020610144858286016100f9565b9150509250929050565b610157816100d8565b82525050565b6000602082019050610172600083018461014e565b92915050565b600080600060608486031215610191576101906100d3565b5b600061019f868287016100f9565b93505060206101b0868287016100f9565b92505060406101c1868287016100f9565b9150509250925092565b7f4e487b7100000000000000000000000000000000000000000000000000000000600052601160045260246000fd5b6000610205826100d8565b9150610210836100d8565b925082820261021e816100d8565b91508282048414831517610235576102346101cb565b5b509291505056fea26469706673582212206286b972dc0c4db4a3bbfcf1270c2524f991a55ab46212a1ed3c3de000e7cfd964736f6c63430008120033",
					"opcodes": "PUSH1 0x80 PUSH1 0x40 MSTORE PUSH1 0x40 MLOAD PUSH2 0x10 SWAP1 PUSH2 0x7E JUMP JUMPDEST PUSH1 0x40 MLOAD DUP1 SWAP2 SUB SWAP1 PUSH1 0x0 CREATE DUP1 ISZERO DUP1 ISZERO PUSH2 0x2C JUMPI RETURNDATASIZE PUSH1 0x0 DUP1 RETURNDATACOPY RETURNDATASIZE PUSH1 0x0 REVERT JUMPDEST POP PUSH1 0x0 DUP1 PUSH2 0x100 EXP DUP2 SLOAD DUP2 PUSH20 0xFFFFFFFFFFFFFFFFFFFFFFFFFFFFFFFFFFFFFFFF MUL NOT AND SWAP1 DUP4 PUSH20 0xFFFFFFFFFFFFFFFFFFFFFFFFFFFFFFFFFFFFFFFF AND MUL OR SWAP1 SSTORE POP CALLVALUE DUP1 ISZERO PUSH2 0x78 JUMPI PUSH1 0x0 DUP1 REVERT JUMPDEST POP PUSH2 0x8B JUMP JUMPDEST PUSH2 0x292 DUP1 PUSH2 0x424 DUP4 CODECOPY ADD SWAP1 JUMP JUMPDEST PUSH2 0x38A DUP1 PUSH2 0x9A PUSH1 0x0 CODECOPY PUSH1 0x0 RETURN INVALID PUSH1 0x80 PUSH1 0x40 MSTORE CALLVALUE DUP1 ISZERO PUSH2 0x10 JUMPI PUSH1 0x0 DUP1 REVERT JUMPDEST POP PUSH1 0x4 CALLDATASIZE LT PUSH2 0x2B JUMPI PUSH1 0x0 CALLDATALOAD PUSH1 0xE0 SHR DUP1 PUSH4 0x89F915F6 EQ PUSH2 0x30 JUMPI JUMPDEST PUSH1 0x0 DUP1 REVERT JUMPDEST PUSH2 0x38 PUSH2 0x4F JUMP JUMPDEST PUSH1 0x40 MLOAD PUSH2 0x46 SWAP3 SWAP2 SWAP1 PUSH2 0x1B2 JUMP JUMPDEST PUSH1 0x40 MLOAD DUP1 SWAP2 SUB SWAP1 RETURN JUMPDEST PUSH1 0x0 DUP1 PUSH1 0x0 DUP1 SLOAD SWAP1 PUSH2 0x100 EXP SWAP1 DIV PUSH20 0xFFFFFFFFFFFFFFFFFFFFFFFFFFFFFFFFFFFFFFFF AND PUSH20 0xFFFFFFFFFFFFFFFFFFFFFFFFFFFFFFFFFFFFFFFF AND PUSH4 0xC8A4AC9C PUSH1 0x4 PUSH1 0x5 PUSH1 0x40 MLOAD DUP4 PUSH4 0xFFFFFFFF AND PUSH1 0xE0 SHL DUP2 MSTORE PUSH1 0x4 ADD PUSH2 0xAF SWAP3 SWAP2 SWAP1 PUSH2 0x25B JUMP JUMPDEST PUSH1 0x20 PUSH1 0x40 MLOAD DUP1 DUP4 SUB DUP2 DUP7 GAS STATICCALL ISZERO DUP1 ISZERO PUSH2 0xCC JUMPI RETURNDATASIZE PUSH1 0x0 DUP1 RETURNDATACOPY RETURNDATASIZE PUSH1 0x0 REVERT JUMPDEST POP POP POP POP PUSH1 0x40 MLOAD RETURNDATASIZE PUSH1 0x1F NOT PUSH1 0x1F DUP3 ADD AND DUP3 ADD DUP1 PUSH1 0x40 MSTORE POP DUP2 ADD SWAP1 PUSH2 0xF0 SWAP2 SWAP1 PUSH2 0x2B5 JUMP JUMPDEST PUSH1 0x0 DUP1 SLOAD SWAP1 PUSH2 0x100 EXP SWAP1 DIV PUSH20 0xFFFFFFFFFFFFFFFFFFFFFFFFFFFFFFFFFFFFFFFF AND PUSH20 0xFFFFFFFFFFFFFFFFFFFFFFFFFFFFFFFFFFFFFFFF AND PUSH4 0xE91CAC2D PUSH1 0x4 PUSH1 0x5 PUSH1 0x6 PUSH1 0x40 MLOAD DUP5 PUSH4 0xFFFFFFFF AND PUSH1 0xE0 SHL DUP2 MSTORE PUSH1 0x4 ADD PUSH2 0x150 SWAP4 SWAP3 SWAP2 SWAP1 PUSH2 0x31D JUMP JUMPDEST PUSH1 0x20 PUSH1 0x40 MLOAD DUP1 DUP4 SUB DUP2 DUP7 GAS STATICCALL ISZERO DUP1 ISZERO PUSH2 0x16D JUMPI RETURNDATASIZE PUSH1 0x0 DUP1 RETURNDATACOPY RETURNDATASIZE PUSH1 0x0 REVERT JUMPDEST POP POP POP POP PUSH1 0x40 MLOAD RETURNDATASIZE PUSH1 0x1F NOT PUSH1 0x1F DUP3 ADD AND DUP3 ADD DUP1 PUSH1 0x40 MSTORE POP DUP2 ADD SWAP1 PUSH2 0x191 SWAP2 SWAP1 PUSH2 0x2B5 JUMP JUMPDEST SWAP2 POP SWAP2 POP SWAP1 SWAP2 JUMP JUMPDEST PUSH1 0x0 DUP2 SWAP1 POP SWAP2 SWAP1 POP JUMP JUMPDEST PUSH2 0x1AC DUP2 PUSH2 0x199 JUMP JUMPDEST DUP3 MSTORE POP POP JUMP JUMPDEST PUSH1 0x0 PUSH1 0x40 DUP3 ADD SWAP1 POP PUSH2 0x1C7 PUSH1 0x0 DUP4 ADD DUP6 PUSH2 0x1A3 JUMP JUMPDEST PUSH2 0x1D4 PUSH1 0x20 DUP4 ADD DUP5 PUSH2 0x1A3 JUMP JUMPDEST SWAP4 SWAP3 POP POP POP JUMP JUMPDEST PUSH1 0x0 DUP2 SWAP1 POP SWAP2 SWAP1 POP JUMP JUMPDEST PUSH1 0x0 DUP2 SWAP1 POP SWAP2 SWAP1 POP JUMP JUMPDEST PUSH1 0x0 PUSH2 0x20A PUSH2 0x205 PUSH2 0x200 DUP5 PUSH2 0x1DB JUMP JUMPDEST PUSH2 0x1E5 JUMP JUMPDEST PUSH2 0x199 JUMP JUMPDEST SWAP1 POP SWAP2 SWAP1 POP JUMP JUMPDEST PUSH2 0x21A DUP2 PUSH2 0x1EF JUMP JUMPDEST DUP3 MSTORE POP POP JUMP JUMPDEST PUSH1 0x0 DUP2 SWAP1 POP SWAP2 SWAP1 POP JUMP JUMPDEST PUSH1 0x0 PUSH2 0x245 PUSH2 0x240 PUSH2 0x23B DUP5 PUSH2 0x220 JUMP JUMPDEST PUSH2 0x1E5 JUMP JUMPDEST PUSH2 0x199 JUMP JUMPDEST SWAP1 POP SWAP2 SWAP1 POP JUMP JUMPDEST PUSH2 0x255 DUP2 PUSH2 0x22A JUMP JUMPDEST DUP3 MSTORE POP POP JUMP JUMPDEST PUSH1 0x0 PUSH1 0x40 DUP3 ADD SWAP1 POP PUSH2 0x270 PUSH1 0x0 DUP4 ADD DUP6 PUSH2 0x211 JUMP JUMPDEST PUSH2 0x27D PUSH1 0x20 DUP4 ADD DUP5 PUSH2 0x24C JUMP JUMPDEST SWAP4 SWAP3 POP POP POP JUMP JUMPDEST PUSH1 0x0 DUP1 REVERT JUMPDEST PUSH2 0x292 DUP2 PUSH2 0x199 JUMP JUMPDEST DUP2 EQ PUSH2 0x29D JUMPI PUSH1 0x0 DUP1 REVERT JUMPDEST POP JUMP JUMPDEST PUSH1 0x0 DUP2 MLOAD SWAP1 POP PUSH2 0x2AF DUP2 PUSH2 0x289 JUMP JUMPDEST SWAP3 SWAP2 POP POP JUMP JUMPDEST PUSH1 0x0 PUSH1 0x20 DUP3 DUP5 SUB SLT ISZERO PUSH2 0x2CB JUMPI PUSH2 0x2CA PUSH2 0x284 JUMP JUMPDEST JUMPDEST PUSH1 0x0 PUSH2 0x2D9 DUP5 DUP3 DUP6 ADD PUSH2 0x2A0 JUMP JUMPDEST SWAP2 POP POP SWAP3 SWAP2 POP POP JUMP JUMPDEST PUSH1 0x0 DUP2 SWAP1 POP SWAP2 SWAP1 POP JUMP JUMPDEST PUSH1 0x0 PUSH2 0x307 PUSH2 0x302 PUSH2 0x2FD DUP5 PUSH2 0x2E2 JUMP JUMPDEST PUSH2 0x1E5 JUMP JUMPDEST PUSH2 0x199 JUMP JUMPDEST SWAP1 POP SWAP2 SWAP1 POP JUMP JUMPDEST PUSH2 0x317 DUP2 PUSH2 0x2EC JUMP JUMPDEST DUP3 MSTORE POP POP JUMP JUMPDEST PUSH1 0x0 PUSH1 0x60 DUP3 ADD SWAP1 POP PUSH2 0x332 PUSH1 0x0 DUP4 ADD DUP7 PUSH2 0x211 JUMP JUMPDEST PUSH2 0x33F PUSH1 0x20 DUP4 ADD DUP6 PUSH2 0x24C JUMP JUMPDEST PUSH2 0x34C PUSH1 0x40 DUP4 ADD DUP5 PUSH2 0x30E JUMP JUMPDEST SWAP5 SWAP4 POP POP POP POP JUMP INVALID LOG2 PUSH5 0x6970667358 0x22 SLT KECCAK256 EXP PUSH11 0xD6470CB94C2A896B583909 0xAB 0xD0 0xBC 0xB3 0x2E SHR 0xD8 0xB6 0xDE LOG1 CALLCODE 0xC0 0xF7 0xCB PUSH10 0x2DB3E8C64736F6C6343 STOP ADDMOD SLT STOP CALLER PUSH1 0x80 PUSH1 0x40 MSTORE CALLVALUE DUP1 ISZERO PUSH2 0x10 JUMPI PUSH1 0x0 DUP1 REVERT JUMPDEST POP PUSH2 0x272 DUP1 PUSH2 0x20 PUSH1 0x0 CODECOPY PUSH1 0x0 RETURN INVALID PUSH1 0x80 PUSH1 0x40 MSTORE CALLVALUE DUP1 ISZERO PUSH2 0x10 JUMPI PUSH1 0x0 DUP1 REVERT JUMPDEST POP PUSH1 0x4 CALLDATASIZE LT PUSH2 0x36 JUMPI PUSH1 0x0 CALLDATALOAD PUSH1 0xE0 SHR DUP1 PUSH4 0xC8A4AC9C EQ PUSH2 0x3B JUMPI DUP1 PUSH4 0xE91CAC2D EQ PUSH2 0x6B JUMPI JUMPDEST PUSH1 0x0 DUP1 REVERT JUMPDEST PUSH2 0x55 PUSH1 0x4 DUP1 CALLDATASIZE SUB DUP2 ADD SWAP1 PUSH2 0x50 SWAP2 SWAP1 PUSH2 0x10E JUMP JUMPDEST PUSH2 0x9B JUMP JUMPDEST PUSH1 0x40 MLOAD PUSH2 0x62 SWAP2 SWAP1 PUSH2 0x15D JUMP JUMPDEST PUSH1 0x40 MLOAD DUP1 SWAP2 SUB SWAP1 RETURN JUMPDEST PUSH2 0x85 PUSH1 0x4 DUP1 CALLDATASIZE SUB DUP2 ADD SWAP1 PUSH2 0x80 SWAP2 SWAP1 PUSH2 0x178 JUMP JUMPDEST PUSH2 0xB1 JUMP JUMPDEST PUSH1 0x40 MLOAD PUSH2 0x92 SWAP2 SWAP1 PUSH2 0x15D JUMP JUMPDEST PUSH1 0x40 MLOAD DUP1 SWAP2 SUB SWAP1 RETURN JUMPDEST PUSH1 0x0 DUP2 DUP4 PUSH2 0xA9 SWAP2 SWAP1 PUSH2 0x1FA JUMP JUMPDEST SWAP1 POP SWAP3 SWAP2 POP POP JUMP JUMPDEST PUSH1 0x0 DUP2 DUP4 DUP6 PUSH2 0xC0 SWAP2 SWAP1 PUSH2 0x1FA JUMP JUMPDEST PUSH2 0xCA SWAP2 SWAP1 PUSH2 0x1FA JUMP JUMPDEST SWAP1 POP SWAP4 SWAP3 POP POP POP JUMP JUMPDEST PUSH1 0x0 DUP1 REVERT JUMPDEST PUSH1 0x0 DUP2 SWAP1 POP SWAP2 SWAP1 POP JUMP JUMPDEST PUSH2 0xEB DUP2 PUSH2 0xD8 JUMP JUMPDEST DUP2 EQ PUSH2 0xF6 JUMPI PUSH1 0x0 DUP1 REVERT JUMPDEST POP JUMP JUMPDEST PUSH1 0x0 DUP2 CALLDATALOAD SWAP1 POP PUSH2 0x108 DUP2 PUSH2 0xE2 JUMP JUMPDEST SWAP3 SWAP2 POP POP JUMP JUMPDEST PUSH1 0x0 DUP1 PUSH1 0x40 DUP4 DUP6 SUB SLT ISZERO PUSH2 0x125 JUMPI PUSH2 0x124 PUSH2 0xD3 JUMP JUMPDEST JUMPDEST PUSH1 0x0 PUSH2 0x133 DUP6 DUP3 DUP7 ADD PUSH2 0xF9 JUMP JUMPDEST SWAP3 POP POP PUSH1 0x20 PUSH2 0x144 DUP6 DUP3 DUP7 ADD PUSH2 0xF9 JUMP JUMPDEST SWAP2 POP POP SWAP3 POP SWAP3 SWAP1 POP JUMP JUMPDEST PUSH2 0x157 DUP2 PUSH2 0xD8 JUMP JUMPDEST DUP3 MSTORE POP POP JUMP JUMPDEST PUSH1 0x0 PUSH1 0x20 DUP3 ADD SWAP1 POP PUSH2 0x172 PUSH1 0x0 DUP4 ADD DUP5 PUSH2 0x14E JUMP JUMPDEST SWAP3 SWAP2 POP POP JUMP JUMPDEST PUSH1 0x0 DUP1 PUSH1 0x0 PUSH1 0x60 DUP5 DUP7 SUB SLT ISZERO PUSH2 0x191 JUMPI PUSH2 0x190 PUSH2 0xD3 JUMP JUMPDEST JUMPDEST PUSH1 0x0 PUSH2 0x19F DUP7 DUP3 DUP8 ADD PUSH2 0xF9 JUMP JUMPDEST SWAP4 POP POP PUSH1 0x20 PUSH2 0x1B0 DUP7 DUP3 DUP8 ADD PUSH2 0xF9 JUMP JUMPDEST SWAP3 POP POP PUSH1 0x40 PUSH2 0x1C1 DUP7 DUP3 DUP8 ADD PUSH2 0xF9 JUMP JUMPDEST SWAP2 POP POP SWAP3 POP SWAP3 POP SWAP3 JUMP JUMPDEST PUSH32 0x4E487B7100000000000000000000000000000000000000000000000000000000 PUSH1 0x0 MSTORE PUSH1 0x11 PUSH1 0x4 MSTORE PUSH1 0x24 PUSH1 0x0 REVERT JUMPDEST PUSH1 0x0 PUSH2 0x205 DUP3 PUSH2 0xD8 JUMP JUMPDEST SWAP2 POP PUSH2 0x210 DUP4 PUSH2 0xD8 JUMP JUMPDEST SWAP3 POP DUP3 DUP3 MUL PUSH2 0x21E DUP2 PUSH2 0xD8 JUMP JUMPDEST SWAP2 POP DUP3 DUP3 DIV DUP5 EQ DUP4 ISZERO OR PUSH2 0x235 JUMPI PUSH2 0x234 PUSH2 0x1CB JUMP JUMPDEST JUMPDEST POP SWAP3 SWAP2 POP POP JUMP INVALID LOG2 PUSH5 0x6970667358 0x22 SLT KECCAK256 PUSH3 0x86B972 0xDC 0xC 0x4D 0xB4 LOG3 0xBB 0xFC CALL 0x27 0xC 0x25 0x24 0xF9 SWAP2 0xA5 GAS 0xB4 PUSH3 0x12A1ED EXTCODECOPY RETURNDATASIZE 0xE0 STOP 0xE7 0xCF 0xD9 PUSH5 0x736F6C6343 STOP ADDMOD SLT STOP CALLER "
				},
				"gasEstimates": {
					"creation": {
						"codeDepositCost": "181200",
						"executionCost": "infinite",
						"totalCost": "infinite"
					},
					"external": {
						"getNumbers()": "infinite"
					}
				},
				"methodIdentifiers": {
					"getNumbers()": "89f915f6"
				}
			},
			"storageLayout": {
				"storage": [
					{
						"astId": 41,
						"contract": "Chapter6/Ex6-9.sol:Ex6_9",
						"label": "calculator",
						"offset": 0,
						"slot": "0",
						"type": "t_contract(Calculator)34"
					}
				],
				"types": {
					"t_contract(Calculator)34": {
						"encoding": "inplace",
						"label": "contract Calculator",
						"numberOfBytes": "20"
					}
				}
			},
			"userdoc": {
				"kind": "user",
				"methods": {},
				"version": 1
			}
		}
	}
}