{
	"Chapter7/Ex7-2.sol": {
		"Ex7_2": {
			"abi": [
				{
					"inputs": [
						{
							"internalType": "uint256",
							"name": "_num",
							"type": "uint256"
						}
					],
					"name": "runRequire",
					"outputs": [
						{
							"internalType": "uint256",
							"name": "",
							"type": "uint256"
						}
					],
					"stateMutability": "pure",
					"type": "function"
				},
				{
					"inputs": [
						{
							"internalType": "uint256",
							"name": "_num",
							"type": "uint256"
						}
					],
					"name": "runRevert",
					"outputs": [
						{
							"internalType": "uint256",
							"name": "",
							"type": "uint256"
						}
					],
					"stateMutability": "pure",
					"type": "function"
				}
			],
			"devdoc": {
				"kind": "dev",
				"methods": {},
				"version": 1
			},
			"evm": {
				"assembly": "    /* \"Chapter7/Ex7-2.sol\":67:444  contract Ex7_2 {... */\n  mstore(0x40, 0x80)\n  callvalue\n  dup1\n  iszero\n  tag_1\n  jumpi\n  0x00\n  dup1\n  revert\ntag_1:\n  pop\n  dataSize(sub_0)\n  dup1\n  dataOffset(sub_0)\n  0x00\n  codecopy\n  0x00\n  return\nstop\n\nsub_0: assembly {\n        /* \"Chapter7/Ex7-2.sol\":67:444  contract Ex7_2 {... */\n      mstore(0x40, 0x80)\n      callvalue\n      dup1\n      iszero\n      tag_1\n      jumpi\n      0x00\n      dup1\n      revert\n    tag_1:\n      pop\n      jumpi(tag_2, lt(calldatasize, 0x04))\n      shr(0xe0, calldataload(0x00))\n      dup1\n      0xa0c6ea13\n      eq\n      tag_3\n      jumpi\n      dup1\n      0xcd95d0cc\n      eq\n      tag_4\n      jumpi\n    tag_2:\n      0x00\n      dup1\n      revert\n        /* \"Chapter7/Ex7-2.sol\":91:275  function runRevert(uint _num) public pure returns(uint) {... */\n    tag_3:\n      tag_5\n      0x04\n      dup1\n      calldatasize\n      sub\n      dup2\n      add\n      swap1\n      tag_6\n      swap2\n      swap1\n      tag_7\n      jump\t// in\n    tag_6:\n      tag_8\n      jump\t// in\n    tag_5:\n      mload(0x40)\n      tag_9\n      swap2\n      swap1\n      tag_10\n      jump\t// in\n    tag_9:\n      mload(0x40)\n      dup1\n      swap2\n      sub\n      swap1\n      return\n        /* \"Chapter7/Ex7-2.sol\":283:441  function runRequire(uint _num) public pure returns(uint) {... */\n    tag_4:\n      tag_11\n      0x04\n      dup1\n      calldatasize\n      sub\n      dup2\n      add\n      swap1\n      tag_12\n      swap2\n      swap1\n      tag_7\n      jump\t// in\n    tag_12:\n      tag_13\n      jump\t// in\n    tag_11:\n      mload(0x40)\n      tag_14\n      swap2\n      swap1\n      tag_10\n      jump\t// in\n    tag_14:\n      mload(0x40)\n      dup1\n      swap2\n      sub\n      swap1\n      return\n        /* \"Chapter7/Ex7-2.sol\":91:275  function runRevert(uint _num) public pure returns(uint) {... */\n    tag_8:\n        /* \"Chapter7/Ex7-2.sol\":141:145  uint */\n      0x00\n        /* \"Chapter7/Ex7-2.sol\":168:169  3 */\n      0x03\n        /* \"Chapter7/Ex7-2.sol\":161:165  _num */\n      dup3\n        /* \"Chapter7/Ex7-2.sol\":161:169  _num <=3 */\n      gt\n        /* \"Chapter7/Ex7-2.sol\":158:246  if(_num <=3) {... */\n      tag_16\n      jumpi\n        /* \"Chapter7/Ex7-2.sol\":186:234  revert(\"Revert error: should input more than 3\") */\n      mload(0x40)\n      0x08c379a000000000000000000000000000000000000000000000000000000000\n      dup2\n      mstore\n      0x04\n      add\n      tag_17\n      swap1\n      tag_18\n      jump\t// in\n    tag_17:\n      mload(0x40)\n      dup1\n      swap2\n      sub\n      swap1\n      revert\n        /* \"Chapter7/Ex7-2.sol\":158:246  if(_num <=3) {... */\n    tag_16:\n        /* \"Chapter7/Ex7-2.sol\":263:267  _num */\n      dup2\n        /* \"Chapter7/Ex7-2.sol\":256:267  return _num */\n      swap1\n      pop\n        /* \"Chapter7/Ex7-2.sol\":91:275  function runRevert(uint _num) public pure returns(uint) {... */\n      swap2\n      swap1\n      pop\n      jump\t// out\n        /* \"Chapter7/Ex7-2.sol\":283:441  function runRequire(uint _num) public pure returns(uint) {... */\n    tag_13:\n        /* \"Chapter7/Ex7-2.sol\":334:338  uint */\n      0x00\n        /* \"Chapter7/Ex7-2.sol\":365:366  3 */\n      0x03\n        /* \"Chapter7/Ex7-2.sol\":359:363  _num */\n      dup3\n        /* \"Chapter7/Ex7-2.sol\":359:366  _num >3 */\n      gt\n        /* \"Chapter7/Ex7-2.sol\":351:411  require(_num >3, \"Require error : should input more than 3\") */\n      tag_20\n      jumpi\n      mload(0x40)\n      0x08c379a000000000000000000000000000000000000000000000000000000000\n      dup2\n      mstore\n      0x04\n      add\n      tag_21\n      swap1\n      tag_22\n      jump\t// in\n    tag_21:\n      mload(0x40)\n      dup1\n      swap2\n      sub\n      swap1\n      revert\n    tag_20:\n        /* \"Chapter7/Ex7-2.sol\":429:433  _num */\n      dup2\n        /* \"Chapter7/Ex7-2.sol\":422:433  return _num */\n      swap1\n      pop\n        /* \"Chapter7/Ex7-2.sol\":283:441  function runRequire(uint _num) public pure returns(uint) {... */\n      swap2\n      swap1\n      pop\n      jump\t// out\n        /* \"#utility.yul\":88:205   */\n    tag_24:\n        /* \"#utility.yul\":197:198   */\n      0x00\n        /* \"#utility.yul\":194:195   */\n      dup1\n        /* \"#utility.yul\":187:199   */\n      revert\n        /* \"#utility.yul\":334:411   */\n    tag_26:\n        /* \"#utility.yul\":371:378   */\n      0x00\n        /* \"#utility.yul\":400:405   */\n      dup2\n        /* \"#utility.yul\":389:405   */\n      swap1\n      pop\n        /* \"#utility.yul\":334:411   */\n      swap2\n      swap1\n      pop\n      jump\t// out\n        /* \"#utility.yul\":417:539   */\n    tag_27:\n        /* \"#utility.yul\":490:514   */\n      tag_41\n        /* \"#utility.yul\":508:513   */\n      dup2\n        /* \"#utility.yul\":490:514   */\n      tag_26\n      jump\t// in\n    tag_41:\n        /* \"#utility.yul\":483:488   */\n      dup2\n        /* \"#utility.yul\":480:515   */\n      eq\n        /* \"#utility.yul\":470:533   */\n      tag_42\n      jumpi\n        /* \"#utility.yul\":529:530   */\n      0x00\n        /* \"#utility.yul\":526:527   */\n      dup1\n        /* \"#utility.yul\":519:531   */\n      revert\n        /* \"#utility.yul\":470:533   */\n    tag_42:\n        /* \"#utility.yul\":417:539   */\n      pop\n      jump\t// out\n        /* \"#utility.yul\":545:684   */\n    tag_28:\n        /* \"#utility.yul\":591:596   */\n      0x00\n        /* \"#utility.yul\":629:635   */\n      dup2\n        /* \"#utility.yul\":616:636   */\n      calldataload\n        /* \"#utility.yul\":607:636   */\n      swap1\n      pop\n        /* \"#utility.yul\":645:678   */\n      tag_44\n        /* \"#utility.yul\":672:677   */\n      dup2\n        /* \"#utility.yul\":645:678   */\n      tag_27\n      jump\t// in\n    tag_44:\n        /* \"#utility.yul\":545:684   */\n      swap3\n      swap2\n      pop\n      pop\n      jump\t// out\n        /* \"#utility.yul\":690:1019   */\n    tag_7:\n        /* \"#utility.yul\":749:755   */\n      0x00\n        /* \"#utility.yul\":798:800   */\n      0x20\n        /* \"#utility.yul\":786:795   */\n      dup3\n        /* \"#utility.yul\":777:784   */\n      dup5\n        /* \"#utility.yul\":773:796   */\n      sub\n        /* \"#utility.yul\":769:801   */\n      slt\n        /* \"#utility.yul\":766:885   */\n      iszero\n      tag_46\n      jumpi\n        /* \"#utility.yul\":804:883   */\n      tag_47\n      tag_24\n      jump\t// in\n    tag_47:\n        /* \"#utility.yul\":766:885   */\n    tag_46:\n        /* \"#utility.yul\":924:925   */\n      0x00\n        /* \"#utility.yul\":949:1002   */\n      tag_48\n        /* \"#utility.yul\":994:1001   */\n      dup5\n        /* \"#utility.yul\":985:991   */\n      dup3\n        /* \"#utility.yul\":974:983   */\n      dup6\n        /* \"#utility.yul\":970:992   */\n      add\n        /* \"#utility.yul\":949:1002   */\n      tag_28\n      jump\t// in\n    tag_48:\n        /* \"#utility.yul\":939:1002   */\n      swap2\n      pop\n        /* \"#utility.yul\":895:1012   */\n      pop\n        /* \"#utility.yul\":690:1019   */\n      swap3\n      swap2\n      pop\n      pop\n      jump\t// out\n        /* \"#utility.yul\":1025:1143   */\n    tag_29:\n        /* \"#utility.yul\":1112:1136   */\n      tag_50\n        /* \"#utility.yul\":1130:1135   */\n      dup2\n        /* \"#utility.yul\":1112:1136   */\n      tag_26\n      jump\t// in\n    tag_50:\n        /* \"#utility.yul\":1107:1110   */\n      dup3\n        /* \"#utility.yul\":1100:1137   */\n      mstore\n        /* \"#utility.yul\":1025:1143   */\n      pop\n      pop\n      jump\t// out\n        /* \"#utility.yul\":1149:1371   */\n    tag_10:\n        /* \"#utility.yul\":1242:1246   */\n      0x00\n        /* \"#utility.yul\":1280:1282   */\n      0x20\n        /* \"#utility.yul\":1269:1278   */\n      dup3\n        /* \"#utility.yul\":1265:1283   */\n      add\n        /* \"#utility.yul\":1257:1283   */\n      swap1\n      pop\n        /* \"#utility.yul\":1293:1364   */\n      tag_52\n        /* \"#utility.yul\":1361:1362   */\n      0x00\n        /* \"#utility.yul\":1350:1359   */\n      dup4\n        /* \"#utility.yul\":1346:1363   */\n      add\n        /* \"#utility.yul\":1337:1343   */\n      dup5\n        /* \"#utility.yul\":1293:1364   */\n      tag_29\n      jump\t// in\n    tag_52:\n        /* \"#utility.yul\":1149:1371   */\n      swap3\n      swap2\n      pop\n      pop\n      jump\t// out\n        /* \"#utility.yul\":1377:1546   */\n    tag_30:\n        /* \"#utility.yul\":1461:1472   */\n      0x00\n        /* \"#utility.yul\":1495:1501   */\n      dup3\n        /* \"#utility.yul\":1490:1493   */\n      dup3\n        /* \"#utility.yul\":1483:1502   */\n      mstore\n        /* \"#utility.yul\":1535:1539   */\n      0x20\n        /* \"#utility.yul\":1530:1533   */\n      dup3\n        /* \"#utility.yul\":1526:1540   */\n      add\n        /* \"#utility.yul\":1511:1540   */\n      swap1\n      pop\n        /* \"#utility.yul\":1377:1546   */\n      swap3\n      swap2\n      pop\n      pop\n      jump\t// out\n        /* \"#utility.yul\":1552:1777   */\n    tag_31:\n        /* \"#utility.yul\":1692:1726   */\n      0x526576657274206572726f723a2073686f756c6420696e707574206d6f726520\n        /* \"#utility.yul\":1688:1689   */\n      0x00\n        /* \"#utility.yul\":1680:1686   */\n      dup3\n        /* \"#utility.yul\":1676:1690   */\n      add\n        /* \"#utility.yul\":1669:1727   */\n      mstore\n        /* \"#utility.yul\":1761:1769   */\n      0x7468616e20330000000000000000000000000000000000000000000000000000\n        /* \"#utility.yul\":1756:1758   */\n      0x20\n        /* \"#utility.yul\":1748:1754   */\n      dup3\n        /* \"#utility.yul\":1744:1759   */\n      add\n        /* \"#utility.yul\":1737:1770   */\n      mstore\n        /* \"#utility.yul\":1552:1777   */\n      pop\n      jump\t// out\n        /* \"#utility.yul\":1783:2149   */\n    tag_32:\n        /* \"#utility.yul\":1925:1928   */\n      0x00\n        /* \"#utility.yul\":1946:2013   */\n      tag_56\n        /* \"#utility.yul\":2010:2012   */\n      0x26\n        /* \"#utility.yul\":2005:2008   */\n      dup4\n        /* \"#utility.yul\":1946:2013   */\n      tag_30\n      jump\t// in\n    tag_56:\n        /* \"#utility.yul\":1939:2013   */\n      swap2\n      pop\n        /* \"#utility.yul\":2022:2115   */\n      tag_57\n        /* \"#utility.yul\":2111:2114   */\n      dup3\n        /* \"#utility.yul\":2022:2115   */\n      tag_31\n      jump\t// in\n    tag_57:\n        /* \"#utility.yul\":2140:2142   */\n      0x40\n        /* \"#utility.yul\":2135:2138   */\n      dup3\n        /* \"#utility.yul\":2131:2143   */\n      add\n        /* \"#utility.yul\":2124:2143   */\n      swap1\n      pop\n        /* \"#utility.yul\":1783:2149   */\n      swap2\n      swap1\n      pop\n      jump\t// out\n        /* \"#utility.yul\":2155:2574   */\n    tag_18:\n        /* \"#utility.yul\":2321:2325   */\n      0x00\n        /* \"#utility.yul\":2359:2361   */\n      0x20\n        /* \"#utility.yul\":2348:2357   */\n      dup3\n        /* \"#utility.yul\":2344:2362   */\n      add\n        /* \"#utility.yul\":2336:2362   */\n      swap1\n      pop\n        /* \"#utility.yul\":2408:2417   */\n      dup2\n        /* \"#utility.yul\":2402:2406   */\n      dup2\n        /* \"#utility.yul\":2398:2418   */\n      sub\n        /* \"#utility.yul\":2394:2395   */\n      0x00\n        /* \"#utility.yul\":2383:2392   */\n      dup4\n        /* \"#utility.yul\":2379:2396   */\n      add\n        /* \"#utility.yul\":2372:2419   */\n      mstore\n        /* \"#utility.yul\":2436:2567   */\n      tag_59\n        /* \"#utility.yul\":2562:2566   */\n      dup2\n        /* \"#utility.yul\":2436:2567   */\n      tag_32\n      jump\t// in\n    tag_59:\n        /* \"#utility.yul\":2428:2567   */\n      swap1\n      pop\n        /* \"#utility.yul\":2155:2574   */\n      swap2\n      swap1\n      pop\n      jump\t// out\n        /* \"#utility.yul\":2580:2807   */\n    tag_33:\n        /* \"#utility.yul\":2720:2754   */\n      0x52657175697265206572726f72203a2073686f756c6420696e707574206d6f72\n        /* \"#utility.yul\":2716:2717   */\n      0x00\n        /* \"#utility.yul\":2708:2714   */\n      dup3\n        /* \"#utility.yul\":2704:2718   */\n      add\n        /* \"#utility.yul\":2697:2755   */\n      mstore\n        /* \"#utility.yul\":2789:2799   */\n      0x65207468616e2033000000000000000000000000000000000000000000000000\n        /* \"#utility.yul\":2784:2786   */\n      0x20\n        /* \"#utility.yul\":2776:2782   */\n      dup3\n        /* \"#utility.yul\":2772:2787   */\n      add\n        /* \"#utility.yul\":2765:2800   */\n      mstore\n        /* \"#utility.yul\":2580:2807   */\n      pop\n      jump\t// out\n        /* \"#utility.yul\":2813:3179   */\n    tag_34:\n        /* \"#utility.yul\":2955:2958   */\n      0x00\n        /* \"#utility.yul\":2976:3043   */\n      tag_62\n        /* \"#utility.yul\":3040:3042   */\n      0x28\n        /* \"#utility.yul\":3035:3038   */\n      dup4\n        /* \"#utility.yul\":2976:3043   */\n      tag_30\n      jump\t// in\n    tag_62:\n        /* \"#utility.yul\":2969:3043   */\n      swap2\n      pop\n        /* \"#utility.yul\":3052:3145   */\n      tag_63\n        /* \"#utility.yul\":3141:3144   */\n      dup3\n        /* \"#utility.yul\":3052:3145   */\n      tag_33\n      jump\t// in\n    tag_63:\n        /* \"#utility.yul\":3170:3172   */\n      0x40\n        /* \"#utility.yul\":3165:3168   */\n      dup3\n        /* \"#utility.yul\":3161:3173   */\n      add\n        /* \"#utility.yul\":3154:3173   */\n      swap1\n      pop\n        /* \"#utility.yul\":2813:3179   */\n      swap2\n      swap1\n      pop\n      jump\t// out\n        /* \"#utility.yul\":3185:3604   */\n    tag_22:\n        /* \"#utility.yul\":3351:3355   */\n      0x00\n        /* \"#utility.yul\":3389:3391   */\n      0x20\n        /* \"#utility.yul\":3378:3387   */\n      dup3\n        /* \"#utility.yul\":3374:3392   */\n      add\n        /* \"#utility.yul\":3366:3392   */\n      swap1\n      pop\n        /* \"#utility.yul\":3438:3447   */\n      dup2\n        /* \"#utility.yul\":3432:3436   */\n      dup2\n        /* \"#utility.yul\":3428:3448   */\n      sub\n        /* \"#utility.yul\":3424:3425   */\n      0x00\n        /* \"#utility.yul\":3413:3422   */\n      dup4\n        /* \"#utility.yul\":3409:3426   */\n      add\n        /* \"#utility.yul\":3402:3449   */\n      mstore\n        /* \"#utility.yul\":3466:3597   */\n      tag_65\n        /* \"#utility.yul\":3592:3596   */\n      dup2\n        /* \"#utility.yul\":3466:3597   */\n      tag_34\n      jump\t// in\n    tag_65:\n        /* \"#utility.yul\":3458:3597   */\n      swap1\n      pop\n        /* \"#utility.yul\":3185:3604   */\n      swap2\n      swap1\n      pop\n      jump\t// out\n\n    auxdata: 0xa2646970667358221220e3ec3e5f860c657e7fb6ffd683ce20cc2b3bb18d86b74c121d5879acc07cbaa564736f6c63430008120033\n}\n",
				"bytecode": {
					"linkReferences": {},
					"object": "608060405234801561001057600080fd5b50610332806100206000396000f3fe608060405234801561001057600080fd5b50600436106100365760003560e01c8063a0c6ea131461003b578063cd95d0cc1461006b575b600080fd5b61005560048036038101906100509190610170565b61009b565b60405161006291906101ac565b60405180910390f35b61008560048036038101906100809190610170565b6100e8565b60405161009291906101ac565b60405180910390f35b6000600382116100e0576040517f08c379a00000000000000000000000000000000000000000000000000000000081526004016100d79061024a565b60405180910390fd5b819050919050565b60006003821161012d576040517f08c379a0000000000000000000000000000000000000000000000000000000008152600401610124906102dc565b60405180910390fd5b819050919050565b600080fd5b6000819050919050565b61014d8161013a565b811461015857600080fd5b50565b60008135905061016a81610144565b92915050565b60006020828403121561018657610185610135565b5b60006101948482850161015b565b91505092915050565b6101a68161013a565b82525050565b60006020820190506101c1600083018461019d565b92915050565b600082825260208201905092915050565b7f526576657274206572726f723a2073686f756c6420696e707574206d6f72652060008201527f7468616e20330000000000000000000000000000000000000000000000000000602082015250565b60006102346026836101c7565b915061023f826101d8565b604082019050919050565b6000602082019050818103600083015261026381610227565b9050919050565b7f52657175697265206572726f72203a2073686f756c6420696e707574206d6f7260008201527f65207468616e2033000000000000000000000000000000000000000000000000602082015250565b60006102c66028836101c7565b91506102d18261026a565b604082019050919050565b600060208201905081810360008301526102f5816102b9565b905091905056fea2646970667358221220e3ec3e5f860c657e7fb6ffd683ce20cc2b3bb18d86b74c121d5879acc07cbaa564736f6c63430008120033",
					"opcodes": "PUSH1 0x80 PUSH1 0x40 MSTORE CALLVALUE DUP1 ISZERO PUSH2 0x10 JUMPI PUSH1 0x0 DUP1 REVERT JUMPDEST POP PUSH2 0x332 DUP1 PUSH2 0x20 PUSH1 0x0 CODECOPY PUSH1 0x0 RETURN INVALID PUSH1 0x80 PUSH1 0x40 MSTORE CALLVALUE DUP1 ISZERO PUSH2 0x10 JUMPI PUSH1 0x0 DUP1 REVERT JUMPDEST POP PUSH1 0x4 CALLDATASIZE LT PUSH2 0x36 JUMPI PUSH1 0x0 CALLDATALOAD PUSH1 0xE0 SHR DUP1 PUSH4 0xA0C6EA13 EQ PUSH2 0x3B JUMPI DUP1 PUSH4 0xCD95D0CC EQ PUSH2 0x6B JUMPI JUMPDEST PUSH1 0x0 DUP1 REVERT JUMPDEST PUSH2 0x55 PUSH1 0x4 DUP1 CALLDATASIZE SUB DUP2 ADD SWAP1 PUSH2 0x50 SWAP2 SWAP1 PUSH2 0x170 JUMP JUMPDEST PUSH2 0x9B JUMP JUMPDEST PUSH1 0x40 MLOAD PUSH2 0x62 SWAP2 SWAP1 PUSH2 0x1AC JUMP JUMPDEST PUSH1 0x40 MLOAD DUP1 SWAP2 SUB SWAP1 RETURN JUMPDEST PUSH2 0x85 PUSH1 0x4 DUP1 CALLDATASIZE SUB DUP2 ADD SWAP1 PUSH2 0x80 SWAP2 SWAP1 PUSH2 0x170 JUMP JUMPDEST PUSH2 0xE8 JUMP JUMPDEST PUSH1 0x40 MLOAD PUSH2 0x92 SWAP2 SWAP1 PUSH2 0x1AC JUMP JUMPDEST PUSH1 0x40 MLOAD DUP1 SWAP2 SUB SWAP1 RETURN JUMPDEST PUSH1 0x0 PUSH1 0x3 DUP3 GT PUSH2 0xE0 JUMPI PUSH1 0x40 MLOAD PUSH32 0x8C379A000000000000000000000000000000000000000000000000000000000 DUP2 MSTORE PUSH1 0x4 ADD PUSH2 0xD7 SWAP1 PUSH2 0x24A JUMP JUMPDEST PUSH1 0x40 MLOAD DUP1 SWAP2 SUB SWAP1 REVERT JUMPDEST DUP2 SWAP1 POP SWAP2 SWAP1 POP JUMP JUMPDEST PUSH1 0x0 PUSH1 0x3 DUP3 GT PUSH2 0x12D JUMPI PUSH1 0x40 MLOAD PUSH32 0x8C379A000000000000000000000000000000000000000000000000000000000 DUP2 MSTORE PUSH1 0x4 ADD PUSH2 0x124 SWAP1 PUSH2 0x2DC JUMP JUMPDEST PUSH1 0x40 MLOAD DUP1 SWAP2 SUB SWAP1 REVERT JUMPDEST DUP2 SWAP1 POP SWAP2 SWAP1 POP JUMP JUMPDEST PUSH1 0x0 DUP1 REVERT JUMPDEST PUSH1 0x0 DUP2 SWAP1 POP SWAP2 SWAP1 POP JUMP JUMPDEST PUSH2 0x14D DUP2 PUSH2 0x13A JUMP JUMPDEST DUP2 EQ PUSH2 0x158 JUMPI PUSH1 0x0 DUP1 REVERT JUMPDEST POP JUMP JUMPDEST PUSH1 0x0 DUP2 CALLDATALOAD SWAP1 POP PUSH2 0x16A DUP2 PUSH2 0x144 JUMP JUMPDEST SWAP3 SWAP2 POP POP JUMP JUMPDEST PUSH1 0x0 PUSH1 0x20 DUP3 DUP5 SUB SLT ISZERO PUSH2 0x186 JUMPI PUSH2 0x185 PUSH2 0x135 JUMP JUMPDEST JUMPDEST PUSH1 0x0 PUSH2 0x194 DUP5 DUP3 DUP6 ADD PUSH2 0x15B JUMP JUMPDEST SWAP2 POP POP SWAP3 SWAP2 POP POP JUMP JUMPDEST PUSH2 0x1A6 DUP2 PUSH2 0x13A JUMP JUMPDEST DUP3 MSTORE POP POP JUMP JUMPDEST PUSH1 0x0 PUSH1 0x20 DUP3 ADD SWAP1 POP PUSH2 0x1C1 PUSH1 0x0 DUP4 ADD DUP5 PUSH2 0x19D JUMP JUMPDEST SWAP3 SWAP2 POP POP JUMP JUMPDEST PUSH1 0x0 DUP3 DUP3 MSTORE PUSH1 0x20 DUP3 ADD SWAP1 POP SWAP3 SWAP2 POP POP JUMP JUMPDEST PUSH32 0x526576657274206572726F723A2073686F756C6420696E707574206D6F726520 PUSH1 0x0 DUP3 ADD MSTORE PUSH32 0x7468616E20330000000000000000000000000000000000000000000000000000 PUSH1 0x20 DUP3 ADD MSTORE POP JUMP JUMPDEST PUSH1 0x0 PUSH2 0x234 PUSH1 0x26 DUP4 PUSH2 0x1C7 JUMP JUMPDEST SWAP2 POP PUSH2 0x23F DUP3 PUSH2 0x1D8 JUMP JUMPDEST PUSH1 0x40 DUP3 ADD SWAP1 POP SWAP2 SWAP1 POP JUMP JUMPDEST PUSH1 0x0 PUSH1 0x20 DUP3 ADD SWAP1 POP DUP2 DUP2 SUB PUSH1 0x0 DUP4 ADD MSTORE PUSH2 0x263 DUP2 PUSH2 0x227 JUMP JUMPDEST SWAP1 POP SWAP2 SWAP1 POP JUMP JUMPDEST PUSH32 0x52657175697265206572726F72203A2073686F756C6420696E707574206D6F72 PUSH1 0x0 DUP3 ADD MSTORE PUSH32 0x65207468616E2033000000000000000000000000000000000000000000000000 PUSH1 0x20 DUP3 ADD MSTORE POP JUMP JUMPDEST PUSH1 0x0 PUSH2 0x2C6 PUSH1 0x28 DUP4 PUSH2 0x1C7 JUMP JUMPDEST SWAP2 POP PUSH2 0x2D1 DUP3 PUSH2 0x26A JUMP JUMPDEST PUSH1 0x40 DUP3 ADD SWAP1 POP SWAP2 SWAP1 POP JUMP JUMPDEST PUSH1 0x0 PUSH1 0x20 DUP3 ADD SWAP1 POP DUP2 DUP2 SUB PUSH1 0x0 DUP4 ADD MSTORE PUSH2 0x2F5 DUP2 PUSH2 0x2B9 JUMP JUMPDEST SWAP1 POP SWAP2 SWAP1 POP JUMP INVALID LOG2 PUSH5 0x6970667358 0x22 SLT KECCAK256 0xE3 0xEC RETURNDATACOPY 0x5F DUP7 0xC PUSH6 0x7E7FB6FFD683 0xCE KECCAK256 0xCC 0x2B EXTCODESIZE 0xB1 DUP14 DUP7 0xB7 0x4C SLT SAR PC PUSH26 0xACC07CBAA564736F6C6343000812003300000000000000000000 "
				},
				"gasEstimates": {
					"creation": {
						"codeDepositCost": "163600",
						"executionCost": "208",
						"totalCost": "163808"
					},
					"external": {
						"runRequire(uint256)": "infinite",
						"runRevert(uint256)": "infinite"
					}
				},
				"methodIdentifiers": {
					"runRequire(uint256)": "cd95d0cc",
					"runRevert(uint256)": "a0c6ea13"
				}
			},
			"storageLayout": {
				"storage": [],
				"types": null
			},
			"userdoc": {
				"kind": "user",
				"methods": {},
				"version": 1
			}
		}
	}
}