{
	"Chapter4/Ex4-11.sol": {
		"Ex4_11": {
			"abi": [
				{
					"inputs": [],
					"name": "fun1",
					"outputs": [
						{
							"internalType": "uint256",
							"name": "",
							"type": "uint256"
						}
					],
					"stateMutability": "pure",
					"type": "function"
				}
			],
			"devdoc": {
				"kind": "dev",
				"methods": {},
				"version": 1
			},
			"evm": {
				"assembly": "    /* \"Chapter4/Ex4-11.sol\":67:347  contract Ex4_11 {... */\n  mstore(0x40, 0x80)\n  callvalue\n  dup1\n  iszero\n  tag_1\n  jumpi\n  0x00\n  dup1\n  revert\ntag_1:\n  pop\n  dataSize(sub_0)\n  dup1\n  dataOffset(sub_0)\n  0x00\n  codecopy\n  0x00\n  return\nstop\n\nsub_0: assembly {\n        /* \"Chapter4/Ex4-11.sol\":67:347  contract Ex4_11 {... */\n      mstore(0x40, 0x80)\n      callvalue\n      dup1\n      iszero\n      tag_1\n      jumpi\n      0x00\n      dup1\n      revert\n    tag_1:\n      pop\n      jumpi(tag_2, lt(calldatasize, 0x04))\n      shr(0xe0, calldataload(0x00))\n      dup1\n      0x446a45b7\n      eq\n      tag_3\n      jumpi\n    tag_2:\n      0x00\n      dup1\n      revert\n        /* \"Chapter4/Ex4-11.sol\":96:344  function fun1() public pure returns(uint) {... */\n    tag_3:\n      tag_4\n      tag_5\n      jump\t// in\n    tag_4:\n      mload(0x40)\n      tag_6\n      swap2\n      swap1\n      tag_7\n      jump\t// in\n    tag_6:\n      mload(0x40)\n      dup1\n      swap2\n      sub\n      swap1\n      return\n    tag_5:\n        /* \"Chapter4/Ex4-11.sol\":132:136  uint */\n      0x00\n        /* \"Chapter4/Ex4-11.sol\":149:160  uint result */\n      dup1\n        /* \"Chapter4/Ex4-11.sol\":163:164  0 */\n      0x00\n        /* \"Chapter4/Ex4-11.sol\":149:164  uint result = 0 */\n      swap1\n      pop\n        /* \"Chapter4/Ex4-11.sol\":179:185  uint a */\n      0x00\n        /* \"Chapter4/Ex4-11.sol\":188:189  1 */\n      0x01\n        /* \"Chapter4/Ex4-11.sol\":179:189  uint a = 1 */\n      swap1\n      pop\n        /* \"Chapter4/Ex4-11.sol\":175:313  for(uint a = 1; a < 2; ++a) {... */\n    tag_9:\n        /* \"Chapter4/Ex4-11.sol\":195:196  2 */\n      0x02\n        /* \"Chapter4/Ex4-11.sol\":191:192  a */\n      dup2\n        /* \"Chapter4/Ex4-11.sol\":191:196  a < 2 */\n      lt\n        /* \"Chapter4/Ex4-11.sol\":175:313  for(uint a = 1; a < 2; ++a) {... */\n      iszero\n      tag_10\n      jumpi\n        /* \"Chapter4/Ex4-11.sol\":222:228  uint b */\n      0x00\n        /* \"Chapter4/Ex4-11.sol\":230:231  2 */\n      0x02\n        /* \"Chapter4/Ex4-11.sol\":222:231  uint b= 2 */\n      swap1\n      pop\n        /* \"Chapter4/Ex4-11.sol\":218:302  for(uint b= 2; b < 4; b++) {... */\n    tag_12:\n        /* \"Chapter4/Ex4-11.sol\":237:238  4 */\n      0x04\n        /* \"Chapter4/Ex4-11.sol\":233:234  b */\n      dup2\n        /* \"Chapter4/Ex4-11.sol\":233:238  b < 4 */\n      lt\n        /* \"Chapter4/Ex4-11.sol\":218:302  for(uint b= 2; b < 4; b++) {... */\n      iszero\n      tag_13\n      jumpi\n        /* \"Chapter4/Ex4-11.sol\":284:285  b */\n      dup1\n        /* \"Chapter4/Ex4-11.sol\":282:283  a */\n      dup3\n        /* \"Chapter4/Ex4-11.sol\":282:285  a*b */\n      tag_15\n      swap2\n      swap1\n      tag_16\n      jump\t// in\n    tag_15:\n        /* \"Chapter4/Ex4-11.sol\":273:279  result */\n      dup4\n        /* \"Chapter4/Ex4-11.sol\":273:286  result +(a*b) */\n      tag_17\n      swap2\n      swap1\n      tag_18\n      jump\t// in\n    tag_17:\n        /* \"Chapter4/Ex4-11.sol\":264:286  result = result +(a*b) */\n      swap3\n      pop\n        /* \"Chapter4/Ex4-11.sol\":240:243  b++ */\n      dup1\n      dup1\n      tag_19\n      swap1\n      tag_20\n      jump\t// in\n    tag_19:\n      swap2\n      pop\n      pop\n        /* \"Chapter4/Ex4-11.sol\":218:302  for(uint b= 2; b < 4; b++) {... */\n      jump(tag_12)\n    tag_13:\n      pop\n        /* \"Chapter4/Ex4-11.sol\":198:201  ++a */\n      dup1\n      tag_21\n      swap1\n      tag_20\n      jump\t// in\n    tag_21:\n      swap1\n      pop\n        /* \"Chapter4/Ex4-11.sol\":175:313  for(uint a = 1; a < 2; ++a) {... */\n      jump(tag_9)\n    tag_10:\n      pop\n        /* \"Chapter4/Ex4-11.sol\":330:336  result */\n      dup1\n        /* \"Chapter4/Ex4-11.sol\":323:336  return result */\n      swap2\n      pop\n      pop\n        /* \"Chapter4/Ex4-11.sol\":96:344  function fun1() public pure returns(uint) {... */\n      swap1\n      jump\t// out\n        /* \"#utility.yul\":7:84   */\n    tag_22:\n        /* \"#utility.yul\":44:51   */\n      0x00\n        /* \"#utility.yul\":73:78   */\n      dup2\n        /* \"#utility.yul\":62:78   */\n      swap1\n      pop\n        /* \"#utility.yul\":7:84   */\n      swap2\n      swap1\n      pop\n      jump\t// out\n        /* \"#utility.yul\":90:208   */\n    tag_23:\n        /* \"#utility.yul\":177:201   */\n      tag_28\n        /* \"#utility.yul\":195:200   */\n      dup2\n        /* \"#utility.yul\":177:201   */\n      tag_22\n      jump\t// in\n    tag_28:\n        /* \"#utility.yul\":172:175   */\n      dup3\n        /* \"#utility.yul\":165:202   */\n      mstore\n        /* \"#utility.yul\":90:208   */\n      pop\n      pop\n      jump\t// out\n        /* \"#utility.yul\":214:436   */\n    tag_7:\n        /* \"#utility.yul\":307:311   */\n      0x00\n        /* \"#utility.yul\":345:347   */\n      0x20\n        /* \"#utility.yul\":334:343   */\n      dup3\n        /* \"#utility.yul\":330:348   */\n      add\n        /* \"#utility.yul\":322:348   */\n      swap1\n      pop\n        /* \"#utility.yul\":358:429   */\n      tag_30\n        /* \"#utility.yul\":426:427   */\n      0x00\n        /* \"#utility.yul\":415:424   */\n      dup4\n        /* \"#utility.yul\":411:428   */\n      add\n        /* \"#utility.yul\":402:408   */\n      dup5\n        /* \"#utility.yul\":358:429   */\n      tag_23\n      jump\t// in\n    tag_30:\n        /* \"#utility.yul\":214:436   */\n      swap3\n      swap2\n      pop\n      pop\n      jump\t// out\n        /* \"#utility.yul\":442:622   */\n    tag_24:\n        /* \"#utility.yul\":490:567   */\n      0x4e487b7100000000000000000000000000000000000000000000000000000000\n        /* \"#utility.yul\":487:488   */\n      0x00\n        /* \"#utility.yul\":480:568   */\n      mstore\n        /* \"#utility.yul\":587:591   */\n      0x11\n        /* \"#utility.yul\":584:585   */\n      0x04\n        /* \"#utility.yul\":577:592   */\n      mstore\n        /* \"#utility.yul\":611:615   */\n      0x24\n        /* \"#utility.yul\":608:609   */\n      0x00\n        /* \"#utility.yul\":601:616   */\n      revert\n        /* \"#utility.yul\":628:1038   */\n    tag_16:\n        /* \"#utility.yul\":668:675   */\n      0x00\n        /* \"#utility.yul\":691:711   */\n      tag_33\n        /* \"#utility.yul\":709:710   */\n      dup3\n        /* \"#utility.yul\":691:711   */\n      tag_22\n      jump\t// in\n    tag_33:\n        /* \"#utility.yul\":686:711   */\n      swap2\n      pop\n        /* \"#utility.yul\":725:745   */\n      tag_34\n        /* \"#utility.yul\":743:744   */\n      dup4\n        /* \"#utility.yul\":725:745   */\n      tag_22\n      jump\t// in\n    tag_34:\n        /* \"#utility.yul\":720:745   */\n      swap3\n      pop\n        /* \"#utility.yul\":780:781   */\n      dup3\n        /* \"#utility.yul\":777:778   */\n      dup3\n        /* \"#utility.yul\":773:782   */\n      mul\n        /* \"#utility.yul\":802:832   */\n      tag_35\n        /* \"#utility.yul\":820:831   */\n      dup2\n        /* \"#utility.yul\":802:832   */\n      tag_22\n      jump\t// in\n    tag_35:\n        /* \"#utility.yul\":791:832   */\n      swap2\n      pop\n        /* \"#utility.yul\":981:982   */\n      dup3\n        /* \"#utility.yul\":972:979   */\n      dup3\n        /* \"#utility.yul\":968:983   */\n      div\n        /* \"#utility.yul\":965:966   */\n      dup5\n        /* \"#utility.yul\":962:984   */\n      eq\n        /* \"#utility.yul\":942:943   */\n      dup4\n        /* \"#utility.yul\":935:944   */\n      iszero\n        /* \"#utility.yul\":915:998   */\n      or\n        /* \"#utility.yul\":892:1031   */\n      tag_36\n      jumpi\n        /* \"#utility.yul\":1011:1029   */\n      tag_37\n      tag_24\n      jump\t// in\n    tag_37:\n        /* \"#utility.yul\":892:1031   */\n    tag_36:\n        /* \"#utility.yul\":676:1038   */\n      pop\n        /* \"#utility.yul\":628:1038   */\n      swap3\n      swap2\n      pop\n      pop\n      jump\t// out\n        /* \"#utility.yul\":1044:1235   */\n    tag_18:\n        /* \"#utility.yul\":1084:1087   */\n      0x00\n        /* \"#utility.yul\":1103:1123   */\n      tag_39\n        /* \"#utility.yul\":1121:1122   */\n      dup3\n        /* \"#utility.yul\":1103:1123   */\n      tag_22\n      jump\t// in\n    tag_39:\n        /* \"#utility.yul\":1098:1123   */\n      swap2\n      pop\n        /* \"#utility.yul\":1137:1157   */\n      tag_40\n        /* \"#utility.yul\":1155:1156   */\n      dup4\n        /* \"#utility.yul\":1137:1157   */\n      tag_22\n      jump\t// in\n    tag_40:\n        /* \"#utility.yul\":1132:1157   */\n      swap3\n      pop\n        /* \"#utility.yul\":1180:1181   */\n      dup3\n        /* \"#utility.yul\":1177:1178   */\n      dup3\n        /* \"#utility.yul\":1173:1182   */\n      add\n        /* \"#utility.yul\":1166:1182   */\n      swap1\n      pop\n        /* \"#utility.yul\":1201:1204   */\n      dup1\n        /* \"#utility.yul\":1198:1199   */\n      dup3\n        /* \"#utility.yul\":1195:1205   */\n      gt\n        /* \"#utility.yul\":1192:1228   */\n      iszero\n      tag_41\n      jumpi\n        /* \"#utility.yul\":1208:1226   */\n      tag_42\n      tag_24\n      jump\t// in\n    tag_42:\n        /* \"#utility.yul\":1192:1228   */\n    tag_41:\n        /* \"#utility.yul\":1044:1235   */\n      swap3\n      swap2\n      pop\n      pop\n      jump\t// out\n        /* \"#utility.yul\":1241:1474   */\n    tag_20:\n        /* \"#utility.yul\":1280:1283   */\n      0x00\n        /* \"#utility.yul\":1303:1327   */\n      tag_44\n        /* \"#utility.yul\":1321:1326   */\n      dup3\n        /* \"#utility.yul\":1303:1327   */\n      tag_22\n      jump\t// in\n    tag_44:\n        /* \"#utility.yul\":1294:1327   */\n      swap2\n      pop\n        /* \"#utility.yul\":1349:1415   */\n      0xffffffffffffffffffffffffffffffffffffffffffffffffffffffffffffffff\n        /* \"#utility.yul\":1342:1347   */\n      dup3\n        /* \"#utility.yul\":1339:1416   */\n      sub\n        /* \"#utility.yul\":1336:1439   */\n      tag_45\n      jumpi\n        /* \"#utility.yul\":1419:1437   */\n      tag_46\n      tag_24\n      jump\t// in\n    tag_46:\n        /* \"#utility.yul\":1336:1439   */\n    tag_45:\n        /* \"#utility.yul\":1466:1467   */\n      0x01\n        /* \"#utility.yul\":1459:1464   */\n      dup3\n        /* \"#utility.yul\":1455:1468   */\n      add\n        /* \"#utility.yul\":1448:1468   */\n      swap1\n      pop\n        /* \"#utility.yul\":1241:1474   */\n      swap2\n      swap1\n      pop\n      jump\t// out\n\n    auxdata: 0xa26469706673582212207b9ca0c8abd35fa53ab0898898fb93488b7bbfe9ff6dba0ee3e6594d6e670be264736f6c63430008120033\n}\n",
				"bytecode": {
					"linkReferences": {},
					"object": "608060405234801561001057600080fd5b50610212806100206000396000f3fe608060405234801561001057600080fd5b506004361061002b5760003560e01c8063446a45b714610030575b600080fd5b61003861004e565b60405161004591906100d4565b60405180910390f35b600080600090506000600190505b60028110156100b3576000600290505b60048110156100a1578082610081919061011e565b8361008c9190610160565b9250808061009990610194565b91505061006c565b50806100ac90610194565b905061005c565b508091505090565b6000819050919050565b6100ce816100bb565b82525050565b60006020820190506100e960008301846100c5565b92915050565b7f4e487b7100000000000000000000000000000000000000000000000000000000600052601160045260246000fd5b6000610129826100bb565b9150610134836100bb565b9250828202610142816100bb565b91508282048414831517610159576101586100ef565b5b5092915050565b600061016b826100bb565b9150610176836100bb565b925082820190508082111561018e5761018d6100ef565b5b92915050565b600061019f826100bb565b91507fffffffffffffffffffffffffffffffffffffffffffffffffffffffffffffffff82036101d1576101d06100ef565b5b60018201905091905056fea26469706673582212207b9ca0c8abd35fa53ab0898898fb93488b7bbfe9ff6dba0ee3e6594d6e670be264736f6c63430008120033",
					"opcodes": "PUSH1 0x80 PUSH1 0x40 MSTORE CALLVALUE DUP1 ISZERO PUSH2 0x10 JUMPI PUSH1 0x0 DUP1 REVERT JUMPDEST POP PUSH2 0x212 DUP1 PUSH2 0x20 PUSH1 0x0 CODECOPY PUSH1 0x0 RETURN INVALID PUSH1 0x80 PUSH1 0x40 MSTORE CALLVALUE DUP1 ISZERO PUSH2 0x10 JUMPI PUSH1 0x0 DUP1 REVERT JUMPDEST POP PUSH1 0x4 CALLDATASIZE LT PUSH2 0x2B JUMPI PUSH1 0x0 CALLDATALOAD PUSH1 0xE0 SHR DUP1 PUSH4 0x446A45B7 EQ PUSH2 0x30 JUMPI JUMPDEST PUSH1 0x0 DUP1 REVERT JUMPDEST PUSH2 0x38 PUSH2 0x4E JUMP JUMPDEST PUSH1 0x40 MLOAD PUSH2 0x45 SWAP2 SWAP1 PUSH2 0xD4 JUMP JUMPDEST PUSH1 0x40 MLOAD DUP1 SWAP2 SUB SWAP1 RETURN JUMPDEST PUSH1 0x0 DUP1 PUSH1 0x0 SWAP1 POP PUSH1 0x0 PUSH1 0x1 SWAP1 POP JUMPDEST PUSH1 0x2 DUP2 LT ISZERO PUSH2 0xB3 JUMPI PUSH1 0x0 PUSH1 0x2 SWAP1 POP JUMPDEST PUSH1 0x4 DUP2 LT ISZERO PUSH2 0xA1 JUMPI DUP1 DUP3 PUSH2 0x81 SWAP2 SWAP1 PUSH2 0x11E JUMP JUMPDEST DUP4 PUSH2 0x8C SWAP2 SWAP1 PUSH2 0x160 JUMP JUMPDEST SWAP3 POP DUP1 DUP1 PUSH2 0x99 SWAP1 PUSH2 0x194 JUMP JUMPDEST SWAP2 POP POP PUSH2 0x6C JUMP JUMPDEST POP DUP1 PUSH2 0xAC SWAP1 PUSH2 0x194 JUMP JUMPDEST SWAP1 POP PUSH2 0x5C JUMP JUMPDEST POP DUP1 SWAP2 POP POP SWAP1 JUMP JUMPDEST PUSH1 0x0 DUP2 SWAP1 POP SWAP2 SWAP1 POP JUMP JUMPDEST PUSH2 0xCE DUP2 PUSH2 0xBB JUMP JUMPDEST DUP3 MSTORE POP POP JUMP JUMPDEST PUSH1 0x0 PUSH1 0x20 DUP3 ADD SWAP1 POP PUSH2 0xE9 PUSH1 0x0 DUP4 ADD DUP5 PUSH2 0xC5 JUMP JUMPDEST SWAP3 SWAP2 POP POP JUMP JUMPDEST PUSH32 0x4E487B7100000000000000000000000000000000000000000000000000000000 PUSH1 0x0 MSTORE PUSH1 0x11 PUSH1 0x4 MSTORE PUSH1 0x24 PUSH1 0x0 REVERT JUMPDEST PUSH1 0x0 PUSH2 0x129 DUP3 PUSH2 0xBB JUMP JUMPDEST SWAP2 POP PUSH2 0x134 DUP4 PUSH2 0xBB JUMP JUMPDEST SWAP3 POP DUP3 DUP3 MUL PUSH2 0x142 DUP2 PUSH2 0xBB JUMP JUMPDEST SWAP2 POP DUP3 DUP3 DIV DUP5 EQ DUP4 ISZERO OR PUSH2 0x159 JUMPI PUSH2 0x158 PUSH2 0xEF JUMP JUMPDEST JUMPDEST POP SWAP3 SWAP2 POP POP JUMP JUMPDEST PUSH1 0x0 PUSH2 0x16B DUP3 PUSH2 0xBB JUMP JUMPDEST SWAP2 POP PUSH2 0x176 DUP4 PUSH2 0xBB JUMP JUMPDEST SWAP3 POP DUP3 DUP3 ADD SWAP1 POP DUP1 DUP3 GT ISZERO PUSH2 0x18E JUMPI PUSH2 0x18D PUSH2 0xEF JUMP JUMPDEST JUMPDEST SWAP3 SWAP2 POP POP JUMP JUMPDEST PUSH1 0x0 PUSH2 0x19F DUP3 PUSH2 0xBB JUMP JUMPDEST SWAP2 POP PUSH32 0xFFFFFFFFFFFFFFFFFFFFFFFFFFFFFFFFFFFFFFFFFFFFFFFFFFFFFFFFFFFFFFFF DUP3 SUB PUSH2 0x1D1 JUMPI PUSH2 0x1D0 PUSH2 0xEF JUMP JUMPDEST JUMPDEST PUSH1 0x1 DUP3 ADD SWAP1 POP SWAP2 SWAP1 POP JUMP INVALID LOG2 PUSH5 0x6970667358 0x22 SLT KECCAK256 PUSH28 0x9CA0C8ABD35FA53AB0898898FB93488B7BBFE9FF6DBA0EE3E6594D6E PUSH8 0xBE264736F6C6343 STOP ADDMOD SLT STOP CALLER "
				},
				"gasEstimates": {
					"creation": {
						"codeDepositCost": "106000",
						"executionCost": "153",
						"totalCost": "106153"
					},
					"external": {
						"fun1()": "infinite"
					}
				},
				"methodIdentifiers": {
					"fun1()": "446a45b7"
				}
			},
			"storageLayout": {
				"storage": [],
				"types": null
			},
			"userdoc": {
				"kind": "user",
				"methods": {},
				"version": 1
			}
		}
	}
}